{
  "_format": "hh-sol-artifact-1",
  "contractName": "CertificateRegistrySeoplia",
  "sourceName": "contracts/CertificateRegistrySeoplia.sol",
  "abi": [
    {
      "anonymous": false,
      "inputs": [
        {
          "indexed": true,
          "internalType": "string",
          "name": "fileHash",
          "type": "string"
        },
        {
          "indexed": false,
          "internalType": "string",
          "name": "studentName",
          "type": "string"
        },
        {
          "indexed": false,
          "internalType": "string",
          "name": "registrationNumber",
          "type": "string"
        },
        {
          "indexed": true,
          "internalType": "address",
          "name": "universityAddress",
          "type": "address"
        },
        {
          "indexed": false,
          "internalType": "uint256",
          "name": "timestamp",
          "type": "uint256"
        }
      ],
      "name": "CertificateRegistered",
      "type": "event"
    },
    {
      "anonymous": false,
      "inputs": [
        {
          "indexed": true,
          "internalType": "string",
          "name": "fileHash",
          "type": "string"
        },
        {
          "indexed": false,
          "internalType": "string",
          "name": "reason",
          "type": "string"
        },
        {
          "indexed": false,
          "internalType": "string",
          "name": "replacementCertificateHash",
          "type": "string"
        },
        {
          "indexed": true,
          "internalType": "address",
          "name": "revokedBy",
          "type": "address"
        },
        {
          "indexed": false,
          "internalType": "uint256",
          "name": "timestamp",
          "type": "uint256"
        }
      ],
      "name": "CertificateRevoked",
      "type": "event"
    },
    {
      "anonymous": false,
      "inputs": [
        {
          "indexed": true,
          "internalType": "string",
          "name": "fileHash",
          "type": "string"
        },
        {
          "indexed": false,
          "internalType": "bool",
          "name": "exists",
          "type": "bool"
        },
        {
          "indexed": false,
          "internalType": "uint256",
          "name": "timestamp",
          "type": "uint256"
        }
      ],
      "name": "CertificateVerified",
      "type": "event"
    },
    {
      "inputs": [
        {
          "internalType": "uint256",
          "name": "",
          "type": "uint256"
        }
      ],
      "name": "allCertificateHashes",
      "outputs": [
        {
          "internalType": "string",
          "name": "",
          "type": "string"
        }
      ],
      "stateMutability": "view",
      "type": "function"
    },
    {
      "inputs": [
        {
          "internalType": "string",
          "name": "_fileHash",
          "type": "string"
        }
      ],
      "name": "certificateExists",
      "outputs": [
        {
          "internalType": "bool",
          "name": "",
          "type": "bool"
        }
      ],
      "stateMutability": "view",
      "type": "function"
    },
    {
      "inputs": [
        {
          "internalType": "string",
          "name": "",
          "type": "string"
        }
      ],
      "name": "certificates",
      "outputs": [
        {
          "internalType": "string",
          "name": "studentName",
          "type": "string"
        },
        {
          "internalType": "string",
          "name": "registrationNumber",
          "type": "string"
        },
        {
          "internalType": "string",
          "name": "fileName",
          "type": "string"
        },
        {
          "internalType": "string",
          "name": "ipfsUrl",
          "type": "string"
        },
        {
          "internalType": "string",
          "name": "ipfsCID",
          "type": "string"
        },
        {
          "internalType": "string",
          "name": "fileHash",
          "type": "string"
        },
        {
          "internalType": "address",
          "name": "universityAddress",
          "type": "address"
        },
        {
          "internalType": "uint256",
          "name": "timestamp",
          "type": "uint256"
        },
        {
          "internalType": "bool",
          "name": "exists",
          "type": "bool"
        },
        {
          "internalType": "bool",
          "name": "isRevoked",
          "type": "bool"
        },
        {
          "internalType": "string",
          "name": "revocationReason",
          "type": "string"
        },
        {
          "internalType": "uint256",
          "name": "revocationTimestamp",
          "type": "uint256"
        },
        {
          "internalType": "string",
          "name": "replacementCertificateHash",
          "type": "string"
        }
      ],
      "stateMutability": "view",
      "type": "function"
    },
    {
      "inputs": [
        {
          "internalType": "string",
          "name": "_fileHash",
          "type": "string"
        }
      ],
      "name": "getCertificate",
      "outputs": [
        {
          "components": [
            {
              "internalType": "string",
              "name": "studentName",
              "type": "string"
            },
            {
              "internalType": "string",
              "name": "registrationNumber",
              "type": "string"
            },
            {
              "internalType": "string",
              "name": "fileName",
              "type": "string"
            },
            {
              "internalType": "string",
              "name": "ipfsUrl",
              "type": "string"
            },
            {
              "internalType": "string",
              "name": "ipfsCID",
              "type": "string"
            },
            {
              "internalType": "string",
              "name": "fileHash",
              "type": "string"
            },
            {
              "internalType": "address",
              "name": "universityAddress",
              "type": "address"
            },
            {
              "internalType": "uint256",
              "name": "timestamp",
              "type": "uint256"
            },
            {
              "internalType": "bool",
              "name": "exists",
              "type": "bool"
            },
            {
              "internalType": "bool",
              "name": "isRevoked",
              "type": "bool"
            },
            {
              "internalType": "string",
              "name": "revocationReason",
              "type": "string"
            },
            {
              "internalType": "uint256",
              "name": "revocationTimestamp",
              "type": "uint256"
            },
            {
              "internalType": "string",
              "name": "replacementCertificateHash",
              "type": "string"
            }
          ],
          "internalType": "struct CertificateRegistrySeoplia.Certificate",
          "name": "",
          "type": "tuple"
        }
      ],
      "stateMutability": "view",
      "type": "function"
    },
    {
      "inputs": [
        {
          "internalType": "string",
          "name": "_fileHash",
          "type": "string"
        }
      ],
      "name": "getRevocationStatus",
      "outputs": [
        {
          "internalType": "bool",
          "name": "isRevoked",
          "type": "bool"
        },
        {
          "internalType": "string",
          "name": "reason",
          "type": "string"
        },
        {
          "internalType": "uint256",
          "name": "revocationTimestamp",
          "type": "uint256"
        },
        {
          "internalType": "string",
          "name": "replacementHash",
          "type": "string"
        }
      ],
      "stateMutability": "view",
      "type": "function"
    },
    {
      "inputs": [],
      "name": "getTotalCertificates",
      "outputs": [
        {
          "internalType": "uint256",
          "name": "",
          "type": "uint256"
        }
      ],
      "stateMutability": "view",
      "type": "function"
    },
    {
      "inputs": [
        {
          "internalType": "address",
          "name": "_universityAddress",
          "type": "address"
        }
      ],
      "name": "getUniversityCertificates",
      "outputs": [
        {
          "internalType": "string[]",
          "name": "",
          "type": "string[]"
        }
      ],
      "stateMutability": "view",
      "type": "function"
    },
    {
      "inputs": [
        {
          "internalType": "string",
          "name": "_fileHash",
          "type": "string"
        }
      ],
      "name": "isValidCertificate",
      "outputs": [
        {
          "internalType": "bool",
          "name": "",
          "type": "bool"
        }
      ],
      "stateMutability": "view",
      "type": "function"
    },
    {
      "inputs": [
        {
          "internalType": "string",
          "name": "_studentName",
          "type": "string"
        },
        {
          "internalType": "string",
          "name": "_registrationNumber",
          "type": "string"
        },
        {
          "internalType": "string",
          "name": "_fileName",
          "type": "string"
        },
        {
          "internalType": "string",
          "name": "_ipfsUrl",
          "type": "string"
        },
        {
          "internalType": "string",
          "name": "_ipfsCID",
          "type": "string"
        },
        {
          "internalType": "string",
          "name": "_fileHash",
          "type": "string"
        }
      ],
      "name": "registerCertificate",
      "outputs": [
        {
          "internalType": "bool",
          "name": "",
          "type": "bool"
        }
      ],
      "stateMutability": "nonpayable",
      "type": "function"
    },
    {
      "inputs": [
        {
          "internalType": "string",
          "name": "_oldFileHash",
          "type": "string"
        },
        {
          "internalType": "string",
          "name": "_reason",
          "type": "string"
        },
        {
          "internalType": "string",
          "name": "_studentName",
          "type": "string"
        },
        {
          "internalType": "string",
          "name": "_registrationNumber",
          "type": "string"
        },
        {
          "internalType": "string",
          "name": "_fileName",
          "type": "string"
        },
        {
          "internalType": "string",
          "name": "_ipfsUrl",
          "type": "string"
        },
        {
          "internalType": "string",
          "name": "_ipfsCID",
          "type": "string"
        },
        {
          "internalType": "string",
          "name": "_newFileHash",
          "type": "string"
        }
      ],
      "name": "replaceCertificate",
      "outputs": [
        {
          "internalType": "bool",
          "name": "",
          "type": "bool"
        }
      ],
      "stateMutability": "nonpayable",
      "type": "function"
    },
    {
      "inputs": [
        {
          "internalType": "string",
          "name": "_fileHash",
          "type": "string"
        },
        {
          "internalType": "string",
          "name": "_reason",
          "type": "string"
        }
      ],
      "name": "revokeCertificate",
      "outputs": [
        {
          "internalType": "bool",
          "name": "",
          "type": "bool"
        }
      ],
      "stateMutability": "nonpayable",
      "type": "function"
    },
    {
      "inputs": [
        {
          "internalType": "address",
          "name": "",
          "type": "address"
        },
        {
          "internalType": "uint256",
          "name": "",
          "type": "uint256"
        }
      ],
      "name": "universityCertificates",
      "outputs": [
        {
          "internalType": "string",
          "name": "",
          "type": "string"
        }
      ],
      "stateMutability": "view",
      "type": "function"
    },
    {
      "inputs": [
        {
          "internalType": "string",
          "name": "_fileHash",
          "type": "string"
        }
      ],
      "name": "verifyCertificate",
      "outputs": [
        {
          "internalType": "bool",
          "name": "exists",
          "type": "bool"
        },
        {
          "components": [
            {
              "internalType": "string",
              "name": "studentName",
              "type": "string"
            },
            {
              "internalType": "string",
              "name": "registrationNumber",
              "type": "string"
            },
            {
              "internalType": "string",
              "name": "fileName",
              "type": "string"
            },
            {
              "internalType": "string",
              "name": "ipfsUrl",
              "type": "string"
            },
            {
              "internalType": "string",
              "name": "ipfsCID",
              "type": "string"
            },
            {
              "internalType": "string",
              "name": "fileHash",
              "type": "string"
            },
            {
              "internalType": "address",
              "name": "universityAddress",
              "type": "address"
            },
            {
              "internalType": "uint256",
              "name": "timestamp",
              "type": "uint256"
            },
            {
              "internalType": "bool",
              "name": "exists",
              "type": "bool"
            },
            {
              "internalType": "bool",
              "name": "isRevoked",
              "type": "bool"
            },
            {
              "internalType": "string",
              "name": "revocationReason",
              "type": "string"
            },
            {
              "internalType": "uint256",
              "name": "revocationTimestamp",
              "type": "uint256"
            },
            {
              "internalType": "string",
              "name": "replacementCertificateHash",
              "type": "string"
            }
          ],
          "internalType": "struct CertificateRegistrySeoplia.Certificate",
          "name": "cert",
          "type": "tuple"
        }
      ],
      "stateMutability": "nonpayable",
      "type": "function"
    }
  ],
  "bytecode": "0x6080806040523461001657611cea908161001c8239f35b600080fdfe6080604052600436101561001257600080fd5b60003560e01c80630655f03714611534578063149ae6dd146114e35780633d6af3871461146357806357a8378514610ee15780637843bb7914610ec35780637ea4ad5914610db35780638b23d87514610c085780638f2b91ea14610a72578063aa54bf94146108fb578063b5164b3814610859578063bc4f5bad146105ca578063d3b229b3146102285763ed0f2e75146100ab57600080fd5b3461022357602080600319360112610223576004356001600160401b03811161022357816100e061012b9236906004016115f0565b6100e8611c03565b506040519061011a60ff600883519486818187019761010881838b611754565b81016000815203019020015416611c68565b604051938492839251928391611754565b8101600081520301902090610205600b6040519361014885611598565b610151816116ae565b855261015f600182016116ae565b8486015261016f600282016116ae565b6040860152610180600382016116ae565b6060860152610191600482016116ae565b60808601526101a2600582016116ae565b60a086015260068101546001600160a01b031660c0860152600781015460e086015260088082015460ff8181161515610100890152911c1615156101208601526101ee600982016116ae565b610140860152600a810154610160860152016116ae565b61018083015261021f6040519282849384528301906117b2565b0390f35b600080fd5b346102235760c0366003190112610223576001600160401b03600435818111610223576102599036906004016115f0565b602435828111610223576102719036906004016115f0565b916044358181116102235761028a9036906004016115f0565b606435828111610223576102a29036906004016115f0565b608435838111610223576102ba9036906004016115f0565b9260a435908111610223576102d39036906004016115f0565b6102df855115156118a2565b6102eb865115156118ee565b6102f783511515611946565b61030382511515611992565b61030f845115156119de565b8051156105855760ff6008604051602081855161032f8183858a01611754565b81016000815203019020015416610540576104fc61053293600b610180610521957fe616ab3f5763fe8347f3ebea8944a62aa33eed929a9d82c51a6b256a1d58ec6a986040519161037f83611598565b8b835260208301958d87526040840152606083015260808201528560a08201523360c08201524260e0820152600161010082015260006101208201526040516103c7816115b4565b6000815261014082015260006101608201526040516103e5816115b4565b6000815282820152610427604051602081816104078b83815193849201611754565b810160008152030190209461041d835187611a2a565b5160018601611a2a565b610438604082015160028601611a2a565b610449606082015160038601611a2a565b61045a608082015160048601611a2a565b61046b60a082015160058601611a2a565b6006840160018060a01b0360c0830151166bffffffffffffffffffffffff60a01b82541617905560e081015160078501556104d660088501610100830151151560ff80198354169116178155610120830151151561ff00825491151560081b169061ff001916179055565b6104e861014082015160098601611a2a565b610160810151600a85015501519101611a2a565b336000526001602052610513816040600020611b88565b61051c81611b39565b611bb5565b926040519182913396429184611bd5565b0390a3602060405160018152f35b60405162461bcd60e51b815260206004820152601e60248201527f436572746966696361746520616c7265616479207265676973746572656400006044820152606490fd5b60405162461bcd60e51b815260206004820152601960248201527f46696c6520686173682063616e6e6f7420626520656d707479000000000000006044820152606490fd5b34610223576040366003190112610223576001600160401b03600435818111610223576105fb9036906004016115f0565b90602435908111610223576106149036906004016115f0565b60405191805161063560ff600860209687818188019661010881838a611754565b60ff60086040518681865161064b818389611754565b81016000815203019020015460081c166108145760405160068351610671818486611754565b6000908301908152829003860190912001546001600160a01b031633036107c4578251156107755790610707600a61071d936008604051888187516106b7818388611754565b810160008152030190200161010061ff00198254161790556106f78660096040518a8189516106e781838a611754565b8101600081520301902001611a2a565b6040519283918551928391611754565b8201916000835286814294030190200155611bb5565b7f67562d27eac2791a265854a2a1b95b0c1f44dff82c377fc9261f9039d92b1f5661075360405193606085526060850190611777565b926000818503948587840152524260408201528433940190a360405160018152f35b60405162461bcd60e51b815260048101859052602160248201527f5265766f636174696f6e20726561736f6e2063616e6e6f7420626520656d70746044820152607960f81b6064820152608490fd5b60405162461bcd60e51b815260048101859052602260248201527f4f6e6c792069737375696e6720756e69766572736974792063616e207265766f6044820152616b6560f01b6064820152608490fd5b60405162461bcd60e51b815260048101859052601b60248201527f436572746966696361746520616c7265616479207265766f6b656400000000006044820152606490fd5b34610223576020366003190112610223576004356001600160401b0381116102235761088b60209136906004016115f0565b60405160ff60088351928581818701956108a6818389611754565b8101600081520301902001541691826108c6575b50506040519015158152f35b60ff9250836008926108e392604051938492839251928391611754565b81016000815203019020015460081c161582806108ba565b3461022357602080600319360112610223576004356001600160401b038111610223578161093061094f9236906004016115f0565b6040519061011a60ff600883519486818187019761010881838b611754565b8101600081520301902061021f6040519161096983611598565b610972816116ae565b8352610980600182016116ae565b84840152610990600282016116ae565b60408401526109a1600382016116ae565b60608401526109b2600482016116ae565b60808401526109c3600582016116ae565b60a084015260068101546001600160a01b031660c0840152600781015460e084015260088082015460ff8082161515610100870152911c161515610120840190815261018090610a5f90610a19600985016116ae565b956101408101968752610a3b600b600a870154966101608401978852016116ae565b93849101525115159451925192608060405197889788528701526080860190611777565b9160408501528382036060850152611777565b34610223576020366003190112610223576004356001600160401b03811161022357610aa29036906004016115f0565b6040518181809351602081930191610ab992611754565b810160008152036020019020610ace816116ae565b610ada600183016116ae565b91610ae7600282016116ae565b90610af4600382016116ae565b610b00600483016116ae565b610b0c600584016116ae565b6006840154600785015460088601546001600160a01b039092169391929091610b37600988016116ae565b95600a88015497600b01610b4a906116ae565b986040519b8c9b8c6101a08091528d01610b6391611777565b8c810360208e0152610b7491611777565b8b810360408d0152610b8591611777565b8a810360608c0152610b9691611777565b89810360808b0152610ba791611777565b88810360a08a0152610bb891611777565b9260c088015260e087015260ff8116151561010087015260081c60ff161515610120860152848103610140860152610bef91611777565b9061016084015282810361018084015261021f91611777565b3461022357602080600319360112610223576004356001600160401b03811161022357610c399036906004016115f0565b610c41611c03565b5061021f60405191610d6b610c868560ff60088783818851610c6781848c019d8e611754565b8101600081520301902001541695604051809381928751928391611754565b8101600081520301902091610d60600b60405194610ca386611598565b610cac816116ae565b8652610cba600182016116ae565b89870152610cca600282016116ae565b6040870152610cdb600382016116ae565b6060870152610cec600482016116ae565b6080870152610cfd600582016116ae565b60a087015260068101546001600160a01b031660c0870152600781015460e087015260088082015460ff81811615156101008a0152911c161515610120870152610d49600982016116ae565b610140870152600a810154610160870152016116ae565b610180840152611bb5565b7fdf8844e71fd10b8e7795ebf19c1650d566bab9b0b2f18a6373153f9aced9fc8960408051951515958681524288820152a260408051948594855284015260408301906117b2565b3461022357602080600319360112610223576001600160a01b03610dd561179c565b16600052600190818152604060002080546001600160401b038111610ead57838360405192610e09828260051b01856115cf565b8084528184018095600052826000206000915b838310610e845750505050604051928184019082855251809152604084019160408260051b86010195926000905b838210610e575786880387f35b90919293948380610e73839a603f198b82030186528951611777565b999701959493919091019101610e4a565b90858086819a989594610e99859b999b6116ae565b815201920192019250969496959395610e1c565b634e487b7160e01b600052604160045260246000fd5b34610223576000366003190112610223576020600254604051908152f35b3461022357610100366003190112610223576001600160401b0360043581811161022357610f139036906004016115f0565b60243582811161022357610f2b9036906004016115f0565b9060443583811161022357610f449036906004016115f0565b9160643584811161022357610f5d9036906004016115f0565b9360843581811161022357610f769036906004016115f0565b9060a43581811161022357610f8f9036906004016115f0565b9260c43582811161022357610fa89036906004016115f0565b9160e43590811161022357610fc19036906004016115f0565b9160ff600860405160208181610fdd8c83815193849201611754565b810160008152030190200154161561141e5760ff60086040516020818161100a8c83815193849201611754565b81016000815203019020015460081c166113d95760405160068751611033818460208c01611754565b600090830190815282900360200190912001546001600160a01b031633036113885781511561133857611068875115156118a2565b611074885115156118ee565b61108084511515611946565b61108c85511515611992565b611098815115156119de565b8251156112f35760ff600860405160208187516110b88183858c01611754565b810160008152030190200154166112a3577fe616ab3f5763fe8347f3ebea8944a62aa33eed929a9d82c51a6b256a1d58ec6a95611248610521956112689361053298600860405160208188516111118183858d01611754565b810160008152030190200161010061ff0019825416179055611146876009604051602081816106e78c83815193849201611754565b604051600a865161115b818460208b01611754565b82019160008352602081429403019020015561118a88600b604051602081816106e78c83815193849201611754565b6040519261119784611598565b8c84528d60208501526040840152606083015260808201528560a08201523360c08201524260e0820152600161010082015260006101208201526040516111dd816115b4565b6000815261014082015260006101608201526040516111fb816115b4565b60008152610180820152600b610180604051602081816112218c83815193849201611754565b8101600081520301902092611237815185611a2a565b610427602082015160018601611a2a565b33600052600160205261125f846040600020611b88565b61051c84611b39565b7f67562d27eac2791a265854a2a1b95b0c1f44dff82c377fc9261f9039d92b1f566040518061129b339587429184611bd5565b0390a3611bb5565b60405162461bcd60e51b815260206004820152602260248201527f4e657720636572746966696361746520616c7265616479207265676973746572604482015261195960f21b6064820152608490fd5b60405162461bcd60e51b815260206004820152601d60248201527f4e65772066696c6520686173682063616e6e6f7420626520656d7074790000006044820152606490fd5b60405162461bcd60e51b815260206004820152602260248201527f5265706c6163656d656e7420726561736f6e2063616e6e6f7420626520656d70604482015261747960f01b6064820152608490fd5b60405162461bcd60e51b815260206004820152602360248201527f4f6e6c792069737375696e6720756e69766572736974792063616e207265706c60448201526261636560e81b6064820152608490fd5b60405162461bcd60e51b815260206004820152601f60248201527f4f6c6420636572746966696361746520616c7265616479207265766f6b6564006044820152606490fd5b60405162461bcd60e51b815260206004820152601e60248201527f4f6c6420636572746966696361746520646f6573206e6f7420657869737400006044820152606490fd5b346102235760403660031901126102235761147c61179c565b6001600160a01b03166000908152600160205260409020805460243590811015610223576114a991611646565b6114cd576114b961021f916116ae565b604051918291602083526020830190611777565b634e487b7160e01b600052600060045260246000fd5b3461022357602036600319011261022357600435600254811015610223576114b961021f9160026000527f405787fa12a823e0f2b7631cc41b3ba8828b3321ca811111fa75cd3aa3bb5ace016116ae565b34610223576020366003190112610223576004356001600160401b0381116102235760ff6008611581602061156e819536906004016115f0565b8160405193828580945193849201611754565b810160008152030190200154166040519015158152f35b6101a081019081106001600160401b03821117610ead57604052565b602081019081106001600160401b03821117610ead57604052565b90601f801991011681019081106001600160401b03821117610ead57604052565b81601f82011215610223578035906001600160401b038211610ead5760405192611624601f8401601f1916602001856115cf565b8284526020838301011161022357816000926020809301838601378301015290565b805482101561165e5760005260206000200190600090565b634e487b7160e01b600052603260045260246000fd5b90600182811c921680156116a4575b602083101461168e57565b634e487b7160e01b600052602260045260246000fd5b91607f1691611683565b90604051918260008254926116c284611674565b90818452600194858116908160001461173157506001146116ee575b50506116ec925003836115cf565b565b9093915060005260209081600020936000915b8183106117195750506116ec935082010138806116de565b85548884018501529485019487945091830191611701565b9150506116ec94506020925060ff191682840152151560051b82010138806116de565b60005b8381106117675750506000910152565b8181015183820152602001611757565b9060209161179081518092818552858086019101611754565b601f01601f1916010190565b600435906001600160a01b038216820361022357565b9061189f916118806118366118246118126118006117ee6117dc87516101a0808b528a0190611777565b602088015189820360208b0152611777565b604087015188820360408a0152611777565b60608601518782036060890152611777565b60808501518682036080880152611777565b60a084015185820360a0870152611777565b60018060a01b0360c08401511660c085015260e083015160e08501526101008084015115159085015261012080840151151590850152610140808401519085830390860152611777565b9161016080830151908201526101808092015191818403910152611777565b90565b156118a957565b60405162461bcd60e51b815260206004820152601c60248201527f53747564656e74206e616d652063616e6e6f7420626520656d707479000000006044820152606490fd5b156118f557565b60405162461bcd60e51b815260206004820152602360248201527f526567697374726174696f6e206e756d6265722063616e6e6f7420626520656d60448201526270747960e81b6064820152608490fd5b1561194d57565b60405162461bcd60e51b815260206004820152601960248201527f46696c65206e616d652063616e6e6f7420626520656d707479000000000000006044820152606490fd5b1561199957565b60405162461bcd60e51b815260206004820152601860248201527f495046532055524c2063616e6e6f7420626520656d70747900000000000000006044820152606490fd5b156119e557565b60405162461bcd60e51b815260206004820152601860248201527f49504653204349442063616e6e6f7420626520656d70747900000000000000006044820152606490fd5b91909182516001600160401b038111610ead57611a478254611674565b601f8111611af1575b50602080601f8311600114611a8d575081929394600092611a82575b50508160011b916000199060031b1c1916179055565b015190503880611a6c565b90601f198316958460005282600020926000905b888210611ad957505083600195969710611ac0575b505050811b019055565b015160001960f88460031b161c19169055388080611ab6565b80600185968294968601518155019501930190611aa1565b600083815260208120601f840160051c81019260208510611b2f575b601f0160051c01915b828110611b24575050611a50565b818155600101611b16565b9092508290611b0d565b60025490600160401b821015610ead57600182018060025582101561165e576116ec9160026000527f405787fa12a823e0f2b7631cc41b3ba8828b3321ca811111fa75cd3aa3bb5ace01611a2a565b8054600160401b811015610ead57611ba591600182018155611646565b9190916114cd576116ec91611a2a565b611bcd90602060405192828480945193849201611754565b810103902090565b939291611bfe90611bf0604093606088526060880190611777565b908682036020880152611777565b930152565b60405190611c1082611598565b8161018060609182815282602082015282604082015282808201528260808201528260a0820152600060c0820152600060e0820152600061010082015260006101208201528261014082015260006101608201520152565b15611c6f57565b60405162461bcd60e51b815260206004820152601a60248201527f436572746966696361746520646f6573206e6f742065786973740000000000006044820152606490fdfea2646970667358221220de9a7c3850d31d13425361838eb56a1bf8993f866631f3bb0bdef3e269d4187164736f6c63430008140033",
  "linkReferences": {},
  "deployedLinkReferences": {}
}