{"contracts/CertificateRegistrySeoplia.sol":{"CertificateRegistrySeoplia":{"abi":[{"anonymous":false,"inputs":[{"indexed":true,"internalType":"string","name":"fileHash","type":"string"},{"indexed":false,"internalType":"string","name":"studentName","type":"string"},{"indexed":false,"internalType":"string","name":"registrationNumber","type":"string"},{"indexed":true,"internalType":"address","name":"universityAddress","type":"address"},{"indexed":false,"internalType":"uint256","name":"timestamp","type":"uint256"}],"name":"CertificateRegistered","type":"event"},{"anonymous":false,"inputs":[{"indexed":true,"internalType":"string","name":"fileHash","type":"string"},{"indexed":false,"internalType":"string","name":"reason","type":"string"},{"indexed":false,"internalType":"string","name":"replacementCertificateHash","type":"string"},{"indexed":true,"internalType":"address","name":"revokedBy","type":"address"},{"indexed":false,"internalType":"uint256","name":"timestamp","type":"uint256"}],"name":"CertificateRevoked","type":"event"},{"anonymous":false,"inputs":[{"indexed":true,"internalType":"string","name":"fileHash","type":"string"},{"indexed":false,"internalType":"bool","name":"exists","type":"bool"},{"indexed":false,"internalType":"uint256","name":"timestamp","type":"uint256"}],"name":"CertificateVerified","type":"event"},{"inputs":[{"internalType":"uint256","name":"","type":"uint256"}],"name":"allCertificateHashes","outputs":[{"internalType":"string","name":"","type":"string"}],"stateMutability":"view","type":"function"},{"inputs":[{"internalType":"string","name":"_fileHash","type":"string"}],"name":"certificateExists","outputs":[{"internalType":"bool","name":"","type":"bool"}],"stateMutability":"view","type":"function"},{"inputs":[{"internalType":"string","name":"","type":"string"}],"name":"certificates","outputs":[{"internalType":"string","name":"studentName","type":"string"},{"internalType":"string","name":"registrationNumber","type":"string"},{"internalType":"string","name":"fileName","type":"string"},{"internalType":"string","name":"ipfsUrl","type":"string"},{"internalType":"string","name":"ipfsCID","type":"string"},{"internalType":"string","name":"fileHash","type":"string"},{"internalType":"address","name":"universityAddress","type":"address"},{"internalType":"uint256","name":"timestamp","type":"uint256"},{"internalType":"bool","name":"exists","type":"bool"},{"internalType":"bool","name":"isRevoked","type":"bool"},{"internalType":"string","name":"revocationReason","type":"string"},{"internalType":"uint256","name":"revocationTimestamp","type":"uint256"},{"internalType":"string","name":"replacementCertificateHash","type":"string"}],"stateMutability":"view","type":"function"},{"inputs":[{"internalType":"string","name":"_fileHash","type":"string"}],"name":"getCertificate","outputs":[{"components":[{"internalType":"string","name":"studentName","type":"string"},{"internalType":"string","name":"registrationNumber","type":"string"},{"internalType":"string","name":"fileName","type":"string"},{"internalType":"string","name":"ipfsUrl","type":"string"},{"internalType":"string","name":"ipfsCID","type":"string"},{"internalType":"string","name":"fileHash","type":"string"},{"internalType":"address","name":"universityAddress","type":"address"},{"internalType":"uint256","name":"timestamp","type":"uint256"},{"internalType":"bool","name":"exists","type":"bool"},{"internalType":"bool","name":"isRevoked","type":"bool"},{"internalType":"string","name":"revocationReason","type":"string"},{"internalType":"uint256","name":"revocationTimestamp","type":"uint256"},{"internalType":"string","name":"replacementCertificateHash","type":"string"}],"internalType":"struct CertificateRegistrySeoplia.Certificate","name":"","type":"tuple"}],"stateMutability":"view","type":"function"},{"inputs":[{"internalType":"string","name":"_fileHash","type":"string"}],"name":"getRevocationStatus","outputs":[{"internalType":"bool","name":"isRevoked","type":"bool"},{"internalType":"string","name":"reason","type":"string"},{"internalType":"uint256","name":"revocationTimestamp","type":"uint256"},{"internalType":"string","name":"replacementHash","type":"string"}],"stateMutability":"view","type":"function"},{"inputs":[],"name":"getTotalCertificates","outputs":[{"internalType":"uint256","name":"","type":"uint256"}],"stateMutability":"view","type":"function"},{"inputs":[{"internalType":"address","name":"_universityAddress","type":"address"}],"name":"getUniversityCertificates","outputs":[{"internalType":"string[]","name":"","type":"string[]"}],"stateMutability":"view","type":"function"},{"inputs":[{"internalType":"string","name":"_fileHash","type":"string"}],"name":"isValidCertificate","outputs":[{"internalType":"bool","name":"","type":"bool"}],"stateMutability":"view","type":"function"},{"inputs":[{"internalType":"string","name":"_studentName","type":"string"},{"internalType":"string","name":"_registrationNumber","type":"string"},{"internalType":"string","name":"_fileName","type":"string"},{"internalType":"string","name":"_ipfsUrl","type":"string"},{"internalType":"string","name":"_ipfsCID","type":"string"},{"internalType":"string","name":"_fileHash","type":"string"}],"name":"registerCertificate","outputs":[{"internalType":"bool","name":"","type":"bool"}],"stateMutability":"nonpayable","type":"function"},{"inputs":[{"internalType":"string","name":"_oldFileHash","type":"string"},{"internalType":"string","name":"_reason","type":"string"},{"internalType":"string","name":"_studentName","type":"string"},{"internalType":"string","name":"_registrationNumber","type":"string"},{"internalType":"string","name":"_fileName","type":"string"},{"internalType":"string","name":"_ipfsUrl","type":"string"},{"internalType":"string","name":"_ipfsCID","type":"string"},{"internalType":"string","name":"_newFileHash","type":"string"}],"name":"replaceCertificate","outputs":[{"internalType":"bool","name":"","type":"bool"}],"stateMutability":"nonpayable","type":"function"},{"inputs":[{"internalType":"string","name":"_fileHash","type":"string"},{"internalType":"string","name":"_reason","type":"string"}],"name":"revokeCertificate","outputs":[{"internalType":"bool","name":"","type":"bool"}],"stateMutability":"nonpayable","type":"function"},{"inputs":[{"internalType":"address","name":"","type":"address"},{"internalType":"uint256","name":"","type":"uint256"}],"name":"universityCertificates","outputs":[{"internalType":"string","name":"","type":"string"}],"stateMutability":"view","type":"function"},{"inputs":[{"internalType":"string","name":"_fileHash","type":"string"}],"name":"verifyCertificate","outputs":[{"internalType":"bool","name":"exists","type":"bool"},{"components":[{"internalType":"string","name":"studentName","type":"string"},{"internalType":"string","name":"registrationNumber","type":"string"},{"internalType":"string","name":"fileName","type":"string"},{"internalType":"string","name":"ipfsUrl","type":"string"},{"internalType":"string","name":"ipfsCID","type":"string"},{"internalType":"string","name":"fileHash","type":"string"},{"internalType":"address","name":"universityAddress","type":"address"},{"internalType":"uint256","name":"timestamp","type":"uint256"},{"internalType":"bool","name":"exists","type":"bool"},{"internalType":"bool","name":"isRevoked","type":"bool"},{"internalType":"string","name":"revocationReason","type":"string"},{"internalType":"uint256","name":"revocationTimestamp","type":"uint256"},{"internalType":"string","name":"replacementCertificateHash","type":"string"}],"internalType":"struct CertificateRegistrySeoplia.Certificate","name":"cert","type":"tuple"}],"stateMutability":"nonpayable","type":"function"}],"evm":{"bytecode":{"linkReferences":{},"object":"6080806040523461001657611cea908161001c8239f35b600080fdfe6080604052600436101561001257600080fd5b60003560e01c80630655f03714611534578063149ae6dd146114e35780633d6af3871461146357806357a8378514610ee15780637843bb7914610ec35780637ea4ad5914610db35780638b23d87514610c085780638f2b91ea14610a72578063aa54bf94146108fb578063b5164b3814610859578063bc4f5bad146105ca578063d3b229b3146102285763ed0f2e75146100ab57600080fd5b3461022357602080600319360112610223576004356001600160401b03811161022357816100e061012b9236906004016115f0565b6100e8611c03565b506040519061011a60ff600883519486818187019761010881838b611754565b81016000815203019020015416611c68565b604051938492839251928391611754565b8101600081520301902090610205600b6040519361014885611598565b610151816116ae565b855261015f600182016116ae565b8486015261016f600282016116ae565b6040860152610180600382016116ae565b6060860152610191600482016116ae565b60808601526101a2600582016116ae565b60a086015260068101546001600160a01b031660c0860152600781015460e086015260088082015460ff8181161515610100890152911c1615156101208601526101ee600982016116ae565b610140860152600a810154610160860152016116ae565b61018083015261021f6040519282849384528301906117b2565b0390f35b600080fd5b346102235760c0366003190112610223576001600160401b03600435818111610223576102599036906004016115f0565b602435828111610223576102719036906004016115f0565b916044358181116102235761028a9036906004016115f0565b606435828111610223576102a29036906004016115f0565b608435838111610223576102ba9036906004016115f0565b9260a435908111610223576102d39036906004016115f0565b6102df855115156118a2565b6102eb865115156118ee565b6102f783511515611946565b61030382511515611992565b61030f845115156119de565b8051156105855760ff6008604051602081855161032f8183858a01611754565b81016000815203019020015416610540576104fc61053293600b610180610521957fe616ab3f5763fe8347f3ebea8944a62aa33eed929a9d82c51a6b256a1d58ec6a986040519161037f83611598565b8b835260208301958d87526040840152606083015260808201528560a08201523360c08201524260e0820152600161010082015260006101208201526040516103c7816115b4565b6000815261014082015260006101608201526040516103e5816115b4565b6000815282820152610427604051602081816104078b83815193849201611754565b810160008152030190209461041d835187611a2a565b5160018601611a2a565b610438604082015160028601611a2a565b610449606082015160038601611a2a565b61045a608082015160048601611a2a565b61046b60a082015160058601611a2a565b6006840160018060a01b0360c0830151166bffffffffffffffffffffffff60a01b82541617905560e081015160078501556104d660088501610100830151151560ff80198354169116178155610120830151151561ff00825491151560081b169061ff001916179055565b6104e861014082015160098601611a2a565b610160810151600a85015501519101611a2a565b336000526001602052610513816040600020611b88565b61051c81611b39565b611bb5565b926040519182913396429184611bd5565b0390a3602060405160018152f35b60405162461bcd60e51b815260206004820152601e60248201527f436572746966696361746520616c7265616479207265676973746572656400006044820152606490fd5b60405162461bcd60e51b815260206004820152601960248201527f46696c6520686173682063616e6e6f7420626520656d707479000000000000006044820152606490fd5b34610223576040366003190112610223576001600160401b03600435818111610223576105fb9036906004016115f0565b90602435908111610223576106149036906004016115f0565b60405191805161063560ff600860209687818188019661010881838a611754565b60ff60086040518681865161064b818389611754565b81016000815203019020015460081c166108145760405160068351610671818486611754565b6000908301908152829003860190912001546001600160a01b031633036107c4578251156107755790610707600a61071d936008604051888187516106b7818388611754565b810160008152030190200161010061ff00198254161790556106f78660096040518a8189516106e781838a611754565b8101600081520301902001611a2a565b6040519283918551928391611754565b8201916000835286814294030190200155611bb5565b7f67562d27eac2791a265854a2a1b95b0c1f44dff82c377fc9261f9039d92b1f5661075360405193606085526060850190611777565b926000818503948587840152524260408201528433940190a360405160018152f35b60405162461bcd60e51b815260048101859052602160248201527f5265766f636174696f6e20726561736f6e2063616e6e6f7420626520656d70746044820152607960f81b6064820152608490fd5b60405162461bcd60e51b815260048101859052602260248201527f4f6e6c792069737375696e6720756e69766572736974792063616e207265766f6044820152616b6560f01b6064820152608490fd5b60405162461bcd60e51b815260048101859052601b60248201527f436572746966696361746520616c7265616479207265766f6b656400000000006044820152606490fd5b34610223576020366003190112610223576004356001600160401b0381116102235761088b60209136906004016115f0565b60405160ff60088351928581818701956108a6818389611754565b8101600081520301902001541691826108c6575b50506040519015158152f35b60ff9250836008926108e392604051938492839251928391611754565b81016000815203019020015460081c161582806108ba565b3461022357602080600319360112610223576004356001600160401b038111610223578161093061094f9236906004016115f0565b6040519061011a60ff600883519486818187019761010881838b611754565b8101600081520301902061021f6040519161096983611598565b610972816116ae565b8352610980600182016116ae565b84840152610990600282016116ae565b60408401526109a1600382016116ae565b60608401526109b2600482016116ae565b60808401526109c3600582016116ae565b60a084015260068101546001600160a01b031660c0840152600781015460e084015260088082015460ff8082161515610100870152911c161515610120840190815261018090610a5f90610a19600985016116ae565b956101408101968752610a3b600b600a870154966101608401978852016116ae565b93849101525115159451925192608060405197889788528701526080860190611777565b9160408501528382036060850152611777565b34610223576020366003190112610223576004356001600160401b03811161022357610aa29036906004016115f0565b6040518181809351602081930191610ab992611754565b810160008152036020019020610ace816116ae565b610ada600183016116ae565b91610ae7600282016116ae565b90610af4600382016116ae565b610b00600483016116ae565b610b0c600584016116ae565b6006840154600785015460088601546001600160a01b039092169391929091610b37600988016116ae565b95600a88015497600b01610b4a906116ae565b986040519b8c9b8c6101a08091528d01610b6391611777565b8c810360208e0152610b7491611777565b8b810360408d0152610b8591611777565b8a810360608c0152610b9691611777565b89810360808b0152610ba791611777565b88810360a08a0152610bb891611777565b9260c088015260e087015260ff8116151561010087015260081c60ff161515610120860152848103610140860152610bef91611777565b9061016084015282810361018084015261021f91611777565b3461022357602080600319360112610223576004356001600160401b03811161022357610c399036906004016115f0565b610c41611c03565b5061021f60405191610d6b610c868560ff60088783818851610c6781848c019d8e611754565b8101600081520301902001541695604051809381928751928391611754565b8101600081520301902091610d60600b60405194610ca386611598565b610cac816116ae565b8652610cba600182016116ae565b89870152610cca600282016116ae565b6040870152610cdb600382016116ae565b6060870152610cec600482016116ae565b6080870152610cfd600582016116ae565b60a087015260068101546001600160a01b031660c0870152600781015460e087015260088082015460ff81811615156101008a0152911c161515610120870152610d49600982016116ae565b610140870152600a810154610160870152016116ae565b610180840152611bb5565b7fdf8844e71fd10b8e7795ebf19c1650d566bab9b0b2f18a6373153f9aced9fc8960408051951515958681524288820152a260408051948594855284015260408301906117b2565b3461022357602080600319360112610223576001600160a01b03610dd561179c565b16600052600190818152604060002080546001600160401b038111610ead57838360405192610e09828260051b01856115cf565b8084528184018095600052826000206000915b838310610e845750505050604051928184019082855251809152604084019160408260051b86010195926000905b838210610e575786880387f35b90919293948380610e73839a603f198b82030186528951611777565b999701959493919091019101610e4a565b90858086819a989594610e99859b999b6116ae565b815201920192019250969496959395610e1c565b634e487b7160e01b600052604160045260246000fd5b34610223576000366003190112610223576020600254604051908152f35b3461022357610100366003190112610223576001600160401b0360043581811161022357610f139036906004016115f0565b60243582811161022357610f2b9036906004016115f0565b9060443583811161022357610f449036906004016115f0565b9160643584811161022357610f5d9036906004016115f0565b9360843581811161022357610f769036906004016115f0565b9060a43581811161022357610f8f9036906004016115f0565b9260c43582811161022357610fa89036906004016115f0565b9160e43590811161022357610fc19036906004016115f0565b9160ff600860405160208181610fdd8c83815193849201611754565b810160008152030190200154161561141e5760ff60086040516020818161100a8c83815193849201611754565b81016000815203019020015460081c166113d95760405160068751611033818460208c01611754565b600090830190815282900360200190912001546001600160a01b031633036113885781511561133857611068875115156118a2565b611074885115156118ee565b61108084511515611946565b61108c85511515611992565b611098815115156119de565b8251156112f35760ff600860405160208187516110b88183858c01611754565b810160008152030190200154166112a3577fe616ab3f5763fe8347f3ebea8944a62aa33eed929a9d82c51a6b256a1d58ec6a95611248610521956112689361053298600860405160208188516111118183858d01611754565b810160008152030190200161010061ff0019825416179055611146876009604051602081816106e78c83815193849201611754565b604051600a865161115b818460208b01611754565b82019160008352602081429403019020015561118a88600b604051602081816106e78c83815193849201611754565b6040519261119784611598565b8c84528d60208501526040840152606083015260808201528560a08201523360c08201524260e0820152600161010082015260006101208201526040516111dd816115b4565b6000815261014082015260006101608201526040516111fb816115b4565b60008152610180820152600b610180604051602081816112218c83815193849201611754565b8101600081520301902092611237815185611a2a565b610427602082015160018601611a2a565b33600052600160205261125f846040600020611b88565b61051c84611b39565b7f67562d27eac2791a265854a2a1b95b0c1f44dff82c377fc9261f9039d92b1f566040518061129b339587429184611bd5565b0390a3611bb5565b60405162461bcd60e51b815260206004820152602260248201527f4e657720636572746966696361746520616c7265616479207265676973746572604482015261195960f21b6064820152608490fd5b60405162461bcd60e51b815260206004820152601d60248201527f4e65772066696c6520686173682063616e6e6f7420626520656d7074790000006044820152606490fd5b60405162461bcd60e51b815260206004820152602260248201527f5265706c6163656d656e7420726561736f6e2063616e6e6f7420626520656d70604482015261747960f01b6064820152608490fd5b60405162461bcd60e51b815260206004820152602360248201527f4f6e6c792069737375696e6720756e69766572736974792063616e207265706c60448201526261636560e81b6064820152608490fd5b60405162461bcd60e51b815260206004820152601f60248201527f4f6c6420636572746966696361746520616c7265616479207265766f6b6564006044820152606490fd5b60405162461bcd60e51b815260206004820152601e60248201527f4f6c6420636572746966696361746520646f6573206e6f7420657869737400006044820152606490fd5b346102235760403660031901126102235761147c61179c565b6001600160a01b03166000908152600160205260409020805460243590811015610223576114a991611646565b6114cd576114b961021f916116ae565b604051918291602083526020830190611777565b634e487b7160e01b600052600060045260246000fd5b3461022357602036600319011261022357600435600254811015610223576114b961021f9160026000527f405787fa12a823e0f2b7631cc41b3ba8828b3321ca811111fa75cd3aa3bb5ace016116ae565b34610223576020366003190112610223576004356001600160401b0381116102235760ff6008611581602061156e819536906004016115f0565b8160405193828580945193849201611754565b810160008152030190200154166040519015158152f35b6101a081019081106001600160401b03821117610ead57604052565b602081019081106001600160401b03821117610ead57604052565b90601f801991011681019081106001600160401b03821117610ead57604052565b81601f82011215610223578035906001600160401b038211610ead5760405192611624601f8401601f1916602001856115cf565b8284526020838301011161022357816000926020809301838601378301015290565b805482101561165e5760005260206000200190600090565b634e487b7160e01b600052603260045260246000fd5b90600182811c921680156116a4575b602083101461168e57565b634e487b7160e01b600052602260045260246000fd5b91607f1691611683565b90604051918260008254926116c284611674565b90818452600194858116908160001461173157506001146116ee575b50506116ec925003836115cf565b565b9093915060005260209081600020936000915b8183106117195750506116ec935082010138806116de565b85548884018501529485019487945091830191611701565b9150506116ec94506020925060ff191682840152151560051b82010138806116de565b60005b8381106117675750506000910152565b8181015183820152602001611757565b9060209161179081518092818552858086019101611754565b601f01601f1916010190565b600435906001600160a01b038216820361022357565b9061189f916118806118366118246118126118006117ee6117dc87516101a0808b528a0190611777565b602088015189820360208b0152611777565b604087015188820360408a0152611777565b60608601518782036060890152611777565b60808501518682036080880152611777565b60a084015185820360a0870152611777565b60018060a01b0360c08401511660c085015260e083015160e08501526101008084015115159085015261012080840151151590850152610140808401519085830390860152611777565b9161016080830151908201526101808092015191818403910152611777565b90565b156118a957565b60405162461bcd60e51b815260206004820152601c60248201527f53747564656e74206e616d652063616e6e6f7420626520656d707479000000006044820152606490fd5b156118f557565b60405162461bcd60e51b815260206004820152602360248201527f526567697374726174696f6e206e756d6265722063616e6e6f7420626520656d60448201526270747960e81b6064820152608490fd5b1561194d57565b60405162461bcd60e51b815260206004820152601960248201527f46696c65206e616d652063616e6e6f7420626520656d707479000000000000006044820152606490fd5b1561199957565b60405162461bcd60e51b815260206004820152601860248201527f495046532055524c2063616e6e6f7420626520656d70747900000000000000006044820152606490fd5b156119e557565b60405162461bcd60e51b815260206004820152601860248201527f49504653204349442063616e6e6f7420626520656d70747900000000000000006044820152606490fd5b91909182516001600160401b038111610ead57611a478254611674565b601f8111611af1575b50602080601f8311600114611a8d575081929394600092611a82575b50508160011b916000199060031b1c1916179055565b015190503880611a6c565b90601f198316958460005282600020926000905b888210611ad957505083600195969710611ac0575b505050811b019055565b015160001960f88460031b161c19169055388080611ab6565b80600185968294968601518155019501930190611aa1565b600083815260208120601f840160051c81019260208510611b2f575b601f0160051c01915b828110611b24575050611a50565b818155600101611b16565b9092508290611b0d565b60025490600160401b821015610ead57600182018060025582101561165e576116ec9160026000527f405787fa12a823e0f2b7631cc41b3ba8828b3321ca811111fa75cd3aa3bb5ace01611a2a565b8054600160401b811015610ead57611ba591600182018155611646565b9190916114cd576116ec91611a2a565b611bcd90602060405192828480945193849201611754565b810103902090565b939291611bfe90611bf0604093606088526060880190611777565b908682036020880152611777565b930152565b60405190611c1082611598565b8161018060609182815282602082015282604082015282808201528260808201528260a0820152600060c0820152600060e0820152600061010082015260006101208201528261014082015260006101608201520152565b15611c6f57565b60405162461bcd60e51b815260206004820152601a60248201527f436572746966696361746520646f6573206e6f742065786973740000000000006044820152606490fdfea2646970667358221220de9a7c3850d31d13425361838eb56a1bf8993f866631f3bb0bdef3e269d4187164736f6c63430008140033","opcodes":"PUSH1 0x80 DUP1 PUSH1 0x40 MSTORE CALLVALUE PUSH2 0x16 JUMPI PUSH2 0x1CEA SWAP1 DUP2 PUSH2 0x1C DUP3 CODECOPY RETURN JUMPDEST PUSH1 0x0 DUP1 REVERT INVALID PUSH1 0x80 PUSH1 0x40 MSTORE PUSH1 0x4 CALLDATASIZE LT ISZERO PUSH2 0x12 JUMPI PUSH1 0x0 DUP1 REVERT JUMPDEST PUSH1 0x0 CALLDATALOAD PUSH1 0xE0 SHR DUP1 PUSH4 0x655F037 EQ PUSH2 0x1534 JUMPI DUP1 PUSH4 0x149AE6DD EQ PUSH2 0x14E3 JUMPI DUP1 PUSH4 0x3D6AF387 EQ PUSH2 0x1463 JUMPI DUP1 PUSH4 0x57A83785 EQ PUSH2 0xEE1 JUMPI DUP1 PUSH4 0x7843BB79 EQ PUSH2 0xEC3 JUMPI DUP1 PUSH4 0x7EA4AD59 EQ PUSH2 0xDB3 JUMPI DUP1 PUSH4 0x8B23D875 EQ PUSH2 0xC08 JUMPI DUP1 PUSH4 0x8F2B91EA EQ PUSH2 0xA72 JUMPI DUP1 PUSH4 0xAA54BF94 EQ PUSH2 0x8FB JUMPI DUP1 PUSH4 0xB5164B38 EQ PUSH2 0x859 JUMPI DUP1 PUSH4 0xBC4F5BAD EQ PUSH2 0x5CA JUMPI DUP1 PUSH4 0xD3B229B3 EQ PUSH2 0x228 JUMPI PUSH4 0xED0F2E75 EQ PUSH2 0xAB JUMPI PUSH1 0x0 DUP1 REVERT JUMPDEST CALLVALUE PUSH2 0x223 JUMPI PUSH1 0x20 DUP1 PUSH1 0x3 NOT CALLDATASIZE ADD SLT PUSH2 0x223 JUMPI PUSH1 0x4 CALLDATALOAD PUSH1 0x1 PUSH1 0x1 PUSH1 0x40 SHL SUB DUP2 GT PUSH2 0x223 JUMPI DUP2 PUSH2 0xE0 PUSH2 0x12B SWAP3 CALLDATASIZE SWAP1 PUSH1 0x4 ADD PUSH2 0x15F0 JUMP JUMPDEST PUSH2 0xE8 PUSH2 0x1C03 JUMP JUMPDEST POP PUSH1 0x40 MLOAD SWAP1 PUSH2 0x11A PUSH1 0xFF PUSH1 0x8 DUP4 MLOAD SWAP5 DUP7 DUP2 DUP2 DUP8 ADD SWAP8 PUSH2 0x108 DUP2 DUP4 DUP12 PUSH2 0x1754 JUMP JUMPDEST DUP2 ADD PUSH1 0x0 DUP2 MSTORE SUB ADD SWAP1 KECCAK256 ADD SLOAD AND PUSH2 0x1C68 JUMP JUMPDEST PUSH1 0x40 MLOAD SWAP4 DUP5 SWAP3 DUP4 SWAP3 MLOAD SWAP3 DUP4 SWAP2 PUSH2 0x1754 JUMP JUMPDEST DUP2 ADD PUSH1 0x0 DUP2 MSTORE SUB ADD SWAP1 KECCAK256 SWAP1 PUSH2 0x205 PUSH1 0xB PUSH1 0x40 MLOAD SWAP4 PUSH2 0x148 DUP6 PUSH2 0x1598 JUMP JUMPDEST PUSH2 0x151 DUP2 PUSH2 0x16AE JUMP JUMPDEST DUP6 MSTORE PUSH2 0x15F PUSH1 0x1 DUP3 ADD PUSH2 0x16AE JUMP JUMPDEST DUP5 DUP7 ADD MSTORE PUSH2 0x16F PUSH1 0x2 DUP3 ADD PUSH2 0x16AE JUMP JUMPDEST PUSH1 0x40 DUP7 ADD MSTORE PUSH2 0x180 PUSH1 0x3 DUP3 ADD PUSH2 0x16AE JUMP JUMPDEST PUSH1 0x60 DUP7 ADD MSTORE PUSH2 0x191 PUSH1 0x4 DUP3 ADD PUSH2 0x16AE JUMP JUMPDEST PUSH1 0x80 DUP7 ADD MSTORE PUSH2 0x1A2 PUSH1 0x5 DUP3 ADD PUSH2 0x16AE JUMP JUMPDEST PUSH1 0xA0 DUP7 ADD MSTORE PUSH1 0x6 DUP2 ADD SLOAD PUSH1 0x1 PUSH1 0x1 PUSH1 0xA0 SHL SUB AND PUSH1 0xC0 DUP7 ADD MSTORE PUSH1 0x7 DUP2 ADD SLOAD PUSH1 0xE0 DUP7 ADD MSTORE PUSH1 0x8 DUP1 DUP3 ADD SLOAD PUSH1 0xFF DUP2 DUP2 AND ISZERO ISZERO PUSH2 0x100 DUP10 ADD MSTORE SWAP2 SHR AND ISZERO ISZERO PUSH2 0x120 DUP7 ADD MSTORE PUSH2 0x1EE PUSH1 0x9 DUP3 ADD PUSH2 0x16AE JUMP JUMPDEST PUSH2 0x140 DUP7 ADD MSTORE PUSH1 0xA DUP2 ADD SLOAD PUSH2 0x160 DUP7 ADD MSTORE ADD PUSH2 0x16AE JUMP JUMPDEST PUSH2 0x180 DUP4 ADD MSTORE PUSH2 0x21F PUSH1 0x40 MLOAD SWAP3 DUP3 DUP5 SWAP4 DUP5 MSTORE DUP4 ADD SWAP1 PUSH2 0x17B2 JUMP JUMPDEST SUB SWAP1 RETURN JUMPDEST PUSH1 0x0 DUP1 REVERT JUMPDEST CALLVALUE PUSH2 0x223 JUMPI PUSH1 0xC0 CALLDATASIZE PUSH1 0x3 NOT ADD SLT PUSH2 0x223 JUMPI PUSH1 0x1 PUSH1 0x1 PUSH1 0x40 SHL SUB PUSH1 0x4 CALLDATALOAD DUP2 DUP2 GT PUSH2 0x223 JUMPI PUSH2 0x259 SWAP1 CALLDATASIZE SWAP1 PUSH1 0x4 ADD PUSH2 0x15F0 JUMP JUMPDEST PUSH1 0x24 CALLDATALOAD DUP3 DUP2 GT PUSH2 0x223 JUMPI PUSH2 0x271 SWAP1 CALLDATASIZE SWAP1 PUSH1 0x4 ADD PUSH2 0x15F0 JUMP JUMPDEST SWAP2 PUSH1 0x44 CALLDATALOAD DUP2 DUP2 GT PUSH2 0x223 JUMPI PUSH2 0x28A SWAP1 CALLDATASIZE SWAP1 PUSH1 0x4 ADD PUSH2 0x15F0 JUMP JUMPDEST PUSH1 0x64 CALLDATALOAD DUP3 DUP2 GT PUSH2 0x223 JUMPI PUSH2 0x2A2 SWAP1 CALLDATASIZE SWAP1 PUSH1 0x4 ADD PUSH2 0x15F0 JUMP JUMPDEST PUSH1 0x84 CALLDATALOAD DUP4 DUP2 GT PUSH2 0x223 JUMPI PUSH2 0x2BA SWAP1 CALLDATASIZE SWAP1 PUSH1 0x4 ADD PUSH2 0x15F0 JUMP JUMPDEST SWAP3 PUSH1 0xA4 CALLDATALOAD SWAP1 DUP2 GT PUSH2 0x223 JUMPI PUSH2 0x2D3 SWAP1 CALLDATASIZE SWAP1 PUSH1 0x4 ADD PUSH2 0x15F0 JUMP JUMPDEST PUSH2 0x2DF DUP6 MLOAD ISZERO ISZERO PUSH2 0x18A2 JUMP JUMPDEST PUSH2 0x2EB DUP7 MLOAD ISZERO ISZERO PUSH2 0x18EE JUMP JUMPDEST PUSH2 0x2F7 DUP4 MLOAD ISZERO ISZERO PUSH2 0x1946 JUMP JUMPDEST PUSH2 0x303 DUP3 MLOAD ISZERO ISZERO PUSH2 0x1992 JUMP JUMPDEST PUSH2 0x30F DUP5 MLOAD ISZERO ISZERO PUSH2 0x19DE JUMP JUMPDEST DUP1 MLOAD ISZERO PUSH2 0x585 JUMPI PUSH1 0xFF PUSH1 0x8 PUSH1 0x40 MLOAD PUSH1 0x20 DUP2 DUP6 MLOAD PUSH2 0x32F DUP2 DUP4 DUP6 DUP11 ADD PUSH2 0x1754 JUMP JUMPDEST DUP2 ADD PUSH1 0x0 DUP2 MSTORE SUB ADD SWAP1 KECCAK256 ADD SLOAD AND PUSH2 0x540 JUMPI PUSH2 0x4FC PUSH2 0x532 SWAP4 PUSH1 0xB PUSH2 0x180 PUSH2 0x521 SWAP6 PUSH32 0xE616AB3F5763FE8347F3EBEA8944A62AA33EED929A9D82C51A6B256A1D58EC6A SWAP9 PUSH1 0x40 MLOAD SWAP2 PUSH2 0x37F DUP4 PUSH2 0x1598 JUMP JUMPDEST DUP12 DUP4 MSTORE PUSH1 0x20 DUP4 ADD SWAP6 DUP14 DUP8 MSTORE PUSH1 0x40 DUP5 ADD MSTORE PUSH1 0x60 DUP4 ADD MSTORE PUSH1 0x80 DUP3 ADD MSTORE DUP6 PUSH1 0xA0 DUP3 ADD MSTORE CALLER PUSH1 0xC0 DUP3 ADD MSTORE TIMESTAMP PUSH1 0xE0 DUP3 ADD MSTORE PUSH1 0x1 PUSH2 0x100 DUP3 ADD MSTORE PUSH1 0x0 PUSH2 0x120 DUP3 ADD MSTORE PUSH1 0x40 MLOAD PUSH2 0x3C7 DUP2 PUSH2 0x15B4 JUMP JUMPDEST PUSH1 0x0 DUP2 MSTORE PUSH2 0x140 DUP3 ADD MSTORE PUSH1 0x0 PUSH2 0x160 DUP3 ADD MSTORE PUSH1 0x40 MLOAD PUSH2 0x3E5 DUP2 PUSH2 0x15B4 JUMP JUMPDEST PUSH1 0x0 DUP2 MSTORE DUP3 DUP3 ADD MSTORE PUSH2 0x427 PUSH1 0x40 MLOAD PUSH1 0x20 DUP2 DUP2 PUSH2 0x407 DUP12 DUP4 DUP2 MLOAD SWAP4 DUP5 SWAP3 ADD PUSH2 0x1754 JUMP JUMPDEST DUP2 ADD PUSH1 0x0 DUP2 MSTORE SUB ADD SWAP1 KECCAK256 SWAP5 PUSH2 0x41D DUP4 MLOAD DUP8 PUSH2 0x1A2A JUMP JUMPDEST MLOAD PUSH1 0x1 DUP7 ADD PUSH2 0x1A2A JUMP JUMPDEST PUSH2 0x438 PUSH1 0x40 DUP3 ADD MLOAD PUSH1 0x2 DUP7 ADD PUSH2 0x1A2A JUMP JUMPDEST PUSH2 0x449 PUSH1 0x60 DUP3 ADD MLOAD PUSH1 0x3 DUP7 ADD PUSH2 0x1A2A JUMP JUMPDEST PUSH2 0x45A PUSH1 0x80 DUP3 ADD MLOAD PUSH1 0x4 DUP7 ADD PUSH2 0x1A2A JUMP JUMPDEST PUSH2 0x46B PUSH1 0xA0 DUP3 ADD MLOAD PUSH1 0x5 DUP7 ADD PUSH2 0x1A2A JUMP JUMPDEST PUSH1 0x6 DUP5 ADD PUSH1 0x1 DUP1 PUSH1 0xA0 SHL SUB PUSH1 0xC0 DUP4 ADD MLOAD AND PUSH12 0xFFFFFFFFFFFFFFFFFFFFFFFF PUSH1 0xA0 SHL DUP3 SLOAD AND OR SWAP1 SSTORE PUSH1 0xE0 DUP2 ADD MLOAD PUSH1 0x7 DUP6 ADD SSTORE PUSH2 0x4D6 PUSH1 0x8 DUP6 ADD PUSH2 0x100 DUP4 ADD MLOAD ISZERO ISZERO PUSH1 0xFF DUP1 NOT DUP4 SLOAD AND SWAP2 AND OR DUP2 SSTORE PUSH2 0x120 DUP4 ADD MLOAD ISZERO ISZERO PUSH2 0xFF00 DUP3 SLOAD SWAP2 ISZERO ISZERO PUSH1 0x8 SHL AND SWAP1 PUSH2 0xFF00 NOT AND OR SWAP1 SSTORE JUMP JUMPDEST PUSH2 0x4E8 PUSH2 0x140 DUP3 ADD MLOAD PUSH1 0x9 DUP7 ADD PUSH2 0x1A2A JUMP JUMPDEST PUSH2 0x160 DUP2 ADD MLOAD PUSH1 0xA DUP6 ADD SSTORE ADD MLOAD SWAP2 ADD PUSH2 0x1A2A JUMP JUMPDEST CALLER PUSH1 0x0 MSTORE PUSH1 0x1 PUSH1 0x20 MSTORE PUSH2 0x513 DUP2 PUSH1 0x40 PUSH1 0x0 KECCAK256 PUSH2 0x1B88 JUMP JUMPDEST PUSH2 0x51C DUP2 PUSH2 0x1B39 JUMP JUMPDEST PUSH2 0x1BB5 JUMP JUMPDEST SWAP3 PUSH1 0x40 MLOAD SWAP2 DUP3 SWAP2 CALLER SWAP7 TIMESTAMP SWAP2 DUP5 PUSH2 0x1BD5 JUMP JUMPDEST SUB SWAP1 LOG3 PUSH1 0x20 PUSH1 0x40 MLOAD PUSH1 0x1 DUP2 MSTORE RETURN JUMPDEST PUSH1 0x40 MLOAD PUSH3 0x461BCD PUSH1 0xE5 SHL DUP2 MSTORE PUSH1 0x20 PUSH1 0x4 DUP3 ADD MSTORE PUSH1 0x1E PUSH1 0x24 DUP3 ADD MSTORE PUSH32 0x436572746966696361746520616C726561647920726567697374657265640000 PUSH1 0x44 DUP3 ADD MSTORE PUSH1 0x64 SWAP1 REVERT JUMPDEST PUSH1 0x40 MLOAD PUSH3 0x461BCD PUSH1 0xE5 SHL DUP2 MSTORE PUSH1 0x20 PUSH1 0x4 DUP3 ADD MSTORE PUSH1 0x19 PUSH1 0x24 DUP3 ADD MSTORE PUSH32 0x46696C6520686173682063616E6E6F7420626520656D70747900000000000000 PUSH1 0x44 DUP3 ADD MSTORE PUSH1 0x64 SWAP1 REVERT JUMPDEST CALLVALUE PUSH2 0x223 JUMPI PUSH1 0x40 CALLDATASIZE PUSH1 0x3 NOT ADD SLT PUSH2 0x223 JUMPI PUSH1 0x1 PUSH1 0x1 PUSH1 0x40 SHL SUB PUSH1 0x4 CALLDATALOAD DUP2 DUP2 GT PUSH2 0x223 JUMPI PUSH2 0x5FB SWAP1 CALLDATASIZE SWAP1 PUSH1 0x4 ADD PUSH2 0x15F0 JUMP JUMPDEST SWAP1 PUSH1 0x24 CALLDATALOAD SWAP1 DUP2 GT PUSH2 0x223 JUMPI PUSH2 0x614 SWAP1 CALLDATASIZE SWAP1 PUSH1 0x4 ADD PUSH2 0x15F0 JUMP JUMPDEST PUSH1 0x40 MLOAD SWAP2 DUP1 MLOAD PUSH2 0x635 PUSH1 0xFF PUSH1 0x8 PUSH1 0x20 SWAP7 DUP8 DUP2 DUP2 DUP9 ADD SWAP7 PUSH2 0x108 DUP2 DUP4 DUP11 PUSH2 0x1754 JUMP JUMPDEST PUSH1 0xFF PUSH1 0x8 PUSH1 0x40 MLOAD DUP7 DUP2 DUP7 MLOAD PUSH2 0x64B DUP2 DUP4 DUP10 PUSH2 0x1754 JUMP JUMPDEST DUP2 ADD PUSH1 0x0 DUP2 MSTORE SUB ADD SWAP1 KECCAK256 ADD SLOAD PUSH1 0x8 SHR AND PUSH2 0x814 JUMPI PUSH1 0x40 MLOAD PUSH1 0x6 DUP4 MLOAD PUSH2 0x671 DUP2 DUP5 DUP7 PUSH2 0x1754 JUMP JUMPDEST PUSH1 0x0 SWAP1 DUP4 ADD SWAP1 DUP2 MSTORE DUP3 SWAP1 SUB DUP7 ADD SWAP1 SWAP2 KECCAK256 ADD SLOAD PUSH1 0x1 PUSH1 0x1 PUSH1 0xA0 SHL SUB AND CALLER SUB PUSH2 0x7C4 JUMPI DUP3 MLOAD ISZERO PUSH2 0x775 JUMPI SWAP1 PUSH2 0x707 PUSH1 0xA PUSH2 0x71D SWAP4 PUSH1 0x8 PUSH1 0x40 MLOAD DUP9 DUP2 DUP8 MLOAD PUSH2 0x6B7 DUP2 DUP4 DUP9 PUSH2 0x1754 JUMP JUMPDEST DUP2 ADD PUSH1 0x0 DUP2 MSTORE SUB ADD SWAP1 KECCAK256 ADD PUSH2 0x100 PUSH2 0xFF00 NOT DUP3 SLOAD AND OR SWAP1 SSTORE PUSH2 0x6F7 DUP7 PUSH1 0x9 PUSH1 0x40 MLOAD DUP11 DUP2 DUP10 MLOAD PUSH2 0x6E7 DUP2 DUP4 DUP11 PUSH2 0x1754 JUMP JUMPDEST DUP2 ADD PUSH1 0x0 DUP2 MSTORE SUB ADD SWAP1 KECCAK256 ADD PUSH2 0x1A2A JUMP JUMPDEST PUSH1 0x40 MLOAD SWAP3 DUP4 SWAP2 DUP6 MLOAD SWAP3 DUP4 SWAP2 PUSH2 0x1754 JUMP JUMPDEST DUP3 ADD SWAP2 PUSH1 0x0 DUP4 MSTORE DUP7 DUP2 TIMESTAMP SWAP5 SUB ADD SWAP1 KECCAK256 ADD SSTORE PUSH2 0x1BB5 JUMP JUMPDEST PUSH32 0x67562D27EAC2791A265854A2A1B95B0C1F44DFF82C377FC9261F9039D92B1F56 PUSH2 0x753 PUSH1 0x40 MLOAD SWAP4 PUSH1 0x60 DUP6 MSTORE PUSH1 0x60 DUP6 ADD SWAP1 PUSH2 0x1777 JUMP JUMPDEST SWAP3 PUSH1 0x0 DUP2 DUP6 SUB SWAP5 DUP6 DUP8 DUP5 ADD MSTORE MSTORE TIMESTAMP PUSH1 0x40 DUP3 ADD MSTORE DUP5 CALLER SWAP5 ADD SWAP1 LOG3 PUSH1 0x40 MLOAD PUSH1 0x1 DUP2 MSTORE RETURN JUMPDEST PUSH1 0x40 MLOAD PUSH3 0x461BCD PUSH1 0xE5 SHL DUP2 MSTORE PUSH1 0x4 DUP2 ADD DUP6 SWAP1 MSTORE PUSH1 0x21 PUSH1 0x24 DUP3 ADD MSTORE PUSH32 0x5265766F636174696F6E20726561736F6E2063616E6E6F7420626520656D7074 PUSH1 0x44 DUP3 ADD MSTORE PUSH1 0x79 PUSH1 0xF8 SHL PUSH1 0x64 DUP3 ADD MSTORE PUSH1 0x84 SWAP1 REVERT JUMPDEST PUSH1 0x40 MLOAD PUSH3 0x461BCD PUSH1 0xE5 SHL DUP2 MSTORE PUSH1 0x4 DUP2 ADD DUP6 SWAP1 MSTORE PUSH1 0x22 PUSH1 0x24 DUP3 ADD MSTORE PUSH32 0x4F6E6C792069737375696E6720756E69766572736974792063616E207265766F PUSH1 0x44 DUP3 ADD MSTORE PUSH2 0x6B65 PUSH1 0xF0 SHL PUSH1 0x64 DUP3 ADD MSTORE PUSH1 0x84 SWAP1 REVERT JUMPDEST PUSH1 0x40 MLOAD PUSH3 0x461BCD PUSH1 0xE5 SHL DUP2 MSTORE PUSH1 0x4 DUP2 ADD DUP6 SWAP1 MSTORE PUSH1 0x1B PUSH1 0x24 DUP3 ADD MSTORE PUSH32 0x436572746966696361746520616C7265616479207265766F6B65640000000000 PUSH1 0x44 DUP3 ADD MSTORE PUSH1 0x64 SWAP1 REVERT JUMPDEST CALLVALUE PUSH2 0x223 JUMPI PUSH1 0x20 CALLDATASIZE PUSH1 0x3 NOT ADD SLT PUSH2 0x223 JUMPI PUSH1 0x4 CALLDATALOAD PUSH1 0x1 PUSH1 0x1 PUSH1 0x40 SHL SUB DUP2 GT PUSH2 0x223 JUMPI PUSH2 0x88B PUSH1 0x20 SWAP2 CALLDATASIZE SWAP1 PUSH1 0x4 ADD PUSH2 0x15F0 JUMP JUMPDEST PUSH1 0x40 MLOAD PUSH1 0xFF PUSH1 0x8 DUP4 MLOAD SWAP3 DUP6 DUP2 DUP2 DUP8 ADD SWAP6 PUSH2 0x8A6 DUP2 DUP4 DUP10 PUSH2 0x1754 JUMP JUMPDEST DUP2 ADD PUSH1 0x0 DUP2 MSTORE SUB ADD SWAP1 KECCAK256 ADD SLOAD AND SWAP2 DUP3 PUSH2 0x8C6 JUMPI JUMPDEST POP POP PUSH1 0x40 MLOAD SWAP1 ISZERO ISZERO DUP2 MSTORE RETURN JUMPDEST PUSH1 0xFF SWAP3 POP DUP4 PUSH1 0x8 SWAP3 PUSH2 0x8E3 SWAP3 PUSH1 0x40 MLOAD SWAP4 DUP5 SWAP3 DUP4 SWAP3 MLOAD SWAP3 DUP4 SWAP2 PUSH2 0x1754 JUMP JUMPDEST DUP2 ADD PUSH1 0x0 DUP2 MSTORE SUB ADD SWAP1 KECCAK256 ADD SLOAD PUSH1 0x8 SHR AND ISZERO DUP3 DUP1 PUSH2 0x8BA JUMP JUMPDEST CALLVALUE PUSH2 0x223 JUMPI PUSH1 0x20 DUP1 PUSH1 0x3 NOT CALLDATASIZE ADD SLT PUSH2 0x223 JUMPI PUSH1 0x4 CALLDATALOAD PUSH1 0x1 PUSH1 0x1 PUSH1 0x40 SHL SUB DUP2 GT PUSH2 0x223 JUMPI DUP2 PUSH2 0x930 PUSH2 0x94F SWAP3 CALLDATASIZE SWAP1 PUSH1 0x4 ADD PUSH2 0x15F0 JUMP JUMPDEST PUSH1 0x40 MLOAD SWAP1 PUSH2 0x11A PUSH1 0xFF PUSH1 0x8 DUP4 MLOAD SWAP5 DUP7 DUP2 DUP2 DUP8 ADD SWAP8 PUSH2 0x108 DUP2 DUP4 DUP12 PUSH2 0x1754 JUMP JUMPDEST DUP2 ADD PUSH1 0x0 DUP2 MSTORE SUB ADD SWAP1 KECCAK256 PUSH2 0x21F PUSH1 0x40 MLOAD SWAP2 PUSH2 0x969 DUP4 PUSH2 0x1598 JUMP JUMPDEST PUSH2 0x972 DUP2 PUSH2 0x16AE JUMP JUMPDEST DUP4 MSTORE PUSH2 0x980 PUSH1 0x1 DUP3 ADD PUSH2 0x16AE JUMP JUMPDEST DUP5 DUP5 ADD MSTORE PUSH2 0x990 PUSH1 0x2 DUP3 ADD PUSH2 0x16AE JUMP JUMPDEST PUSH1 0x40 DUP5 ADD MSTORE PUSH2 0x9A1 PUSH1 0x3 DUP3 ADD PUSH2 0x16AE JUMP JUMPDEST PUSH1 0x60 DUP5 ADD MSTORE PUSH2 0x9B2 PUSH1 0x4 DUP3 ADD PUSH2 0x16AE JUMP JUMPDEST PUSH1 0x80 DUP5 ADD MSTORE PUSH2 0x9C3 PUSH1 0x5 DUP3 ADD PUSH2 0x16AE JUMP JUMPDEST PUSH1 0xA0 DUP5 ADD MSTORE PUSH1 0x6 DUP2 ADD SLOAD PUSH1 0x1 PUSH1 0x1 PUSH1 0xA0 SHL SUB AND PUSH1 0xC0 DUP5 ADD MSTORE PUSH1 0x7 DUP2 ADD SLOAD PUSH1 0xE0 DUP5 ADD MSTORE PUSH1 0x8 DUP1 DUP3 ADD SLOAD PUSH1 0xFF DUP1 DUP3 AND ISZERO ISZERO PUSH2 0x100 DUP8 ADD MSTORE SWAP2 SHR AND ISZERO ISZERO PUSH2 0x120 DUP5 ADD SWAP1 DUP2 MSTORE PUSH2 0x180 SWAP1 PUSH2 0xA5F SWAP1 PUSH2 0xA19 PUSH1 0x9 DUP6 ADD PUSH2 0x16AE JUMP JUMPDEST SWAP6 PUSH2 0x140 DUP2 ADD SWAP7 DUP8 MSTORE PUSH2 0xA3B PUSH1 0xB PUSH1 0xA DUP8 ADD SLOAD SWAP7 PUSH2 0x160 DUP5 ADD SWAP8 DUP9 MSTORE ADD PUSH2 0x16AE JUMP JUMPDEST SWAP4 DUP5 SWAP2 ADD MSTORE MLOAD ISZERO ISZERO SWAP5 MLOAD SWAP3 MLOAD SWAP3 PUSH1 0x80 PUSH1 0x40 MLOAD SWAP8 DUP9 SWAP8 DUP9 MSTORE DUP8 ADD MSTORE PUSH1 0x80 DUP7 ADD SWAP1 PUSH2 0x1777 JUMP JUMPDEST SWAP2 PUSH1 0x40 DUP6 ADD MSTORE DUP4 DUP3 SUB PUSH1 0x60 DUP6 ADD MSTORE PUSH2 0x1777 JUMP JUMPDEST CALLVALUE PUSH2 0x223 JUMPI PUSH1 0x20 CALLDATASIZE PUSH1 0x3 NOT ADD SLT PUSH2 0x223 JUMPI PUSH1 0x4 CALLDATALOAD PUSH1 0x1 PUSH1 0x1 PUSH1 0x40 SHL SUB DUP2 GT PUSH2 0x223 JUMPI PUSH2 0xAA2 SWAP1 CALLDATASIZE SWAP1 PUSH1 0x4 ADD PUSH2 0x15F0 JUMP JUMPDEST PUSH1 0x40 MLOAD DUP2 DUP2 DUP1 SWAP4 MLOAD PUSH1 0x20 DUP2 SWAP4 ADD SWAP2 PUSH2 0xAB9 SWAP3 PUSH2 0x1754 JUMP JUMPDEST DUP2 ADD PUSH1 0x0 DUP2 MSTORE SUB PUSH1 0x20 ADD SWAP1 KECCAK256 PUSH2 0xACE DUP2 PUSH2 0x16AE JUMP JUMPDEST PUSH2 0xADA PUSH1 0x1 DUP4 ADD PUSH2 0x16AE JUMP JUMPDEST SWAP2 PUSH2 0xAE7 PUSH1 0x2 DUP3 ADD PUSH2 0x16AE JUMP JUMPDEST SWAP1 PUSH2 0xAF4 PUSH1 0x3 DUP3 ADD PUSH2 0x16AE JUMP JUMPDEST PUSH2 0xB00 PUSH1 0x4 DUP4 ADD PUSH2 0x16AE JUMP JUMPDEST PUSH2 0xB0C PUSH1 0x5 DUP5 ADD PUSH2 0x16AE JUMP JUMPDEST PUSH1 0x6 DUP5 ADD SLOAD PUSH1 0x7 DUP6 ADD SLOAD PUSH1 0x8 DUP7 ADD SLOAD PUSH1 0x1 PUSH1 0x1 PUSH1 0xA0 SHL SUB SWAP1 SWAP3 AND SWAP4 SWAP2 SWAP3 SWAP1 SWAP2 PUSH2 0xB37 PUSH1 0x9 DUP9 ADD PUSH2 0x16AE JUMP JUMPDEST SWAP6 PUSH1 0xA DUP9 ADD SLOAD SWAP8 PUSH1 0xB ADD PUSH2 0xB4A SWAP1 PUSH2 0x16AE JUMP JUMPDEST SWAP9 PUSH1 0x40 MLOAD SWAP12 DUP13 SWAP12 DUP13 PUSH2 0x1A0 DUP1 SWAP2 MSTORE DUP14 ADD PUSH2 0xB63 SWAP2 PUSH2 0x1777 JUMP JUMPDEST DUP13 DUP2 SUB PUSH1 0x20 DUP15 ADD MSTORE PUSH2 0xB74 SWAP2 PUSH2 0x1777 JUMP JUMPDEST DUP12 DUP2 SUB PUSH1 0x40 DUP14 ADD MSTORE PUSH2 0xB85 SWAP2 PUSH2 0x1777 JUMP JUMPDEST DUP11 DUP2 SUB PUSH1 0x60 DUP13 ADD MSTORE PUSH2 0xB96 SWAP2 PUSH2 0x1777 JUMP JUMPDEST DUP10 DUP2 SUB PUSH1 0x80 DUP12 ADD MSTORE PUSH2 0xBA7 SWAP2 PUSH2 0x1777 JUMP JUMPDEST DUP9 DUP2 SUB PUSH1 0xA0 DUP11 ADD MSTORE PUSH2 0xBB8 SWAP2 PUSH2 0x1777 JUMP JUMPDEST SWAP3 PUSH1 0xC0 DUP9 ADD MSTORE PUSH1 0xE0 DUP8 ADD MSTORE PUSH1 0xFF DUP2 AND ISZERO ISZERO PUSH2 0x100 DUP8 ADD MSTORE PUSH1 0x8 SHR PUSH1 0xFF AND ISZERO ISZERO PUSH2 0x120 DUP7 ADD MSTORE DUP5 DUP2 SUB PUSH2 0x140 DUP7 ADD MSTORE PUSH2 0xBEF SWAP2 PUSH2 0x1777 JUMP JUMPDEST SWAP1 PUSH2 0x160 DUP5 ADD MSTORE DUP3 DUP2 SUB PUSH2 0x180 DUP5 ADD MSTORE PUSH2 0x21F SWAP2 PUSH2 0x1777 JUMP JUMPDEST CALLVALUE PUSH2 0x223 JUMPI PUSH1 0x20 DUP1 PUSH1 0x3 NOT CALLDATASIZE ADD SLT PUSH2 0x223 JUMPI PUSH1 0x4 CALLDATALOAD PUSH1 0x1 PUSH1 0x1 PUSH1 0x40 SHL SUB DUP2 GT PUSH2 0x223 JUMPI PUSH2 0xC39 SWAP1 CALLDATASIZE SWAP1 PUSH1 0x4 ADD PUSH2 0x15F0 JUMP JUMPDEST PUSH2 0xC41 PUSH2 0x1C03 JUMP JUMPDEST POP PUSH2 0x21F PUSH1 0x40 MLOAD SWAP2 PUSH2 0xD6B PUSH2 0xC86 DUP6 PUSH1 0xFF PUSH1 0x8 DUP8 DUP4 DUP2 DUP9 MLOAD PUSH2 0xC67 DUP2 DUP5 DUP13 ADD SWAP14 DUP15 PUSH2 0x1754 JUMP JUMPDEST DUP2 ADD PUSH1 0x0 DUP2 MSTORE SUB ADD SWAP1 KECCAK256 ADD SLOAD AND SWAP6 PUSH1 0x40 MLOAD DUP1 SWAP4 DUP2 SWAP3 DUP8 MLOAD SWAP3 DUP4 SWAP2 PUSH2 0x1754 JUMP JUMPDEST DUP2 ADD PUSH1 0x0 DUP2 MSTORE SUB ADD SWAP1 KECCAK256 SWAP2 PUSH2 0xD60 PUSH1 0xB PUSH1 0x40 MLOAD SWAP5 PUSH2 0xCA3 DUP7 PUSH2 0x1598 JUMP JUMPDEST PUSH2 0xCAC DUP2 PUSH2 0x16AE JUMP JUMPDEST DUP7 MSTORE PUSH2 0xCBA PUSH1 0x1 DUP3 ADD PUSH2 0x16AE JUMP JUMPDEST DUP10 DUP8 ADD MSTORE PUSH2 0xCCA PUSH1 0x2 DUP3 ADD PUSH2 0x16AE JUMP JUMPDEST PUSH1 0x40 DUP8 ADD MSTORE PUSH2 0xCDB PUSH1 0x3 DUP3 ADD PUSH2 0x16AE JUMP JUMPDEST PUSH1 0x60 DUP8 ADD MSTORE PUSH2 0xCEC PUSH1 0x4 DUP3 ADD PUSH2 0x16AE JUMP JUMPDEST PUSH1 0x80 DUP8 ADD MSTORE PUSH2 0xCFD PUSH1 0x5 DUP3 ADD PUSH2 0x16AE JUMP JUMPDEST PUSH1 0xA0 DUP8 ADD MSTORE PUSH1 0x6 DUP2 ADD SLOAD PUSH1 0x1 PUSH1 0x1 PUSH1 0xA0 SHL SUB AND PUSH1 0xC0 DUP8 ADD MSTORE PUSH1 0x7 DUP2 ADD SLOAD PUSH1 0xE0 DUP8 ADD MSTORE PUSH1 0x8 DUP1 DUP3 ADD SLOAD PUSH1 0xFF DUP2 DUP2 AND ISZERO ISZERO PUSH2 0x100 DUP11 ADD MSTORE SWAP2 SHR AND ISZERO ISZERO PUSH2 0x120 DUP8 ADD MSTORE PUSH2 0xD49 PUSH1 0x9 DUP3 ADD PUSH2 0x16AE JUMP JUMPDEST PUSH2 0x140 DUP8 ADD MSTORE PUSH1 0xA DUP2 ADD SLOAD PUSH2 0x160 DUP8 ADD MSTORE ADD PUSH2 0x16AE JUMP JUMPDEST PUSH2 0x180 DUP5 ADD MSTORE PUSH2 0x1BB5 JUMP JUMPDEST PUSH32 0xDF8844E71FD10B8E7795EBF19C1650D566BAB9B0B2F18A6373153F9ACED9FC89 PUSH1 0x40 DUP1 MLOAD SWAP6 ISZERO ISZERO SWAP6 DUP7 DUP2 MSTORE TIMESTAMP DUP9 DUP3 ADD MSTORE LOG2 PUSH1 0x40 DUP1 MLOAD SWAP5 DUP6 SWAP5 DUP6 MSTORE DUP5 ADD MSTORE PUSH1 0x40 DUP4 ADD SWAP1 PUSH2 0x17B2 JUMP JUMPDEST CALLVALUE PUSH2 0x223 JUMPI PUSH1 0x20 DUP1 PUSH1 0x3 NOT CALLDATASIZE ADD SLT PUSH2 0x223 JUMPI PUSH1 0x1 PUSH1 0x1 PUSH1 0xA0 SHL SUB PUSH2 0xDD5 PUSH2 0x179C JUMP JUMPDEST AND PUSH1 0x0 MSTORE PUSH1 0x1 SWAP1 DUP2 DUP2 MSTORE PUSH1 0x40 PUSH1 0x0 KECCAK256 DUP1 SLOAD PUSH1 0x1 PUSH1 0x1 PUSH1 0x40 SHL SUB DUP2 GT PUSH2 0xEAD JUMPI DUP4 DUP4 PUSH1 0x40 MLOAD SWAP3 PUSH2 0xE09 DUP3 DUP3 PUSH1 0x5 SHL ADD DUP6 PUSH2 0x15CF JUMP JUMPDEST DUP1 DUP5 MSTORE DUP2 DUP5 ADD DUP1 SWAP6 PUSH1 0x0 MSTORE DUP3 PUSH1 0x0 KECCAK256 PUSH1 0x0 SWAP2 JUMPDEST DUP4 DUP4 LT PUSH2 0xE84 JUMPI POP POP POP POP PUSH1 0x40 MLOAD SWAP3 DUP2 DUP5 ADD SWAP1 DUP3 DUP6 MSTORE MLOAD DUP1 SWAP2 MSTORE PUSH1 0x40 DUP5 ADD SWAP2 PUSH1 0x40 DUP3 PUSH1 0x5 SHL DUP7 ADD ADD SWAP6 SWAP3 PUSH1 0x0 SWAP1 JUMPDEST DUP4 DUP3 LT PUSH2 0xE57 JUMPI DUP7 DUP9 SUB DUP8 RETURN JUMPDEST SWAP1 SWAP2 SWAP3 SWAP4 SWAP5 DUP4 DUP1 PUSH2 0xE73 DUP4 SWAP11 PUSH1 0x3F NOT DUP12 DUP3 SUB ADD DUP7 MSTORE DUP10 MLOAD PUSH2 0x1777 JUMP JUMPDEST SWAP10 SWAP8 ADD SWAP6 SWAP5 SWAP4 SWAP2 SWAP1 SWAP2 ADD SWAP2 ADD PUSH2 0xE4A JUMP JUMPDEST SWAP1 DUP6 DUP1 DUP7 DUP2 SWAP11 SWAP9 SWAP6 SWAP5 PUSH2 0xE99 DUP6 SWAP12 SWAP10 SWAP12 PUSH2 0x16AE JUMP JUMPDEST DUP2 MSTORE ADD SWAP3 ADD SWAP3 ADD SWAP3 POP SWAP7 SWAP5 SWAP7 SWAP6 SWAP4 SWAP6 PUSH2 0xE1C JUMP JUMPDEST PUSH4 0x4E487B71 PUSH1 0xE0 SHL PUSH1 0x0 MSTORE PUSH1 0x41 PUSH1 0x4 MSTORE PUSH1 0x24 PUSH1 0x0 REVERT JUMPDEST CALLVALUE PUSH2 0x223 JUMPI PUSH1 0x0 CALLDATASIZE PUSH1 0x3 NOT ADD SLT PUSH2 0x223 JUMPI PUSH1 0x20 PUSH1 0x2 SLOAD PUSH1 0x40 MLOAD SWAP1 DUP2 MSTORE RETURN JUMPDEST CALLVALUE PUSH2 0x223 JUMPI PUSH2 0x100 CALLDATASIZE PUSH1 0x3 NOT ADD SLT PUSH2 0x223 JUMPI PUSH1 0x1 PUSH1 0x1 PUSH1 0x40 SHL SUB PUSH1 0x4 CALLDATALOAD DUP2 DUP2 GT PUSH2 0x223 JUMPI PUSH2 0xF13 SWAP1 CALLDATASIZE SWAP1 PUSH1 0x4 ADD PUSH2 0x15F0 JUMP JUMPDEST PUSH1 0x24 CALLDATALOAD DUP3 DUP2 GT PUSH2 0x223 JUMPI PUSH2 0xF2B SWAP1 CALLDATASIZE SWAP1 PUSH1 0x4 ADD PUSH2 0x15F0 JUMP JUMPDEST SWAP1 PUSH1 0x44 CALLDATALOAD DUP4 DUP2 GT PUSH2 0x223 JUMPI PUSH2 0xF44 SWAP1 CALLDATASIZE SWAP1 PUSH1 0x4 ADD PUSH2 0x15F0 JUMP JUMPDEST SWAP2 PUSH1 0x64 CALLDATALOAD DUP5 DUP2 GT PUSH2 0x223 JUMPI PUSH2 0xF5D SWAP1 CALLDATASIZE SWAP1 PUSH1 0x4 ADD PUSH2 0x15F0 JUMP JUMPDEST SWAP4 PUSH1 0x84 CALLDATALOAD DUP2 DUP2 GT PUSH2 0x223 JUMPI PUSH2 0xF76 SWAP1 CALLDATASIZE SWAP1 PUSH1 0x4 ADD PUSH2 0x15F0 JUMP JUMPDEST SWAP1 PUSH1 0xA4 CALLDATALOAD DUP2 DUP2 GT PUSH2 0x223 JUMPI PUSH2 0xF8F SWAP1 CALLDATASIZE SWAP1 PUSH1 0x4 ADD PUSH2 0x15F0 JUMP JUMPDEST SWAP3 PUSH1 0xC4 CALLDATALOAD DUP3 DUP2 GT PUSH2 0x223 JUMPI PUSH2 0xFA8 SWAP1 CALLDATASIZE SWAP1 PUSH1 0x4 ADD PUSH2 0x15F0 JUMP JUMPDEST SWAP2 PUSH1 0xE4 CALLDATALOAD SWAP1 DUP2 GT PUSH2 0x223 JUMPI PUSH2 0xFC1 SWAP1 CALLDATASIZE SWAP1 PUSH1 0x4 ADD PUSH2 0x15F0 JUMP JUMPDEST SWAP2 PUSH1 0xFF PUSH1 0x8 PUSH1 0x40 MLOAD PUSH1 0x20 DUP2 DUP2 PUSH2 0xFDD DUP13 DUP4 DUP2 MLOAD SWAP4 DUP5 SWAP3 ADD PUSH2 0x1754 JUMP JUMPDEST DUP2 ADD PUSH1 0x0 DUP2 MSTORE SUB ADD SWAP1 KECCAK256 ADD SLOAD AND ISZERO PUSH2 0x141E JUMPI PUSH1 0xFF PUSH1 0x8 PUSH1 0x40 MLOAD PUSH1 0x20 DUP2 DUP2 PUSH2 0x100A DUP13 DUP4 DUP2 MLOAD SWAP4 DUP5 SWAP3 ADD PUSH2 0x1754 JUMP JUMPDEST DUP2 ADD PUSH1 0x0 DUP2 MSTORE SUB ADD SWAP1 KECCAK256 ADD SLOAD PUSH1 0x8 SHR AND PUSH2 0x13D9 JUMPI PUSH1 0x40 MLOAD PUSH1 0x6 DUP8 MLOAD PUSH2 0x1033 DUP2 DUP5 PUSH1 0x20 DUP13 ADD PUSH2 0x1754 JUMP JUMPDEST PUSH1 0x0 SWAP1 DUP4 ADD SWAP1 DUP2 MSTORE DUP3 SWAP1 SUB PUSH1 0x20 ADD SWAP1 SWAP2 KECCAK256 ADD SLOAD PUSH1 0x1 PUSH1 0x1 PUSH1 0xA0 SHL SUB AND CALLER SUB PUSH2 0x1388 JUMPI DUP2 MLOAD ISZERO PUSH2 0x1338 JUMPI PUSH2 0x1068 DUP8 MLOAD ISZERO ISZERO PUSH2 0x18A2 JUMP JUMPDEST PUSH2 0x1074 DUP9 MLOAD ISZERO ISZERO PUSH2 0x18EE JUMP JUMPDEST PUSH2 0x1080 DUP5 MLOAD ISZERO ISZERO PUSH2 0x1946 JUMP JUMPDEST PUSH2 0x108C DUP6 MLOAD ISZERO ISZERO PUSH2 0x1992 JUMP JUMPDEST PUSH2 0x1098 DUP2 MLOAD ISZERO ISZERO PUSH2 0x19DE JUMP JUMPDEST DUP3 MLOAD ISZERO PUSH2 0x12F3 JUMPI PUSH1 0xFF PUSH1 0x8 PUSH1 0x40 MLOAD PUSH1 0x20 DUP2 DUP8 MLOAD PUSH2 0x10B8 DUP2 DUP4 DUP6 DUP13 ADD PUSH2 0x1754 JUMP JUMPDEST DUP2 ADD PUSH1 0x0 DUP2 MSTORE SUB ADD SWAP1 KECCAK256 ADD SLOAD AND PUSH2 0x12A3 JUMPI PUSH32 0xE616AB3F5763FE8347F3EBEA8944A62AA33EED929A9D82C51A6B256A1D58EC6A SWAP6 PUSH2 0x1248 PUSH2 0x521 SWAP6 PUSH2 0x1268 SWAP4 PUSH2 0x532 SWAP9 PUSH1 0x8 PUSH1 0x40 MLOAD PUSH1 0x20 DUP2 DUP9 MLOAD PUSH2 0x1111 DUP2 DUP4 DUP6 DUP14 ADD PUSH2 0x1754 JUMP JUMPDEST DUP2 ADD PUSH1 0x0 DUP2 MSTORE SUB ADD SWAP1 KECCAK256 ADD PUSH2 0x100 PUSH2 0xFF00 NOT DUP3 SLOAD AND OR SWAP1 SSTORE PUSH2 0x1146 DUP8 PUSH1 0x9 PUSH1 0x40 MLOAD PUSH1 0x20 DUP2 DUP2 PUSH2 0x6E7 DUP13 DUP4 DUP2 MLOAD SWAP4 DUP5 SWAP3 ADD PUSH2 0x1754 JUMP JUMPDEST PUSH1 0x40 MLOAD PUSH1 0xA DUP7 MLOAD PUSH2 0x115B DUP2 DUP5 PUSH1 0x20 DUP12 ADD PUSH2 0x1754 JUMP JUMPDEST DUP3 ADD SWAP2 PUSH1 0x0 DUP4 MSTORE PUSH1 0x20 DUP2 TIMESTAMP SWAP5 SUB ADD SWAP1 KECCAK256 ADD SSTORE PUSH2 0x118A DUP9 PUSH1 0xB PUSH1 0x40 MLOAD PUSH1 0x20 DUP2 DUP2 PUSH2 0x6E7 DUP13 DUP4 DUP2 MLOAD SWAP4 DUP5 SWAP3 ADD PUSH2 0x1754 JUMP JUMPDEST PUSH1 0x40 MLOAD SWAP3 PUSH2 0x1197 DUP5 PUSH2 0x1598 JUMP JUMPDEST DUP13 DUP5 MSTORE DUP14 PUSH1 0x20 DUP6 ADD MSTORE PUSH1 0x40 DUP5 ADD MSTORE PUSH1 0x60 DUP4 ADD MSTORE PUSH1 0x80 DUP3 ADD MSTORE DUP6 PUSH1 0xA0 DUP3 ADD MSTORE CALLER PUSH1 0xC0 DUP3 ADD MSTORE TIMESTAMP PUSH1 0xE0 DUP3 ADD MSTORE PUSH1 0x1 PUSH2 0x100 DUP3 ADD MSTORE PUSH1 0x0 PUSH2 0x120 DUP3 ADD MSTORE PUSH1 0x40 MLOAD PUSH2 0x11DD DUP2 PUSH2 0x15B4 JUMP JUMPDEST PUSH1 0x0 DUP2 MSTORE PUSH2 0x140 DUP3 ADD MSTORE PUSH1 0x0 PUSH2 0x160 DUP3 ADD MSTORE PUSH1 0x40 MLOAD PUSH2 0x11FB DUP2 PUSH2 0x15B4 JUMP JUMPDEST PUSH1 0x0 DUP2 MSTORE PUSH2 0x180 DUP3 ADD MSTORE PUSH1 0xB PUSH2 0x180 PUSH1 0x40 MLOAD PUSH1 0x20 DUP2 DUP2 PUSH2 0x1221 DUP13 DUP4 DUP2 MLOAD SWAP4 DUP5 SWAP3 ADD PUSH2 0x1754 JUMP JUMPDEST DUP2 ADD PUSH1 0x0 DUP2 MSTORE SUB ADD SWAP1 KECCAK256 SWAP3 PUSH2 0x1237 DUP2 MLOAD DUP6 PUSH2 0x1A2A JUMP JUMPDEST PUSH2 0x427 PUSH1 0x20 DUP3 ADD MLOAD PUSH1 0x1 DUP7 ADD PUSH2 0x1A2A JUMP JUMPDEST CALLER PUSH1 0x0 MSTORE PUSH1 0x1 PUSH1 0x20 MSTORE PUSH2 0x125F DUP5 PUSH1 0x40 PUSH1 0x0 KECCAK256 PUSH2 0x1B88 JUMP JUMPDEST PUSH2 0x51C DUP5 PUSH2 0x1B39 JUMP JUMPDEST PUSH32 0x67562D27EAC2791A265854A2A1B95B0C1F44DFF82C377FC9261F9039D92B1F56 PUSH1 0x40 MLOAD DUP1 PUSH2 0x129B CALLER SWAP6 DUP8 TIMESTAMP SWAP2 DUP5 PUSH2 0x1BD5 JUMP JUMPDEST SUB SWAP1 LOG3 PUSH2 0x1BB5 JUMP JUMPDEST PUSH1 0x40 MLOAD PUSH3 0x461BCD PUSH1 0xE5 SHL DUP2 MSTORE PUSH1 0x20 PUSH1 0x4 DUP3 ADD MSTORE PUSH1 0x22 PUSH1 0x24 DUP3 ADD MSTORE PUSH32 0x4E657720636572746966696361746520616C7265616479207265676973746572 PUSH1 0x44 DUP3 ADD MSTORE PUSH2 0x1959 PUSH1 0xF2 SHL PUSH1 0x64 DUP3 ADD MSTORE PUSH1 0x84 SWAP1 REVERT JUMPDEST PUSH1 0x40 MLOAD PUSH3 0x461BCD PUSH1 0xE5 SHL DUP2 MSTORE PUSH1 0x20 PUSH1 0x4 DUP3 ADD MSTORE PUSH1 0x1D PUSH1 0x24 DUP3 ADD MSTORE PUSH32 0x4E65772066696C6520686173682063616E6E6F7420626520656D707479000000 PUSH1 0x44 DUP3 ADD MSTORE PUSH1 0x64 SWAP1 REVERT JUMPDEST PUSH1 0x40 MLOAD PUSH3 0x461BCD PUSH1 0xE5 SHL DUP2 MSTORE PUSH1 0x20 PUSH1 0x4 DUP3 ADD MSTORE PUSH1 0x22 PUSH1 0x24 DUP3 ADD MSTORE PUSH32 0x5265706C6163656D656E7420726561736F6E2063616E6E6F7420626520656D70 PUSH1 0x44 DUP3 ADD MSTORE PUSH2 0x7479 PUSH1 0xF0 SHL PUSH1 0x64 DUP3 ADD MSTORE PUSH1 0x84 SWAP1 REVERT JUMPDEST PUSH1 0x40 MLOAD PUSH3 0x461BCD PUSH1 0xE5 SHL DUP2 MSTORE PUSH1 0x20 PUSH1 0x4 DUP3 ADD MSTORE PUSH1 0x23 PUSH1 0x24 DUP3 ADD MSTORE PUSH32 0x4F6E6C792069737375696E6720756E69766572736974792063616E207265706C PUSH1 0x44 DUP3 ADD MSTORE PUSH3 0x616365 PUSH1 0xE8 SHL PUSH1 0x64 DUP3 ADD MSTORE PUSH1 0x84 SWAP1 REVERT JUMPDEST PUSH1 0x40 MLOAD PUSH3 0x461BCD PUSH1 0xE5 SHL DUP2 MSTORE PUSH1 0x20 PUSH1 0x4 DUP3 ADD MSTORE PUSH1 0x1F PUSH1 0x24 DUP3 ADD MSTORE PUSH32 0x4F6C6420636572746966696361746520616C7265616479207265766F6B656400 PUSH1 0x44 DUP3 ADD MSTORE PUSH1 0x64 SWAP1 REVERT JUMPDEST PUSH1 0x40 MLOAD PUSH3 0x461BCD PUSH1 0xE5 SHL DUP2 MSTORE PUSH1 0x20 PUSH1 0x4 DUP3 ADD MSTORE PUSH1 0x1E PUSH1 0x24 DUP3 ADD MSTORE PUSH32 0x4F6C6420636572746966696361746520646F6573206E6F742065786973740000 PUSH1 0x44 DUP3 ADD MSTORE PUSH1 0x64 SWAP1 REVERT JUMPDEST CALLVALUE PUSH2 0x223 JUMPI PUSH1 0x40 CALLDATASIZE PUSH1 0x3 NOT ADD SLT PUSH2 0x223 JUMPI PUSH2 0x147C PUSH2 0x179C JUMP JUMPDEST PUSH1 0x1 PUSH1 0x1 PUSH1 0xA0 SHL SUB AND PUSH1 0x0 SWAP1 DUP2 MSTORE PUSH1 0x1 PUSH1 0x20 MSTORE PUSH1 0x40 SWAP1 KECCAK256 DUP1 SLOAD PUSH1 0x24 CALLDATALOAD SWAP1 DUP2 LT ISZERO PUSH2 0x223 JUMPI PUSH2 0x14A9 SWAP2 PUSH2 0x1646 JUMP JUMPDEST PUSH2 0x14CD JUMPI PUSH2 0x14B9 PUSH2 0x21F SWAP2 PUSH2 0x16AE JUMP JUMPDEST PUSH1 0x40 MLOAD SWAP2 DUP3 SWAP2 PUSH1 0x20 DUP4 MSTORE PUSH1 0x20 DUP4 ADD SWAP1 PUSH2 0x1777 JUMP JUMPDEST PUSH4 0x4E487B71 PUSH1 0xE0 SHL PUSH1 0x0 MSTORE PUSH1 0x0 PUSH1 0x4 MSTORE PUSH1 0x24 PUSH1 0x0 REVERT JUMPDEST CALLVALUE PUSH2 0x223 JUMPI PUSH1 0x20 CALLDATASIZE PUSH1 0x3 NOT ADD SLT PUSH2 0x223 JUMPI PUSH1 0x4 CALLDATALOAD PUSH1 0x2 SLOAD DUP2 LT ISZERO PUSH2 0x223 JUMPI PUSH2 0x14B9 PUSH2 0x21F SWAP2 PUSH1 0x2 PUSH1 0x0 MSTORE PUSH32 0x405787FA12A823E0F2B7631CC41B3BA8828B3321CA811111FA75CD3AA3BB5ACE ADD PUSH2 0x16AE JUMP JUMPDEST CALLVALUE PUSH2 0x223 JUMPI PUSH1 0x20 CALLDATASIZE PUSH1 0x3 NOT ADD SLT PUSH2 0x223 JUMPI PUSH1 0x4 CALLDATALOAD PUSH1 0x1 PUSH1 0x1 PUSH1 0x40 SHL SUB DUP2 GT PUSH2 0x223 JUMPI PUSH1 0xFF PUSH1 0x8 PUSH2 0x1581 PUSH1 0x20 PUSH2 0x156E DUP2 SWAP6 CALLDATASIZE SWAP1 PUSH1 0x4 ADD PUSH2 0x15F0 JUMP JUMPDEST DUP2 PUSH1 0x40 MLOAD SWAP4 DUP3 DUP6 DUP1 SWAP5 MLOAD SWAP4 DUP5 SWAP3 ADD PUSH2 0x1754 JUMP JUMPDEST DUP2 ADD PUSH1 0x0 DUP2 MSTORE SUB ADD SWAP1 KECCAK256 ADD SLOAD AND PUSH1 0x40 MLOAD SWAP1 ISZERO ISZERO DUP2 MSTORE RETURN JUMPDEST PUSH2 0x1A0 DUP2 ADD SWAP1 DUP2 LT PUSH1 0x1 PUSH1 0x1 PUSH1 0x40 SHL SUB DUP3 GT OR PUSH2 0xEAD JUMPI PUSH1 0x40 MSTORE JUMP JUMPDEST PUSH1 0x20 DUP2 ADD SWAP1 DUP2 LT PUSH1 0x1 PUSH1 0x1 PUSH1 0x40 SHL SUB DUP3 GT OR PUSH2 0xEAD JUMPI PUSH1 0x40 MSTORE JUMP JUMPDEST SWAP1 PUSH1 0x1F DUP1 NOT SWAP2 ADD AND DUP2 ADD SWAP1 DUP2 LT PUSH1 0x1 PUSH1 0x1 PUSH1 0x40 SHL SUB DUP3 GT OR PUSH2 0xEAD JUMPI PUSH1 0x40 MSTORE JUMP JUMPDEST DUP2 PUSH1 0x1F DUP3 ADD SLT ISZERO PUSH2 0x223 JUMPI DUP1 CALLDATALOAD SWAP1 PUSH1 0x1 PUSH1 0x1 PUSH1 0x40 SHL SUB DUP3 GT PUSH2 0xEAD JUMPI PUSH1 0x40 MLOAD SWAP3 PUSH2 0x1624 PUSH1 0x1F DUP5 ADD PUSH1 0x1F NOT AND PUSH1 0x20 ADD DUP6 PUSH2 0x15CF JUMP JUMPDEST DUP3 DUP5 MSTORE PUSH1 0x20 DUP4 DUP4 ADD ADD GT PUSH2 0x223 JUMPI DUP2 PUSH1 0x0 SWAP3 PUSH1 0x20 DUP1 SWAP4 ADD DUP4 DUP7 ADD CALLDATACOPY DUP4 ADD ADD MSTORE SWAP1 JUMP JUMPDEST DUP1 SLOAD DUP3 LT ISZERO PUSH2 0x165E JUMPI PUSH1 0x0 MSTORE PUSH1 0x20 PUSH1 0x0 KECCAK256 ADD SWAP1 PUSH1 0x0 SWAP1 JUMP JUMPDEST PUSH4 0x4E487B71 PUSH1 0xE0 SHL PUSH1 0x0 MSTORE PUSH1 0x32 PUSH1 0x4 MSTORE PUSH1 0x24 PUSH1 0x0 REVERT JUMPDEST SWAP1 PUSH1 0x1 DUP3 DUP2 SHR SWAP3 AND DUP1 ISZERO PUSH2 0x16A4 JUMPI JUMPDEST PUSH1 0x20 DUP4 LT EQ PUSH2 0x168E JUMPI JUMP JUMPDEST PUSH4 0x4E487B71 PUSH1 0xE0 SHL PUSH1 0x0 MSTORE PUSH1 0x22 PUSH1 0x4 MSTORE PUSH1 0x24 PUSH1 0x0 REVERT JUMPDEST SWAP2 PUSH1 0x7F AND SWAP2 PUSH2 0x1683 JUMP JUMPDEST SWAP1 PUSH1 0x40 MLOAD SWAP2 DUP3 PUSH1 0x0 DUP3 SLOAD SWAP3 PUSH2 0x16C2 DUP5 PUSH2 0x1674 JUMP JUMPDEST SWAP1 DUP2 DUP5 MSTORE PUSH1 0x1 SWAP5 DUP6 DUP2 AND SWAP1 DUP2 PUSH1 0x0 EQ PUSH2 0x1731 JUMPI POP PUSH1 0x1 EQ PUSH2 0x16EE JUMPI JUMPDEST POP POP PUSH2 0x16EC SWAP3 POP SUB DUP4 PUSH2 0x15CF JUMP JUMPDEST JUMP JUMPDEST SWAP1 SWAP4 SWAP2 POP PUSH1 0x0 MSTORE PUSH1 0x20 SWAP1 DUP2 PUSH1 0x0 KECCAK256 SWAP4 PUSH1 0x0 SWAP2 JUMPDEST DUP2 DUP4 LT PUSH2 0x1719 JUMPI POP POP PUSH2 0x16EC SWAP4 POP DUP3 ADD ADD CODESIZE DUP1 PUSH2 0x16DE JUMP JUMPDEST DUP6 SLOAD DUP9 DUP5 ADD DUP6 ADD MSTORE SWAP5 DUP6 ADD SWAP5 DUP8 SWAP5 POP SWAP2 DUP4 ADD SWAP2 PUSH2 0x1701 JUMP JUMPDEST SWAP2 POP POP PUSH2 0x16EC SWAP5 POP PUSH1 0x20 SWAP3 POP PUSH1 0xFF NOT AND DUP3 DUP5 ADD MSTORE ISZERO ISZERO PUSH1 0x5 SHL DUP3 ADD ADD CODESIZE DUP1 PUSH2 0x16DE JUMP JUMPDEST PUSH1 0x0 JUMPDEST DUP4 DUP2 LT PUSH2 0x1767 JUMPI POP POP PUSH1 0x0 SWAP2 ADD MSTORE JUMP JUMPDEST DUP2 DUP2 ADD MLOAD DUP4 DUP3 ADD MSTORE PUSH1 0x20 ADD PUSH2 0x1757 JUMP JUMPDEST SWAP1 PUSH1 0x20 SWAP2 PUSH2 0x1790 DUP2 MLOAD DUP1 SWAP3 DUP2 DUP6 MSTORE DUP6 DUP1 DUP7 ADD SWAP2 ADD PUSH2 0x1754 JUMP JUMPDEST PUSH1 0x1F ADD PUSH1 0x1F NOT AND ADD ADD SWAP1 JUMP JUMPDEST PUSH1 0x4 CALLDATALOAD SWAP1 PUSH1 0x1 PUSH1 0x1 PUSH1 0xA0 SHL SUB DUP3 AND DUP3 SUB PUSH2 0x223 JUMPI JUMP JUMPDEST SWAP1 PUSH2 0x189F SWAP2 PUSH2 0x1880 PUSH2 0x1836 PUSH2 0x1824 PUSH2 0x1812 PUSH2 0x1800 PUSH2 0x17EE PUSH2 0x17DC DUP8 MLOAD PUSH2 0x1A0 DUP1 DUP12 MSTORE DUP11 ADD SWAP1 PUSH2 0x1777 JUMP JUMPDEST PUSH1 0x20 DUP9 ADD MLOAD DUP10 DUP3 SUB PUSH1 0x20 DUP12 ADD MSTORE PUSH2 0x1777 JUMP JUMPDEST PUSH1 0x40 DUP8 ADD MLOAD DUP9 DUP3 SUB PUSH1 0x40 DUP11 ADD MSTORE PUSH2 0x1777 JUMP JUMPDEST PUSH1 0x60 DUP7 ADD MLOAD DUP8 DUP3 SUB PUSH1 0x60 DUP10 ADD MSTORE PUSH2 0x1777 JUMP JUMPDEST PUSH1 0x80 DUP6 ADD MLOAD DUP7 DUP3 SUB PUSH1 0x80 DUP9 ADD MSTORE PUSH2 0x1777 JUMP JUMPDEST PUSH1 0xA0 DUP5 ADD MLOAD DUP6 DUP3 SUB PUSH1 0xA0 DUP8 ADD MSTORE PUSH2 0x1777 JUMP JUMPDEST PUSH1 0x1 DUP1 PUSH1 0xA0 SHL SUB PUSH1 0xC0 DUP5 ADD MLOAD AND PUSH1 0xC0 DUP6 ADD MSTORE PUSH1 0xE0 DUP4 ADD MLOAD PUSH1 0xE0 DUP6 ADD MSTORE PUSH2 0x100 DUP1 DUP5 ADD MLOAD ISZERO ISZERO SWAP1 DUP6 ADD MSTORE PUSH2 0x120 DUP1 DUP5 ADD MLOAD ISZERO ISZERO SWAP1 DUP6 ADD MSTORE PUSH2 0x140 DUP1 DUP5 ADD MLOAD SWAP1 DUP6 DUP4 SUB SWAP1 DUP7 ADD MSTORE PUSH2 0x1777 JUMP JUMPDEST SWAP2 PUSH2 0x160 DUP1 DUP4 ADD MLOAD SWAP1 DUP3 ADD MSTORE PUSH2 0x180 DUP1 SWAP3 ADD MLOAD SWAP2 DUP2 DUP5 SUB SWAP2 ADD MSTORE PUSH2 0x1777 JUMP JUMPDEST SWAP1 JUMP JUMPDEST ISZERO PUSH2 0x18A9 JUMPI JUMP JUMPDEST PUSH1 0x40 MLOAD PUSH3 0x461BCD PUSH1 0xE5 SHL DUP2 MSTORE PUSH1 0x20 PUSH1 0x4 DUP3 ADD MSTORE PUSH1 0x1C PUSH1 0x24 DUP3 ADD MSTORE PUSH32 0x53747564656E74206E616D652063616E6E6F7420626520656D70747900000000 PUSH1 0x44 DUP3 ADD MSTORE PUSH1 0x64 SWAP1 REVERT JUMPDEST ISZERO PUSH2 0x18F5 JUMPI JUMP JUMPDEST PUSH1 0x40 MLOAD PUSH3 0x461BCD PUSH1 0xE5 SHL DUP2 MSTORE PUSH1 0x20 PUSH1 0x4 DUP3 ADD MSTORE PUSH1 0x23 PUSH1 0x24 DUP3 ADD MSTORE PUSH32 0x526567697374726174696F6E206E756D6265722063616E6E6F7420626520656D PUSH1 0x44 DUP3 ADD MSTORE PUSH3 0x707479 PUSH1 0xE8 SHL PUSH1 0x64 DUP3 ADD MSTORE PUSH1 0x84 SWAP1 REVERT JUMPDEST ISZERO PUSH2 0x194D JUMPI JUMP JUMPDEST PUSH1 0x40 MLOAD PUSH3 0x461BCD PUSH1 0xE5 SHL DUP2 MSTORE PUSH1 0x20 PUSH1 0x4 DUP3 ADD MSTORE PUSH1 0x19 PUSH1 0x24 DUP3 ADD MSTORE PUSH32 0x46696C65206E616D652063616E6E6F7420626520656D70747900000000000000 PUSH1 0x44 DUP3 ADD MSTORE PUSH1 0x64 SWAP1 REVERT JUMPDEST ISZERO PUSH2 0x1999 JUMPI JUMP JUMPDEST PUSH1 0x40 MLOAD PUSH3 0x461BCD PUSH1 0xE5 SHL DUP2 MSTORE PUSH1 0x20 PUSH1 0x4 DUP3 ADD MSTORE PUSH1 0x18 PUSH1 0x24 DUP3 ADD MSTORE PUSH32 0x495046532055524C2063616E6E6F7420626520656D7074790000000000000000 PUSH1 0x44 DUP3 ADD MSTORE PUSH1 0x64 SWAP1 REVERT JUMPDEST ISZERO PUSH2 0x19E5 JUMPI JUMP JUMPDEST PUSH1 0x40 MLOAD PUSH3 0x461BCD PUSH1 0xE5 SHL DUP2 MSTORE PUSH1 0x20 PUSH1 0x4 DUP3 ADD MSTORE PUSH1 0x18 PUSH1 0x24 DUP3 ADD MSTORE PUSH32 0x49504653204349442063616E6E6F7420626520656D7074790000000000000000 PUSH1 0x44 DUP3 ADD MSTORE PUSH1 0x64 SWAP1 REVERT JUMPDEST SWAP2 SWAP1 SWAP2 DUP3 MLOAD PUSH1 0x1 PUSH1 0x1 PUSH1 0x40 SHL SUB DUP2 GT PUSH2 0xEAD JUMPI PUSH2 0x1A47 DUP3 SLOAD PUSH2 0x1674 JUMP JUMPDEST PUSH1 0x1F DUP2 GT PUSH2 0x1AF1 JUMPI JUMPDEST POP PUSH1 0x20 DUP1 PUSH1 0x1F DUP4 GT PUSH1 0x1 EQ PUSH2 0x1A8D JUMPI POP DUP2 SWAP3 SWAP4 SWAP5 PUSH1 0x0 SWAP3 PUSH2 0x1A82 JUMPI JUMPDEST POP POP DUP2 PUSH1 0x1 SHL SWAP2 PUSH1 0x0 NOT SWAP1 PUSH1 0x3 SHL SHR NOT AND OR SWAP1 SSTORE JUMP JUMPDEST ADD MLOAD SWAP1 POP CODESIZE DUP1 PUSH2 0x1A6C JUMP JUMPDEST SWAP1 PUSH1 0x1F NOT DUP4 AND SWAP6 DUP5 PUSH1 0x0 MSTORE DUP3 PUSH1 0x0 KECCAK256 SWAP3 PUSH1 0x0 SWAP1 JUMPDEST DUP9 DUP3 LT PUSH2 0x1AD9 JUMPI POP POP DUP4 PUSH1 0x1 SWAP6 SWAP7 SWAP8 LT PUSH2 0x1AC0 JUMPI JUMPDEST POP POP POP DUP2 SHL ADD SWAP1 SSTORE JUMP JUMPDEST ADD MLOAD PUSH1 0x0 NOT PUSH1 0xF8 DUP5 PUSH1 0x3 SHL AND SHR NOT AND SWAP1 SSTORE CODESIZE DUP1 DUP1 PUSH2 0x1AB6 JUMP JUMPDEST DUP1 PUSH1 0x1 DUP6 SWAP7 DUP3 SWAP5 SWAP7 DUP7 ADD MLOAD DUP2 SSTORE ADD SWAP6 ADD SWAP4 ADD SWAP1 PUSH2 0x1AA1 JUMP JUMPDEST PUSH1 0x0 DUP4 DUP2 MSTORE PUSH1 0x20 DUP2 KECCAK256 PUSH1 0x1F DUP5 ADD PUSH1 0x5 SHR DUP2 ADD SWAP3 PUSH1 0x20 DUP6 LT PUSH2 0x1B2F JUMPI JUMPDEST PUSH1 0x1F ADD PUSH1 0x5 SHR ADD SWAP2 JUMPDEST DUP3 DUP2 LT PUSH2 0x1B24 JUMPI POP POP PUSH2 0x1A50 JUMP JUMPDEST DUP2 DUP2 SSTORE PUSH1 0x1 ADD PUSH2 0x1B16 JUMP JUMPDEST SWAP1 SWAP3 POP DUP3 SWAP1 PUSH2 0x1B0D JUMP JUMPDEST PUSH1 0x2 SLOAD SWAP1 PUSH1 0x1 PUSH1 0x40 SHL DUP3 LT ISZERO PUSH2 0xEAD JUMPI PUSH1 0x1 DUP3 ADD DUP1 PUSH1 0x2 SSTORE DUP3 LT ISZERO PUSH2 0x165E JUMPI PUSH2 0x16EC SWAP2 PUSH1 0x2 PUSH1 0x0 MSTORE PUSH32 0x405787FA12A823E0F2B7631CC41B3BA8828B3321CA811111FA75CD3AA3BB5ACE ADD PUSH2 0x1A2A JUMP JUMPDEST DUP1 SLOAD PUSH1 0x1 PUSH1 0x40 SHL DUP2 LT ISZERO PUSH2 0xEAD JUMPI PUSH2 0x1BA5 SWAP2 PUSH1 0x1 DUP3 ADD DUP2 SSTORE PUSH2 0x1646 JUMP JUMPDEST SWAP2 SWAP1 SWAP2 PUSH2 0x14CD JUMPI PUSH2 0x16EC SWAP2 PUSH2 0x1A2A JUMP JUMPDEST PUSH2 0x1BCD SWAP1 PUSH1 0x20 PUSH1 0x40 MLOAD SWAP3 DUP3 DUP5 DUP1 SWAP5 MLOAD SWAP4 DUP5 SWAP3 ADD PUSH2 0x1754 JUMP JUMPDEST DUP2 ADD SUB SWAP1 KECCAK256 SWAP1 JUMP JUMPDEST SWAP4 SWAP3 SWAP2 PUSH2 0x1BFE SWAP1 PUSH2 0x1BF0 PUSH1 0x40 SWAP4 PUSH1 0x60 DUP9 MSTORE PUSH1 0x60 DUP9 ADD SWAP1 PUSH2 0x1777 JUMP JUMPDEST SWAP1 DUP7 DUP3 SUB PUSH1 0x20 DUP9 ADD MSTORE PUSH2 0x1777 JUMP JUMPDEST SWAP4 ADD MSTORE JUMP JUMPDEST PUSH1 0x40 MLOAD SWAP1 PUSH2 0x1C10 DUP3 PUSH2 0x1598 JUMP JUMPDEST DUP2 PUSH2 0x180 PUSH1 0x60 SWAP2 DUP3 DUP2 MSTORE DUP3 PUSH1 0x20 DUP3 ADD MSTORE DUP3 PUSH1 0x40 DUP3 ADD MSTORE DUP3 DUP1 DUP3 ADD MSTORE DUP3 PUSH1 0x80 DUP3 ADD MSTORE DUP3 PUSH1 0xA0 DUP3 ADD MSTORE PUSH1 0x0 PUSH1 0xC0 DUP3 ADD MSTORE PUSH1 0x0 PUSH1 0xE0 DUP3 ADD MSTORE PUSH1 0x0 PUSH2 0x100 DUP3 ADD MSTORE PUSH1 0x0 PUSH2 0x120 DUP3 ADD MSTORE DUP3 PUSH2 0x140 DUP3 ADD MSTORE PUSH1 0x0 PUSH2 0x160 DUP3 ADD MSTORE ADD MSTORE JUMP JUMPDEST ISZERO PUSH2 0x1C6F JUMPI JUMP JUMPDEST PUSH1 0x40 MLOAD PUSH3 0x461BCD PUSH1 0xE5 SHL DUP2 MSTORE PUSH1 0x20 PUSH1 0x4 DUP3 ADD MSTORE PUSH1 0x1A PUSH1 0x24 DUP3 ADD MSTORE PUSH32 0x436572746966696361746520646F6573206E6F74206578697374000000000000 PUSH1 0x44 DUP3 ADD MSTORE PUSH1 0x64 SWAP1 REVERT INVALID LOG2 PUSH5 0x6970667358 0x22 SLT KECCAK256 0xDE SWAP11 PUSH29 0x3850D31D13425361838EB56A1BF8993F866631F3BB0BDEF3E269D41871 PUSH5 0x736F6C6343 STOP ADDMOD EQ STOP CALLER "},"methodIdentifiers":{"allCertificateHashes(uint256)":"149ae6dd","certificateExists(string)":"0655f037","certificates(string)":"8f2b91ea","getCertificate(string)":"ed0f2e75","getRevocationStatus(string)":"aa54bf94","getTotalCertificates()":"7843bb79","getUniversityCertificates(address)":"7ea4ad59","isValidCertificate(string)":"b5164b38","registerCertificate(string,string,string,string,string,string)":"d3b229b3","replaceCertificate(string,string,string,string,string,string,string,string)":"57a83785","revokeCertificate(string,string)":"bc4f5bad","universityCertificates(address,uint256)":"3d6af387","verifyCertificate(string)":"8b23d875"}}}}}