{"contracts/UniversityRegistrySepolia.sol":{"UniversityRegistrySepolia":{"abi":[{"inputs":[],"stateMutability":"nonpayable","type":"constructor"},{"anonymous":false,"inputs":[{"indexed":true,"internalType":"address","name":"walletAddress","type":"address"},{"indexed":false,"internalType":"uint256","name":"newCount","type":"uint256"}],"name":"CertificateCountIncremented","type":"event"},{"anonymous":false,"inputs":[{"indexed":true,"internalType":"address","name":"walletAddress","type":"address"},{"indexed":false,"internalType":"uint256","name":"timestamp","type":"uint256"}],"name":"UniversityActivated","type":"event"},{"anonymous":false,"inputs":[{"indexed":true,"internalType":"address","name":"walletAddress","type":"address"},{"indexed":false,"internalType":"uint256","name":"timestamp","type":"uint256"}],"name":"UniversityDeactivated","type":"event"},{"anonymous":false,"inputs":[{"indexed":true,"internalType":"address","name":"walletAddress","type":"address"},{"indexed":false,"internalType":"string","name":"name","type":"string"},{"indexed":false,"internalType":"string","name":"email","type":"string"},{"indexed":false,"internalType":"string","name":"username","type":"string"},{"indexed":false,"internalType":"uint256","name":"timestamp","type":"uint256"}],"name":"UniversityRegistered","type":"event"},{"anonymous":false,"inputs":[{"indexed":true,"internalType":"address","name":"walletAddress","type":"address"},{"indexed":false,"internalType":"string","name":"newStatus","type":"string"},{"indexed":false,"internalType":"uint256","name":"timestamp","type":"uint256"}],"name":"UniversityStatusChanged","type":"event"},{"anonymous":false,"inputs":[{"indexed":true,"internalType":"address","name":"walletAddress","type":"address"},{"indexed":false,"internalType":"string","name":"name","type":"string"},{"indexed":false,"internalType":"uint256","name":"timestamp","type":"uint256"}],"name":"UniversityUpdated","type":"event"},{"inputs":[{"internalType":"address","name":"_walletAddress","type":"address"}],"name":"activateUniversity","outputs":[{"internalType":"bool","name":"","type":"bool"}],"stateMutability":"nonpayable","type":"function"},{"inputs":[],"name":"admin","outputs":[{"internalType":"address","name":"","type":"address"}],"stateMutability":"view","type":"function"},{"inputs":[{"internalType":"string[]","name":"_names","type":"string[]"},{"internalType":"string[]","name":"_usernames","type":"string[]"},{"internalType":"string[]","name":"_emails","type":"string[]"},{"internalType":"address[]","name":"_walletAddresses","type":"address[]"},{"internalType":"string[]","name":"_statuses","type":"string[]"}],"name":"batchRegisterUniversities","outputs":[{"internalType":"uint256","name":"","type":"uint256"}],"stateMutability":"nonpayable","type":"function"},{"inputs":[{"internalType":"address","name":"_walletAddress","type":"address"},{"internalType":"string","name":"_status","type":"string"}],"name":"changeUniversityStatus","outputs":[{"internalType":"bool","name":"","type":"bool"}],"stateMutability":"nonpayable","type":"function"},{"inputs":[{"internalType":"address","name":"_walletAddress","type":"address"}],"name":"deactivateUniversity","outputs":[{"internalType":"bool","name":"","type":"bool"}],"stateMutability":"nonpayable","type":"function"},{"inputs":[{"internalType":"string","name":"","type":"string"}],"name":"emailExists","outputs":[{"internalType":"bool","name":"","type":"bool"}],"stateMutability":"view","type":"function"},{"inputs":[],"name":"getAllUniversityAddresses","outputs":[{"internalType":"address[]","name":"","type":"address[]"}],"stateMutability":"view","type":"function"},{"inputs":[],"name":"getTotalUniversities","outputs":[{"internalType":"uint256","name":"","type":"uint256"}],"stateMutability":"view","type":"function"},{"inputs":[{"internalType":"address","name":"_walletAddress","type":"address"}],"name":"getUniversity","outputs":[{"components":[{"internalType":"string","name":"name","type":"string"},{"internalType":"string","name":"username","type":"string"},{"internalType":"string","name":"email","type":"string"},{"internalType":"address","name":"walletAddress","type":"address"},{"internalType":"uint256","name":"registrationTimestamp","type":"uint256"},{"internalType":"bool","name":"isRegistered","type":"bool"},{"internalType":"bool","name":"isActive","type":"bool"},{"internalType":"uint256","name":"certificatesIssued","type":"uint256"},{"internalType":"string","name":"status","type":"string"}],"internalType":"struct UniversityRegistrySepolia.University","name":"","type":"tuple"}],"stateMutability":"view","type":"function"},{"inputs":[{"internalType":"uint256","name":"_index","type":"uint256"}],"name":"getUniversityByIndex","outputs":[{"components":[{"internalType":"string","name":"name","type":"string"},{"internalType":"string","name":"username","type":"string"},{"internalType":"string","name":"email","type":"string"},{"internalType":"address","name":"walletAddress","type":"address"},{"internalType":"uint256","name":"registrationTimestamp","type":"uint256"},{"internalType":"bool","name":"isRegistered","type":"bool"},{"internalType":"bool","name":"isActive","type":"bool"},{"internalType":"uint256","name":"certificatesIssued","type":"uint256"},{"internalType":"string","name":"status","type":"string"}],"internalType":"struct UniversityRegistrySepolia.University","name":"","type":"tuple"}],"stateMutability":"view","type":"function"},{"inputs":[{"internalType":"address","name":"_walletAddress","type":"address"}],"name":"incrementCertificateCount","outputs":[{"internalType":"bool","name":"","type":"bool"}],"stateMutability":"nonpayable","type":"function"},{"inputs":[{"internalType":"string","name":"_email","type":"string"}],"name":"isEmailRegistered","outputs":[{"internalType":"bool","name":"","type":"bool"}],"stateMutability":"view","type":"function"},{"inputs":[{"internalType":"address","name":"_walletAddress","type":"address"}],"name":"isUniversityActive","outputs":[{"internalType":"bool","name":"","type":"bool"}],"stateMutability":"view","type":"function"},{"inputs":[{"internalType":"address","name":"_walletAddress","type":"address"}],"name":"isUniversityRegistered","outputs":[{"internalType":"bool","name":"","type":"bool"}],"stateMutability":"view","type":"function"},{"inputs":[{"internalType":"string","name":"_username","type":"string"}],"name":"isUsernameTaken","outputs":[{"internalType":"bool","name":"","type":"bool"}],"stateMutability":"view","type":"function"},{"inputs":[{"internalType":"string","name":"_name","type":"string"},{"internalType":"string","name":"_username","type":"string"},{"internalType":"string","name":"_email","type":"string"},{"internalType":"address","name":"_walletAddress","type":"address"},{"internalType":"string","name":"_status","type":"string"}],"name":"registerUniversity","outputs":[{"internalType":"bool","name":"","type":"bool"}],"stateMutability":"nonpayable","type":"function"},{"inputs":[],"name":"totalUniversities","outputs":[{"internalType":"uint256","name":"","type":"uint256"}],"stateMutability":"view","type":"function"},{"inputs":[{"internalType":"address","name":"_newAdmin","type":"address"}],"name":"transferAdmin","outputs":[],"stateMutability":"nonpayable","type":"function"},{"inputs":[{"internalType":"address","name":"","type":"address"}],"name":"universities","outputs":[{"internalType":"string","name":"name","type":"string"},{"internalType":"string","name":"username","type":"string"},{"internalType":"string","name":"email","type":"string"},{"internalType":"address","name":"walletAddress","type":"address"},{"internalType":"uint256","name":"registrationTimestamp","type":"uint256"},{"internalType":"bool","name":"isRegistered","type":"bool"},{"internalType":"bool","name":"isActive","type":"bool"},{"internalType":"uint256","name":"certificatesIssued","type":"uint256"},{"internalType":"string","name":"status","type":"string"}],"stateMutability":"view","type":"function"},{"inputs":[{"internalType":"uint256","name":"","type":"uint256"}],"name":"universityAddresses","outputs":[{"internalType":"address","name":"","type":"address"}],"stateMutability":"view","type":"function"},{"inputs":[{"internalType":"address","name":"_walletAddress","type":"address"},{"internalType":"string","name":"_name","type":"string"}],"name":"updateUniversityName","outputs":[{"internalType":"bool","name":"","type":"bool"}],"stateMutability":"nonpayable","type":"function"},{"inputs":[{"internalType":"string","name":"","type":"string"}],"name":"usernameExists","outputs":[{"internalType":"bool","name":"","type":"bool"}],"stateMutability":"view","type":"function"}],"evm":{"bytecode":{"linkReferences":{},"object":"6080806040523461002857600480546001600160a01b0319163317905561244e908161002e8239f35b600080fdfe6080604052600436101561001257600080fd5b60003560e01c8063057ac9c814611d9f578063176c5919146103545780632be46c3c1461053b57806334ed269414611d5d57806342e2dbda14611d3f5780635216f3c414611d3f57806353d53a3a146114905780635d8d3d4514610b635780635feb9ee2146109cd57806368a1692e146107e057806375829def1461075e57806394a59ea6146106f1578063b9b3bb3614610629578063ba3c6a0814610589578063df3cdad71461053b578063e0aad414146104f9578063f09955601461040e578063f291c3e0146103b5578063f309e3f914610354578063f466fe131461025f578063f851a440146102365763fe48ca3f1461010e57600080fd5b346102315760203660031901126102315760043561012a6123d0565b506003548110156101f6576101416101f291611f5b565b9060018060a01b03918291549060031b1c1660005260006020526101e0600760406000206040519361017285611e59565b61017b8261218a565b85526101896001830161218a565b602086015261019a6002830161218a565b604086015260038201541660608501526004810154608085015260ff6005820154818116151560a087015260081c16151560c0850152600681015460e08501520161218a565b610100820152604051918291826120a6565b0390f35b60405162461bcd60e51b8152602060048201526013602482015272496e646578206f7574206f6620626f756e647360681b6044820152606490fd5b600080fd5b34610231576000366003190112610231576004546040516001600160a01b039091168152602090f35b3461023157602080600319360112610231576001600160a01b0380610282611e43565b169081600052600083526102a060ff60056040600020015416612384565b813314908115610346575b501561031057806000526000825260066040600020016102cb815461230c565b905580600052600082527fd3a5f69326ec2a618b432330b63b78a5776ac811b1c9e75b10d33a8fbed1d74e82600660406000200154604051908152a260405160018152f35b60405162461bcd60e51b815260048101839052600e60248201526d139bdd08185d5d1a1bdc9a5e995960921b6044820152606490fd5b9050600454163314836102ab565b34610231576020366003190112610231576004356001600160401b0381116102315760ff61039f602061038c81943690600401611e96565b8160405193828580945193849201611eec565b8101600281520301902054166040519015158152f35b34610231576020366003190112610231576001600160a01b036103d6611e43565b166000526000602052602060056040600020015460ff81169081610400575b506040519015158152f35b60ff915060081c16826103f5565b34610231576020366003190112610231576104aa6001600160a01b0380610433611e43565b1660005260006020526101f260406000209161044e8361218a565b9261045b6001820161218a565b9060ff61046a6002830161218a565b936003830154169360048301546104c66005850154926104b861049460076006890154980161218a565b976040519c8d9c8d610120908181520190612081565b8c810360208e015290612081565b908a820360408c0152612081565b9560608901526080880152818116151560a088015260081c16151560c086015260e0850152838203610100850152612081565b34610231576020366003190112610231576001600160a01b0361051a611e43565b166000526000602052602060ff600560406000200154166040519015158152f35b34610231576020366003190112610231576004356001600160401b0381116102315760ff610573602061038c81943690600401611e96565b8101600181520301902054166040519015158152f35b34610231576020366003190112610231576105a2611e43565b6004546001600160a01b0391906105bc9083163314612230565b168060005260006020526105da60ff60056040600020015416612384565b806000526000602052600560406000200161ff001981541690557fe11bb286ba108eb990fcbf07e4231247811a168c5a1f3a05efc9ddae4dc94e226020604051428152a2602060405160018152f35b3461023157600036600319011261023157604051806003548083526020809301809160036000527fc2575a0e9e593c00f959f8c92f12db2869c3395a3b0502d05e2516446f71f85b9060005b868282106106d457868661068b82880383611e75565b604051928392818401908285525180915260408401929160005b8281106106b457505050500390f35b83516001600160a01b0316855286955093810193928101926001016106a5565b83546001600160a01b031685529093019260019283019201610675565b34610231576020366003190112610231576101f261070d611e43565b6107156123d0565b506001600160a01b0390811660008181526020819052604090206005015461073f9060ff16612384565b60005260006020526101e0600760406000206040519361017285611e59565b3461023157602036600319011261023157610777611e43565b600454906001600160a01b03906107913383851614612230565b169081156107a9576001600160a01b03191617600455005b60405162461bcd60e51b815260206004820152600f60248201526e496e76616c6964206164647265737360881b6044820152606490fd5b34610231576107ee3661203f565b60045490916001600160a01b03916108099083163314612230565b16806000526020916000835261082960ff60056040600020015416612384565b61083581511515612287565b8160005260008352604060002081516001600160401b0381116109b75761085c8254612150565b601f8111610971575b5084601f82116001146108e75791817f4e2f4332f1d9bd6107a5fcbbd43a6a5eaa1edbd011782ed56e198aaca2e5dda994926108cb946000916108dc575b508160011b916000199060031b1c19161790555b604051918291604083526040830190612081565b42868301520390a260405160018152f35b9050830151886108a3565b601f1982169083600052866000209160005b8882821061095b575050926108cb9492600192827f4e2f4332f1d9bd6107a5fcbbd43a6a5eaa1edbd011782ed56e198aaca2e5dda9989610610942575b5050811b0190556108b7565b85015160001960f88460031b161c191690558880610936565b600184958293958a0151815501940192016108f9565b8260005285600020601f830160051c8101918784106109ad575b601f0160051c01905b8181106109a15750610865565b60008155600101610994565b909150819061098b565b634e487b7160e01b600052604160045260246000fd5b34610231576109db3661203f565b60045490916001600160a01b03916109f69083163314612230565b168060005260209160008352610a1660ff60056040600020015416612384565b8160005260008352600760406000200181516001600160401b0381116109b757610a408254612150565b601f8111610b1d575b5084601f8211600114610aad5791817f0a7275c9afb601e81c5f14059c95a2642f0b8c9155b709e23077d474efd9788494926108cb946000916108dc57508160011b916000199060031b1c1916179055604051918291604083526040830190612081565b601f1982169083600052866000209160005b88828210610b07575050926108cb9492600192827f0a7275c9afb601e81c5f14059c95a2642f0b8c9155b709e23077d474efd97884989610610942575050811b0190556108b7565b600184958293958a015181550194019201610abf565b8260005285600020601f830160051c810191878410610b59575b601f0160051c01905b818110610b4d5750610a49565b60008155600101610b40565b9091508190610b37565b346102315760a0366003190112610231576004356001600160401b03811161023157610b93903690600401611e96565b6024356001600160401b03811161023157610bb2903690600401611e96565b906044356001600160401b03811161023157610bd2903690600401611e96565b906064356001600160a01b0381169003610231576084356001600160401b03811161023157610c05903690600401611e96565b92610c1b60018060a01b03600454163314612230565b6064356001600160a01b031660009081526020819052604090206005015460ff1661144b57610c4c82511515612287565b805115611406578251156113c9576064356001600160a01b03161561138b5760ff6040516020818651610c828183858b01611eec565b60018183015281010301902054166113465760ff6040516020818451610cab8183858901611eec565b8101600281520301902054166113085760405193610cc885611e59565b82855281602086015283604086015260018060a01b03606435166060860152426080860152600160a0860152600160c0860152600060e086015261010085015260018060a01b0360643516600052600060205260406000209380518051906001600160401b0382116109b7578190610d408854612150565b601f81116112b8575b50602090601f831160011461124c57600092611241575b50508160011b916000199060031b1c19161785555b60208101518051906001600160401b0382116109b7578190610d9a6001890154612150565b601f81116111ee575b50602090601f831160011461117c57600092611171575b50508160011b916000199060031b1c19161760018601555b60408101518051906001600160401b0382116109b757610df56002880154612150565b601f811161112a575b50602090601f83116001146110b657610100939291600091836110ab575b50508160011b916000199060031b1c19161760028701555b6003860160018060a01b036060830151166bffffffffffffffffffffffff60a01b82541617905560808101516004870155610ea360058701610e8860a08401511515829060ff801983541691151516179055565b60c0830151815461ff00191690151560081b61ff0016179055565b60e081015160068701550151938451946001600160401b0386116109b757610ece6007830154612150565b601f8111611064575b50602090601f8711600114610fd25795806007927f71746edc8b9676283675a19a6753778bd1fc4978ae4c8a92cd1151ba1422d19d9798600092610fc7575b50508160011b916000199060031b1c1916179101555b6040516020818651610f418183858b01611eec565b8101600181520301902060ff199060018282541617905560016040516020818551610f6f8183858a01611eec565b8101600281520301902091825416179055610f8b6064356122ca565b610f9660055461230c565b6005556040516064356001600160a01b03169490928392610fb992429285612331565b0390a2602060405160018152f35b015190508880610f16565b906007830160005260206000209160005b601f198916811061104c5750966007926001927f71746edc8b9676283675a19a6753778bd1fc4978ae4c8a92cd1151ba1422d19d989983601f19811610611033575b505050811b01910155610f2c565b015160001960f88460031b161c19169055888080611025565b91926020600181928685015181550194019201610fe3565b600783016000526020600020601f880160051c8101602089106110a4575b601f830160051c82018110611098575050610ed7565b60008155600101611082565b5080611082565b015190508880610e1c565b906002880160005260206000209160005b601f198516811061111257509183916001936101009695601f198116106110f9575b505050811b016002870155610e34565b015160001960f88460031b161c191690558880806110e9565b919260206001819286850151815501940192016110c7565b600288016000526020600020601f840160051c81016020851061116a575b601f830160051c8201811061115e575050610dfe565b60008155600101611148565b5080611148565b015190508780610dba565b9250600188016000526020600020906000935b601f19841685106111d3576001945083601f198116106111ba575b505050811b016001860155610dd2565b015160001960f88460031b161c191690558780806111aa565b8181015183556020948501946001909301929091019061118f565b909150600188016000526020600020601f840160051c81016020851061123a575b90849392915b601f830160051c8201811061122b575050610da3565b60008155859450600101611215565b508061120f565b015190508780610d60565b9250876000526020600020906000935b601f198416851061129d576001945083601f19811610611284575b505050811b018555610d75565b015160001960f88460031b161c19169055878080611277565b8181015183556020948501946001909301929091019061125c565b909150876000526020600020601f840160051c810160208510611301575b90849392915b601f830160051c820181106112f2575050610d49565b600081558594506001016112dc565b50806112d6565b60405162461bcd60e51b81526020600482015260166024820152752ab9b2b93730b6b29030b63932b0b23c903a30b5b2b760511b6044820152606490fd5b60405162461bcd60e51b815260206004820152601860248201527f456d61696c20616c7265616479207265676973746572656400000000000000006044820152606490fd5b60405162461bcd60e51b8152602060048201526016602482015275496e76616c69642077616c6c6574206164647265737360501b6044820152606490fd5b60405162461bcd60e51b8152602060048201526015602482015274456d61696c2063616e6e6f7420626520656d70747960581b6044820152606490fd5b60405162461bcd60e51b815260206004820152601860248201527f557365726e616d652063616e6e6f7420626520656d70747900000000000000006044820152606490fd5b60405162461bcd60e51b815260206004820152601d60248201527f556e697665727369747920616c726561647920726567697374657265640000006044820152606490fd5b346102315760a0366003190112610231576004356001600160401b038111610231576114c0903690600401611fbf565b6024356001600160401b038111610231576114df903690600401611fbf565b906044356001600160401b038111610231576114ff903690600401611fbf565b90606435916001600160401b038311610231573660238401121561023157826004013561152b81611fa8565b936115396040519586611e75565b8185526024602086019260051b8201019036821161023157602401915b818310611d1f575050506084356001600160401b0381116102315761157f903690600401611fbf565b9261159560018060a01b03600454163314612230565b825185518091149081611d14575b5080611d09575b80611cfe575b15611cb9576000805b8251821015611cae576001600160a01b036115d48385612370565b5116600052600060205260ff60056040600020015416611c8d5760ff6116036115fd8487612370565b51611f0f565b54168015611c97575b611c8d5761161a8286612370565b516116258389612370565b516116308487612370565b516001600160a01b036116438688612370565b511690611650868b612370565b51926040519461165f86611e59565b8552602085015260408401526060830152426080830152600160a0830181905260c0830152600060e08301526101008201526001600160a01b036116a38486612370565b5116600052600060205260406000209080518051906001600160401b0382116109b75781906116d28554612150565b601f8111611c3d575b50602090601f8311600114611bd157600092611bc6575b50508160011b916000199060031b1c19161782555b60208101518051906001600160401b0382116109b757819061172c6001860154612150565b601f8111611b73575b50602090601f8311600114611b0157600092611af6575b50508160011b916000199060031b1c19161760018301555b60408101518051906001600160401b0382116109b7576117876002850154612150565b601f8111611aaf575b50602090601f8311600114611a3b5761010093929160009183611a30575b50508160011b916000199060031b1c19161760028401555b6003830160018060a01b036060830151166bffffffffffffffffffffffff60a01b8254161790556080810151600484015561181a60058401610e8860a08401511515829060ff801983541691151516179055565b60e0810151600684015501518051906001600160401b0382116109b7576118446007840154612150565b601f81116119e9575b50602090601f8311600114611971578261196095936118ee9593600793600092611966575b50508160011b916000199060031b1c1916179101555b6118956115fd8588612370565b60ff199060018282541617905560016118b76118b1878d612370565b51611f35565b80549092161790556118db6001600160a01b036118d48688612370565b51166122ca565b6118e660055461230c565b60055561230c565b916001600160a01b036119018286612370565b51167f71746edc8b9676283675a19a6753778bd1fc4978ae4c8a92cd1151ba1422d19d61192e8389612370565b518a61195861194886611941818d612370565b5193612370565b5192604051938493429285612331565b0390a261230c565b906115b9565b015190508d80611872565b906007840160005260206000209160005b601f19851681106119d15750836118ee95936007936001936119609997601f198116106119b8575b505050811b01910155611888565b015160001960f88460031b161c191690558d80806119aa565b91926020600181928685015181550194019201611982565b600784016000526020600020601f840160051c810160208510611a29575b601f830160051c82018110611a1d57505061184d565b60008155600101611a07565b5080611a07565b015190508c806117ae565b906002850160005260206000209160005b601f1985168110611a9757509183916001936101009695601f19811610611a7e575b505050811b0160028401556117c6565b015160001960f88460031b161c191690558c8080611a6e565b91926020600181928685015181550194019201611a4c565b600285016000526020600020601f840160051c810160208510611aef575b601f830160051c82018110611ae3575050611790565b60008155600101611acd565b5080611acd565b015190508b8061174c565b9250600185016000526020600020906000935b601f1984168510611b58576001945083601f19811610611b3f575b505050811b016001830155611764565b015160001960f88460031b161c191690558b8080611b2f565b81810151835560209485019460019093019290910190611b14565b909150600185016000526020600020601f840160051c810160208510611bbf575b90849392915b601f830160051c82018110611bb0575050611735565b60008155859450600101611b9a565b5080611b94565b015190508b806116f2565b9250846000526020600020906000935b601f1984168510611c22576001945083601f19811610611c09575b505050811b018255611707565b015160001960f88460031b161c191690558b8080611bfc565b81810151835560209485019460019093019290910190611be1565b909150846000526020600020601f840160051c810160208510611c86575b90849392915b601f830160051c82018110611c775750506116db565b60008155859450600101611c61565b5080611c5b565b906119609061230c565b5060ff611ca76118b1848a612370565b541661160c565b602090604051908152f35b60405162461bcd60e51b815260206004820152601860248201527f4172726179206c656e67746873206d757374206d6174636800000000000000006044820152606490fd5b5080518451146115b0565b5081518151146115aa565b9050825114866115a3565b82356001600160a01b038116810361023157815260209283019201611556565b34610231576000366003190112610231576020600554604051908152f35b346102315760203660031901126102315760043560035481101561023157611d86602091611f5b565b905460405160039290921b1c6001600160a01b03168152f35b3461023157602036600319011261023157611db8611e43565b6004546001600160a01b039190611dd29083163314612230565b16806000526000602052611df060ff60056040600020015416612384565b806000526000602052600560406000200161010061ff00198254161790557f35497b4c4b5de106c5a73835869b64c116686f3f1f522434bf555d0a1345447a6020604051428152a2602060405160018152f35b600435906001600160a01b038216820361023157565b61012081019081106001600160401b038211176109b757604052565b90601f801991011681019081106001600160401b038211176109b757604052565b81601f82011215610231578035906001600160401b0382116109b75760405192611eca601f8401601f191660200185611e75565b8284526020838301011161023157816000926020809301838601378301015290565b60005b838110611eff5750506000910152565b8181015183820152602001611eef565b6020611f28918160405193828580945193849201611eec565b8101600181520301902090565b6020611f4e918160405193828580945193849201611eec565b8101600281520301902090565b600354811015611f925760036000527fc2575a0e9e593c00f959f8c92f12db2869c3395a3b0502d05e2516446f71f85b0190600090565b634e487b7160e01b600052603260045260246000fd5b6001600160401b0381116109b75760051b60200190565b9080601f8301121561023157813590611fd782611fa8565b92611fe56040519485611e75565b828452602092838086019160051b8301019280841161023157848301915b8483106120135750505050505090565b82356001600160401b03811161023157869161203484848094890101611e96565b815201920191612003565b906040600319830112610231576004356001600160a01b03811681036102315791602435906001600160401b0382116102315761207e91600401611e96565b90565b9060209161209a81518092818552858086019101611eec565b601f01601f1916010190565b9061207e91602081528151906120ca61012092836020840152610140830190612081565b916120fe6120ea602086015194601f199586868303016040870152612081565b604086015185858303016060860152612081565b9360018060a01b036060820151166080840152608081015160a084015260a0810151151560c084015260c0810151151560e084015260e081015190610100918285015201519282850301910152612081565b90600182811c92168015612180575b602083101461216a57565b634e487b7160e01b600052602260045260246000fd5b91607f169161215f565b906040519182600082549261219e84612150565b90818452600194858116908160001461220d57506001146121ca575b50506121c892500383611e75565b565b9093915060005260209081600020936000915b8183106121f55750506121c8935082010138806121ba565b855488840185015294850194879450918301916121dd565b9150506121c894506020925060ff191682840152151560051b82010138806121ba565b1561223757565b60405162461bcd60e51b815260206004820152602260248201527f4f6e6c792061646d696e2063616e20706572666f726d2074686973206163746960448201526137b760f11b6064820152608490fd5b1561228e57565b60405162461bcd60e51b81526020600482015260146024820152734e616d652063616e6e6f7420626520656d70747960601b6044820152606490fd5b600354680100000000000000008110156109b7578060016122ee9201600355611f5b565b819291549060031b9160018060a01b03809116831b921b1916179055565b600019811461231b5760010190565b634e487b7160e01b600052601160045260246000fd5b94939261235d60609361234f61236b9460808a5260808a0190612081565b9088820360208a0152612081565b908682036040880152612081565b930152565b8051821015611f925760209160051b010190565b1561238b57565b60405162461bcd60e51b815260206004820152601960248201527f556e6976657273697479206e6f742072656769737465726564000000000000006044820152606490fd5b604051906123dd82611e59565b60606101008382815282602082015282604082015260008382015260006080820152600060a0820152600060c0820152600060e0820152015256fea2646970667358221220f0fa8ffdf9cd5ab9c0423f66c4cb905e43df1286443803d4b7d5cf77e8b75c7c64736f6c63430008140033","opcodes":"PUSH1 0x80 DUP1 PUSH1 0x40 MSTORE CALLVALUE PUSH2 0x28 JUMPI PUSH1 0x4 DUP1 SLOAD PUSH1 0x1 PUSH1 0x1 PUSH1 0xA0 SHL SUB NOT AND CALLER OR SWAP1 SSTORE PUSH2 0x244E SWAP1 DUP2 PUSH2 0x2E DUP3 CODECOPY RETURN JUMPDEST PUSH1 0x0 DUP1 REVERT INVALID PUSH1 0x80 PUSH1 0x40 MSTORE PUSH1 0x4 CALLDATASIZE LT ISZERO PUSH2 0x12 JUMPI PUSH1 0x0 DUP1 REVERT JUMPDEST PUSH1 0x0 CALLDATALOAD PUSH1 0xE0 SHR DUP1 PUSH4 0x57AC9C8 EQ PUSH2 0x1D9F JUMPI DUP1 PUSH4 0x176C5919 EQ PUSH2 0x354 JUMPI DUP1 PUSH4 0x2BE46C3C EQ PUSH2 0x53B JUMPI DUP1 PUSH4 0x34ED2694 EQ PUSH2 0x1D5D JUMPI DUP1 PUSH4 0x42E2DBDA EQ PUSH2 0x1D3F JUMPI DUP1 PUSH4 0x5216F3C4 EQ PUSH2 0x1D3F JUMPI DUP1 PUSH4 0x53D53A3A EQ PUSH2 0x1490 JUMPI DUP1 PUSH4 0x5D8D3D45 EQ PUSH2 0xB63 JUMPI DUP1 PUSH4 0x5FEB9EE2 EQ PUSH2 0x9CD JUMPI DUP1 PUSH4 0x68A1692E EQ PUSH2 0x7E0 JUMPI DUP1 PUSH4 0x75829DEF EQ PUSH2 0x75E JUMPI DUP1 PUSH4 0x94A59EA6 EQ PUSH2 0x6F1 JUMPI DUP1 PUSH4 0xB9B3BB36 EQ PUSH2 0x629 JUMPI DUP1 PUSH4 0xBA3C6A08 EQ PUSH2 0x589 JUMPI DUP1 PUSH4 0xDF3CDAD7 EQ PUSH2 0x53B JUMPI DUP1 PUSH4 0xE0AAD414 EQ PUSH2 0x4F9 JUMPI DUP1 PUSH4 0xF0995560 EQ PUSH2 0x40E JUMPI DUP1 PUSH4 0xF291C3E0 EQ PUSH2 0x3B5 JUMPI DUP1 PUSH4 0xF309E3F9 EQ PUSH2 0x354 JUMPI DUP1 PUSH4 0xF466FE13 EQ PUSH2 0x25F JUMPI DUP1 PUSH4 0xF851A440 EQ PUSH2 0x236 JUMPI PUSH4 0xFE48CA3F EQ PUSH2 0x10E JUMPI PUSH1 0x0 DUP1 REVERT JUMPDEST CALLVALUE PUSH2 0x231 JUMPI PUSH1 0x20 CALLDATASIZE PUSH1 0x3 NOT ADD SLT PUSH2 0x231 JUMPI PUSH1 0x4 CALLDATALOAD PUSH2 0x12A PUSH2 0x23D0 JUMP JUMPDEST POP PUSH1 0x3 SLOAD DUP2 LT ISZERO PUSH2 0x1F6 JUMPI PUSH2 0x141 PUSH2 0x1F2 SWAP2 PUSH2 0x1F5B JUMP JUMPDEST SWAP1 PUSH1 0x1 DUP1 PUSH1 0xA0 SHL SUB SWAP2 DUP3 SWAP2 SLOAD SWAP1 PUSH1 0x3 SHL SHR AND PUSH1 0x0 MSTORE PUSH1 0x0 PUSH1 0x20 MSTORE PUSH2 0x1E0 PUSH1 0x7 PUSH1 0x40 PUSH1 0x0 KECCAK256 PUSH1 0x40 MLOAD SWAP4 PUSH2 0x172 DUP6 PUSH2 0x1E59 JUMP JUMPDEST PUSH2 0x17B DUP3 PUSH2 0x218A JUMP JUMPDEST DUP6 MSTORE PUSH2 0x189 PUSH1 0x1 DUP4 ADD PUSH2 0x218A JUMP JUMPDEST PUSH1 0x20 DUP7 ADD MSTORE PUSH2 0x19A PUSH1 0x2 DUP4 ADD PUSH2 0x218A JUMP JUMPDEST PUSH1 0x40 DUP7 ADD MSTORE PUSH1 0x3 DUP3 ADD SLOAD AND PUSH1 0x60 DUP6 ADD MSTORE PUSH1 0x4 DUP2 ADD SLOAD PUSH1 0x80 DUP6 ADD MSTORE PUSH1 0xFF PUSH1 0x5 DUP3 ADD SLOAD DUP2 DUP2 AND ISZERO ISZERO PUSH1 0xA0 DUP8 ADD MSTORE PUSH1 0x8 SHR AND ISZERO ISZERO PUSH1 0xC0 DUP6 ADD MSTORE PUSH1 0x6 DUP2 ADD SLOAD PUSH1 0xE0 DUP6 ADD MSTORE ADD PUSH2 0x218A JUMP JUMPDEST PUSH2 0x100 DUP3 ADD MSTORE PUSH1 0x40 MLOAD SWAP2 DUP3 SWAP2 DUP3 PUSH2 0x20A6 JUMP JUMPDEST SUB SWAP1 RETURN JUMPDEST PUSH1 0x40 MLOAD PUSH3 0x461BCD PUSH1 0xE5 SHL DUP2 MSTORE PUSH1 0x20 PUSH1 0x4 DUP3 ADD MSTORE PUSH1 0x13 PUSH1 0x24 DUP3 ADD MSTORE PUSH19 0x496E646578206F7574206F6620626F756E6473 PUSH1 0x68 SHL PUSH1 0x44 DUP3 ADD MSTORE PUSH1 0x64 SWAP1 REVERT JUMPDEST PUSH1 0x0 DUP1 REVERT JUMPDEST CALLVALUE PUSH2 0x231 JUMPI PUSH1 0x0 CALLDATASIZE PUSH1 0x3 NOT ADD SLT PUSH2 0x231 JUMPI PUSH1 0x4 SLOAD PUSH1 0x40 MLOAD PUSH1 0x1 PUSH1 0x1 PUSH1 0xA0 SHL SUB SWAP1 SWAP2 AND DUP2 MSTORE PUSH1 0x20 SWAP1 RETURN JUMPDEST CALLVALUE PUSH2 0x231 JUMPI PUSH1 0x20 DUP1 PUSH1 0x3 NOT CALLDATASIZE ADD SLT PUSH2 0x231 JUMPI PUSH1 0x1 PUSH1 0x1 PUSH1 0xA0 SHL SUB DUP1 PUSH2 0x282 PUSH2 0x1E43 JUMP JUMPDEST AND SWAP1 DUP2 PUSH1 0x0 MSTORE PUSH1 0x0 DUP4 MSTORE PUSH2 0x2A0 PUSH1 0xFF PUSH1 0x5 PUSH1 0x40 PUSH1 0x0 KECCAK256 ADD SLOAD AND PUSH2 0x2384 JUMP JUMPDEST DUP2 CALLER EQ SWAP1 DUP2 ISZERO PUSH2 0x346 JUMPI JUMPDEST POP ISZERO PUSH2 0x310 JUMPI DUP1 PUSH1 0x0 MSTORE PUSH1 0x0 DUP3 MSTORE PUSH1 0x6 PUSH1 0x40 PUSH1 0x0 KECCAK256 ADD PUSH2 0x2CB DUP2 SLOAD PUSH2 0x230C JUMP JUMPDEST SWAP1 SSTORE DUP1 PUSH1 0x0 MSTORE PUSH1 0x0 DUP3 MSTORE PUSH32 0xD3A5F69326EC2A618B432330B63B78A5776AC811B1C9E75B10D33A8FBED1D74E DUP3 PUSH1 0x6 PUSH1 0x40 PUSH1 0x0 KECCAK256 ADD SLOAD PUSH1 0x40 MLOAD SWAP1 DUP2 MSTORE LOG2 PUSH1 0x40 MLOAD PUSH1 0x1 DUP2 MSTORE RETURN JUMPDEST PUSH1 0x40 MLOAD PUSH3 0x461BCD PUSH1 0xE5 SHL DUP2 MSTORE PUSH1 0x4 DUP2 ADD DUP4 SWAP1 MSTORE PUSH1 0xE PUSH1 0x24 DUP3 ADD MSTORE PUSH14 0x139BDD08185D5D1A1BDC9A5E9959 PUSH1 0x92 SHL PUSH1 0x44 DUP3 ADD MSTORE PUSH1 0x64 SWAP1 REVERT JUMPDEST SWAP1 POP PUSH1 0x4 SLOAD AND CALLER EQ DUP4 PUSH2 0x2AB JUMP JUMPDEST CALLVALUE PUSH2 0x231 JUMPI PUSH1 0x20 CALLDATASIZE PUSH1 0x3 NOT ADD SLT PUSH2 0x231 JUMPI PUSH1 0x4 CALLDATALOAD PUSH1 0x1 PUSH1 0x1 PUSH1 0x40 SHL SUB DUP2 GT PUSH2 0x231 JUMPI PUSH1 0xFF PUSH2 0x39F PUSH1 0x20 PUSH2 0x38C DUP2 SWAP5 CALLDATASIZE SWAP1 PUSH1 0x4 ADD PUSH2 0x1E96 JUMP JUMPDEST DUP2 PUSH1 0x40 MLOAD SWAP4 DUP3 DUP6 DUP1 SWAP5 MLOAD SWAP4 DUP5 SWAP3 ADD PUSH2 0x1EEC JUMP JUMPDEST DUP2 ADD PUSH1 0x2 DUP2 MSTORE SUB ADD SWAP1 KECCAK256 SLOAD AND PUSH1 0x40 MLOAD SWAP1 ISZERO ISZERO DUP2 MSTORE RETURN JUMPDEST CALLVALUE PUSH2 0x231 JUMPI PUSH1 0x20 CALLDATASIZE PUSH1 0x3 NOT ADD SLT PUSH2 0x231 JUMPI PUSH1 0x1 PUSH1 0x1 PUSH1 0xA0 SHL SUB PUSH2 0x3D6 PUSH2 0x1E43 JUMP JUMPDEST AND PUSH1 0x0 MSTORE PUSH1 0x0 PUSH1 0x20 MSTORE PUSH1 0x20 PUSH1 0x5 PUSH1 0x40 PUSH1 0x0 KECCAK256 ADD SLOAD PUSH1 0xFF DUP2 AND SWAP1 DUP2 PUSH2 0x400 JUMPI JUMPDEST POP PUSH1 0x40 MLOAD SWAP1 ISZERO ISZERO DUP2 MSTORE RETURN JUMPDEST PUSH1 0xFF SWAP2 POP PUSH1 0x8 SHR AND DUP3 PUSH2 0x3F5 JUMP JUMPDEST CALLVALUE PUSH2 0x231 JUMPI PUSH1 0x20 CALLDATASIZE PUSH1 0x3 NOT ADD SLT PUSH2 0x231 JUMPI PUSH2 0x4AA PUSH1 0x1 PUSH1 0x1 PUSH1 0xA0 SHL SUB DUP1 PUSH2 0x433 PUSH2 0x1E43 JUMP JUMPDEST AND PUSH1 0x0 MSTORE PUSH1 0x0 PUSH1 0x20 MSTORE PUSH2 0x1F2 PUSH1 0x40 PUSH1 0x0 KECCAK256 SWAP2 PUSH2 0x44E DUP4 PUSH2 0x218A JUMP JUMPDEST SWAP3 PUSH2 0x45B PUSH1 0x1 DUP3 ADD PUSH2 0x218A JUMP JUMPDEST SWAP1 PUSH1 0xFF PUSH2 0x46A PUSH1 0x2 DUP4 ADD PUSH2 0x218A JUMP JUMPDEST SWAP4 PUSH1 0x3 DUP4 ADD SLOAD AND SWAP4 PUSH1 0x4 DUP4 ADD SLOAD PUSH2 0x4C6 PUSH1 0x5 DUP6 ADD SLOAD SWAP3 PUSH2 0x4B8 PUSH2 0x494 PUSH1 0x7 PUSH1 0x6 DUP10 ADD SLOAD SWAP9 ADD PUSH2 0x218A JUMP JUMPDEST SWAP8 PUSH1 0x40 MLOAD SWAP13 DUP14 SWAP13 DUP14 PUSH2 0x120 SWAP1 DUP2 DUP2 MSTORE ADD SWAP1 PUSH2 0x2081 JUMP JUMPDEST DUP13 DUP2 SUB PUSH1 0x20 DUP15 ADD MSTORE SWAP1 PUSH2 0x2081 JUMP JUMPDEST SWAP1 DUP11 DUP3 SUB PUSH1 0x40 DUP13 ADD MSTORE PUSH2 0x2081 JUMP JUMPDEST SWAP6 PUSH1 0x60 DUP10 ADD MSTORE PUSH1 0x80 DUP9 ADD MSTORE DUP2 DUP2 AND ISZERO ISZERO PUSH1 0xA0 DUP9 ADD MSTORE PUSH1 0x8 SHR AND ISZERO ISZERO PUSH1 0xC0 DUP7 ADD MSTORE PUSH1 0xE0 DUP6 ADD MSTORE DUP4 DUP3 SUB PUSH2 0x100 DUP6 ADD MSTORE PUSH2 0x2081 JUMP JUMPDEST CALLVALUE PUSH2 0x231 JUMPI PUSH1 0x20 CALLDATASIZE PUSH1 0x3 NOT ADD SLT PUSH2 0x231 JUMPI PUSH1 0x1 PUSH1 0x1 PUSH1 0xA0 SHL SUB PUSH2 0x51A PUSH2 0x1E43 JUMP JUMPDEST AND PUSH1 0x0 MSTORE PUSH1 0x0 PUSH1 0x20 MSTORE PUSH1 0x20 PUSH1 0xFF PUSH1 0x5 PUSH1 0x40 PUSH1 0x0 KECCAK256 ADD SLOAD AND PUSH1 0x40 MLOAD SWAP1 ISZERO ISZERO DUP2 MSTORE RETURN JUMPDEST CALLVALUE PUSH2 0x231 JUMPI PUSH1 0x20 CALLDATASIZE PUSH1 0x3 NOT ADD SLT PUSH2 0x231 JUMPI PUSH1 0x4 CALLDATALOAD PUSH1 0x1 PUSH1 0x1 PUSH1 0x40 SHL SUB DUP2 GT PUSH2 0x231 JUMPI PUSH1 0xFF PUSH2 0x573 PUSH1 0x20 PUSH2 0x38C DUP2 SWAP5 CALLDATASIZE SWAP1 PUSH1 0x4 ADD PUSH2 0x1E96 JUMP JUMPDEST DUP2 ADD PUSH1 0x1 DUP2 MSTORE SUB ADD SWAP1 KECCAK256 SLOAD AND PUSH1 0x40 MLOAD SWAP1 ISZERO ISZERO DUP2 MSTORE RETURN JUMPDEST CALLVALUE PUSH2 0x231 JUMPI PUSH1 0x20 CALLDATASIZE PUSH1 0x3 NOT ADD SLT PUSH2 0x231 JUMPI PUSH2 0x5A2 PUSH2 0x1E43 JUMP JUMPDEST PUSH1 0x4 SLOAD PUSH1 0x1 PUSH1 0x1 PUSH1 0xA0 SHL SUB SWAP2 SWAP1 PUSH2 0x5BC SWAP1 DUP4 AND CALLER EQ PUSH2 0x2230 JUMP JUMPDEST AND DUP1 PUSH1 0x0 MSTORE PUSH1 0x0 PUSH1 0x20 MSTORE PUSH2 0x5DA PUSH1 0xFF PUSH1 0x5 PUSH1 0x40 PUSH1 0x0 KECCAK256 ADD SLOAD AND PUSH2 0x2384 JUMP JUMPDEST DUP1 PUSH1 0x0 MSTORE PUSH1 0x0 PUSH1 0x20 MSTORE PUSH1 0x5 PUSH1 0x40 PUSH1 0x0 KECCAK256 ADD PUSH2 0xFF00 NOT DUP2 SLOAD AND SWAP1 SSTORE PUSH32 0xE11BB286BA108EB990FCBF07E4231247811A168C5A1F3A05EFC9DDAE4DC94E22 PUSH1 0x20 PUSH1 0x40 MLOAD TIMESTAMP DUP2 MSTORE LOG2 PUSH1 0x20 PUSH1 0x40 MLOAD PUSH1 0x1 DUP2 MSTORE RETURN JUMPDEST CALLVALUE PUSH2 0x231 JUMPI PUSH1 0x0 CALLDATASIZE PUSH1 0x3 NOT ADD SLT PUSH2 0x231 JUMPI PUSH1 0x40 MLOAD DUP1 PUSH1 0x3 SLOAD DUP1 DUP4 MSTORE PUSH1 0x20 DUP1 SWAP4 ADD DUP1 SWAP2 PUSH1 0x3 PUSH1 0x0 MSTORE PUSH32 0xC2575A0E9E593C00F959F8C92F12DB2869C3395A3B0502D05E2516446F71F85B SWAP1 PUSH1 0x0 JUMPDEST DUP7 DUP3 DUP3 LT PUSH2 0x6D4 JUMPI DUP7 DUP7 PUSH2 0x68B DUP3 DUP9 SUB DUP4 PUSH2 0x1E75 JUMP JUMPDEST PUSH1 0x40 MLOAD SWAP3 DUP4 SWAP3 DUP2 DUP5 ADD SWAP1 DUP3 DUP6 MSTORE MLOAD DUP1 SWAP2 MSTORE PUSH1 0x40 DUP5 ADD SWAP3 SWAP2 PUSH1 0x0 JUMPDEST DUP3 DUP2 LT PUSH2 0x6B4 JUMPI POP POP POP POP SUB SWAP1 RETURN JUMPDEST DUP4 MLOAD PUSH1 0x1 PUSH1 0x1 PUSH1 0xA0 SHL SUB AND DUP6 MSTORE DUP7 SWAP6 POP SWAP4 DUP2 ADD SWAP4 SWAP3 DUP2 ADD SWAP3 PUSH1 0x1 ADD PUSH2 0x6A5 JUMP JUMPDEST DUP4 SLOAD PUSH1 0x1 PUSH1 0x1 PUSH1 0xA0 SHL SUB AND DUP6 MSTORE SWAP1 SWAP4 ADD SWAP3 PUSH1 0x1 SWAP3 DUP4 ADD SWAP3 ADD PUSH2 0x675 JUMP JUMPDEST CALLVALUE PUSH2 0x231 JUMPI PUSH1 0x20 CALLDATASIZE PUSH1 0x3 NOT ADD SLT PUSH2 0x231 JUMPI PUSH2 0x1F2 PUSH2 0x70D PUSH2 0x1E43 JUMP JUMPDEST PUSH2 0x715 PUSH2 0x23D0 JUMP JUMPDEST POP PUSH1 0x1 PUSH1 0x1 PUSH1 0xA0 SHL SUB SWAP1 DUP2 AND PUSH1 0x0 DUP2 DUP2 MSTORE PUSH1 0x20 DUP2 SWAP1 MSTORE PUSH1 0x40 SWAP1 KECCAK256 PUSH1 0x5 ADD SLOAD PUSH2 0x73F SWAP1 PUSH1 0xFF AND PUSH2 0x2384 JUMP JUMPDEST PUSH1 0x0 MSTORE PUSH1 0x0 PUSH1 0x20 MSTORE PUSH2 0x1E0 PUSH1 0x7 PUSH1 0x40 PUSH1 0x0 KECCAK256 PUSH1 0x40 MLOAD SWAP4 PUSH2 0x172 DUP6 PUSH2 0x1E59 JUMP JUMPDEST CALLVALUE PUSH2 0x231 JUMPI PUSH1 0x20 CALLDATASIZE PUSH1 0x3 NOT ADD SLT PUSH2 0x231 JUMPI PUSH2 0x777 PUSH2 0x1E43 JUMP JUMPDEST PUSH1 0x4 SLOAD SWAP1 PUSH1 0x1 PUSH1 0x1 PUSH1 0xA0 SHL SUB SWAP1 PUSH2 0x791 CALLER DUP4 DUP6 AND EQ PUSH2 0x2230 JUMP JUMPDEST AND SWAP1 DUP2 ISZERO PUSH2 0x7A9 JUMPI PUSH1 0x1 PUSH1 0x1 PUSH1 0xA0 SHL SUB NOT AND OR PUSH1 0x4 SSTORE STOP JUMPDEST PUSH1 0x40 MLOAD PUSH3 0x461BCD PUSH1 0xE5 SHL DUP2 MSTORE PUSH1 0x20 PUSH1 0x4 DUP3 ADD MSTORE PUSH1 0xF PUSH1 0x24 DUP3 ADD MSTORE PUSH15 0x496E76616C69642061646472657373 PUSH1 0x88 SHL PUSH1 0x44 DUP3 ADD MSTORE PUSH1 0x64 SWAP1 REVERT JUMPDEST CALLVALUE PUSH2 0x231 JUMPI PUSH2 0x7EE CALLDATASIZE PUSH2 0x203F JUMP JUMPDEST PUSH1 0x4 SLOAD SWAP1 SWAP2 PUSH1 0x1 PUSH1 0x1 PUSH1 0xA0 SHL SUB SWAP2 PUSH2 0x809 SWAP1 DUP4 AND CALLER EQ PUSH2 0x2230 JUMP JUMPDEST AND DUP1 PUSH1 0x0 MSTORE PUSH1 0x20 SWAP2 PUSH1 0x0 DUP4 MSTORE PUSH2 0x829 PUSH1 0xFF PUSH1 0x5 PUSH1 0x40 PUSH1 0x0 KECCAK256 ADD SLOAD AND PUSH2 0x2384 JUMP JUMPDEST PUSH2 0x835 DUP2 MLOAD ISZERO ISZERO PUSH2 0x2287 JUMP JUMPDEST DUP2 PUSH1 0x0 MSTORE PUSH1 0x0 DUP4 MSTORE PUSH1 0x40 PUSH1 0x0 KECCAK256 DUP2 MLOAD PUSH1 0x1 PUSH1 0x1 PUSH1 0x40 SHL SUB DUP2 GT PUSH2 0x9B7 JUMPI PUSH2 0x85C DUP3 SLOAD PUSH2 0x2150 JUMP JUMPDEST PUSH1 0x1F DUP2 GT PUSH2 0x971 JUMPI JUMPDEST POP DUP5 PUSH1 0x1F DUP3 GT PUSH1 0x1 EQ PUSH2 0x8E7 JUMPI SWAP2 DUP2 PUSH32 0x4E2F4332F1D9BD6107A5FCBBD43A6A5EAA1EDBD011782ED56E198AACA2E5DDA9 SWAP5 SWAP3 PUSH2 0x8CB SWAP5 PUSH1 0x0 SWAP2 PUSH2 0x8DC JUMPI JUMPDEST POP DUP2 PUSH1 0x1 SHL SWAP2 PUSH1 0x0 NOT SWAP1 PUSH1 0x3 SHL SHR NOT AND OR SWAP1 SSTORE JUMPDEST PUSH1 0x40 MLOAD SWAP2 DUP3 SWAP2 PUSH1 0x40 DUP4 MSTORE PUSH1 0x40 DUP4 ADD SWAP1 PUSH2 0x2081 JUMP JUMPDEST TIMESTAMP DUP7 DUP4 ADD MSTORE SUB SWAP1 LOG2 PUSH1 0x40 MLOAD PUSH1 0x1 DUP2 MSTORE RETURN JUMPDEST SWAP1 POP DUP4 ADD MLOAD DUP9 PUSH2 0x8A3 JUMP JUMPDEST PUSH1 0x1F NOT DUP3 AND SWAP1 DUP4 PUSH1 0x0 MSTORE DUP7 PUSH1 0x0 KECCAK256 SWAP2 PUSH1 0x0 JUMPDEST DUP9 DUP3 DUP3 LT PUSH2 0x95B JUMPI POP POP SWAP3 PUSH2 0x8CB SWAP5 SWAP3 PUSH1 0x1 SWAP3 DUP3 PUSH32 0x4E2F4332F1D9BD6107A5FCBBD43A6A5EAA1EDBD011782ED56E198AACA2E5DDA9 SWAP9 SWAP7 LT PUSH2 0x942 JUMPI JUMPDEST POP POP DUP2 SHL ADD SWAP1 SSTORE PUSH2 0x8B7 JUMP JUMPDEST DUP6 ADD MLOAD PUSH1 0x0 NOT PUSH1 0xF8 DUP5 PUSH1 0x3 SHL AND SHR NOT AND SWAP1 SSTORE DUP9 DUP1 PUSH2 0x936 JUMP JUMPDEST PUSH1 0x1 DUP5 SWAP6 DUP3 SWAP4 SWAP6 DUP11 ADD MLOAD DUP2 SSTORE ADD SWAP5 ADD SWAP3 ADD PUSH2 0x8F9 JUMP JUMPDEST DUP3 PUSH1 0x0 MSTORE DUP6 PUSH1 0x0 KECCAK256 PUSH1 0x1F DUP4 ADD PUSH1 0x5 SHR DUP2 ADD SWAP2 DUP8 DUP5 LT PUSH2 0x9AD JUMPI JUMPDEST PUSH1 0x1F ADD PUSH1 0x5 SHR ADD SWAP1 JUMPDEST DUP2 DUP2 LT PUSH2 0x9A1 JUMPI POP PUSH2 0x865 JUMP JUMPDEST PUSH1 0x0 DUP2 SSTORE PUSH1 0x1 ADD PUSH2 0x994 JUMP JUMPDEST SWAP1 SWAP2 POP DUP2 SWAP1 PUSH2 0x98B JUMP JUMPDEST PUSH4 0x4E487B71 PUSH1 0xE0 SHL PUSH1 0x0 MSTORE PUSH1 0x41 PUSH1 0x4 MSTORE PUSH1 0x24 PUSH1 0x0 REVERT JUMPDEST CALLVALUE PUSH2 0x231 JUMPI PUSH2 0x9DB CALLDATASIZE PUSH2 0x203F JUMP JUMPDEST PUSH1 0x4 SLOAD SWAP1 SWAP2 PUSH1 0x1 PUSH1 0x1 PUSH1 0xA0 SHL SUB SWAP2 PUSH2 0x9F6 SWAP1 DUP4 AND CALLER EQ PUSH2 0x2230 JUMP JUMPDEST AND DUP1 PUSH1 0x0 MSTORE PUSH1 0x20 SWAP2 PUSH1 0x0 DUP4 MSTORE PUSH2 0xA16 PUSH1 0xFF PUSH1 0x5 PUSH1 0x40 PUSH1 0x0 KECCAK256 ADD SLOAD AND PUSH2 0x2384 JUMP JUMPDEST DUP2 PUSH1 0x0 MSTORE PUSH1 0x0 DUP4 MSTORE PUSH1 0x7 PUSH1 0x40 PUSH1 0x0 KECCAK256 ADD DUP2 MLOAD PUSH1 0x1 PUSH1 0x1 PUSH1 0x40 SHL SUB DUP2 GT PUSH2 0x9B7 JUMPI PUSH2 0xA40 DUP3 SLOAD PUSH2 0x2150 JUMP JUMPDEST PUSH1 0x1F DUP2 GT PUSH2 0xB1D JUMPI JUMPDEST POP DUP5 PUSH1 0x1F DUP3 GT PUSH1 0x1 EQ PUSH2 0xAAD JUMPI SWAP2 DUP2 PUSH32 0xA7275C9AFB601E81C5F14059C95A2642F0B8C9155B709E23077D474EFD97884 SWAP5 SWAP3 PUSH2 0x8CB SWAP5 PUSH1 0x0 SWAP2 PUSH2 0x8DC JUMPI POP DUP2 PUSH1 0x1 SHL SWAP2 PUSH1 0x0 NOT SWAP1 PUSH1 0x3 SHL SHR NOT AND OR SWAP1 SSTORE PUSH1 0x40 MLOAD SWAP2 DUP3 SWAP2 PUSH1 0x40 DUP4 MSTORE PUSH1 0x40 DUP4 ADD SWAP1 PUSH2 0x2081 JUMP JUMPDEST PUSH1 0x1F NOT DUP3 AND SWAP1 DUP4 PUSH1 0x0 MSTORE DUP7 PUSH1 0x0 KECCAK256 SWAP2 PUSH1 0x0 JUMPDEST DUP9 DUP3 DUP3 LT PUSH2 0xB07 JUMPI POP POP SWAP3 PUSH2 0x8CB SWAP5 SWAP3 PUSH1 0x1 SWAP3 DUP3 PUSH32 0xA7275C9AFB601E81C5F14059C95A2642F0B8C9155B709E23077D474EFD97884 SWAP9 SWAP7 LT PUSH2 0x942 JUMPI POP POP DUP2 SHL ADD SWAP1 SSTORE PUSH2 0x8B7 JUMP JUMPDEST PUSH1 0x1 DUP5 SWAP6 DUP3 SWAP4 SWAP6 DUP11 ADD MLOAD DUP2 SSTORE ADD SWAP5 ADD SWAP3 ADD PUSH2 0xABF JUMP JUMPDEST DUP3 PUSH1 0x0 MSTORE DUP6 PUSH1 0x0 KECCAK256 PUSH1 0x1F DUP4 ADD PUSH1 0x5 SHR DUP2 ADD SWAP2 DUP8 DUP5 LT PUSH2 0xB59 JUMPI JUMPDEST PUSH1 0x1F ADD PUSH1 0x5 SHR ADD SWAP1 JUMPDEST DUP2 DUP2 LT PUSH2 0xB4D JUMPI POP PUSH2 0xA49 JUMP JUMPDEST PUSH1 0x0 DUP2 SSTORE PUSH1 0x1 ADD PUSH2 0xB40 JUMP JUMPDEST SWAP1 SWAP2 POP DUP2 SWAP1 PUSH2 0xB37 JUMP JUMPDEST CALLVALUE PUSH2 0x231 JUMPI PUSH1 0xA0 CALLDATASIZE PUSH1 0x3 NOT ADD SLT PUSH2 0x231 JUMPI PUSH1 0x4 CALLDATALOAD PUSH1 0x1 PUSH1 0x1 PUSH1 0x40 SHL SUB DUP2 GT PUSH2 0x231 JUMPI PUSH2 0xB93 SWAP1 CALLDATASIZE SWAP1 PUSH1 0x4 ADD PUSH2 0x1E96 JUMP JUMPDEST PUSH1 0x24 CALLDATALOAD PUSH1 0x1 PUSH1 0x1 PUSH1 0x40 SHL SUB DUP2 GT PUSH2 0x231 JUMPI PUSH2 0xBB2 SWAP1 CALLDATASIZE SWAP1 PUSH1 0x4 ADD PUSH2 0x1E96 JUMP JUMPDEST SWAP1 PUSH1 0x44 CALLDATALOAD PUSH1 0x1 PUSH1 0x1 PUSH1 0x40 SHL SUB DUP2 GT PUSH2 0x231 JUMPI PUSH2 0xBD2 SWAP1 CALLDATASIZE SWAP1 PUSH1 0x4 ADD PUSH2 0x1E96 JUMP JUMPDEST SWAP1 PUSH1 0x64 CALLDATALOAD PUSH1 0x1 PUSH1 0x1 PUSH1 0xA0 SHL SUB DUP2 AND SWAP1 SUB PUSH2 0x231 JUMPI PUSH1 0x84 CALLDATALOAD PUSH1 0x1 PUSH1 0x1 PUSH1 0x40 SHL SUB DUP2 GT PUSH2 0x231 JUMPI PUSH2 0xC05 SWAP1 CALLDATASIZE SWAP1 PUSH1 0x4 ADD PUSH2 0x1E96 JUMP JUMPDEST SWAP3 PUSH2 0xC1B PUSH1 0x1 DUP1 PUSH1 0xA0 SHL SUB PUSH1 0x4 SLOAD AND CALLER EQ PUSH2 0x2230 JUMP JUMPDEST PUSH1 0x64 CALLDATALOAD PUSH1 0x1 PUSH1 0x1 PUSH1 0xA0 SHL SUB AND PUSH1 0x0 SWAP1 DUP2 MSTORE PUSH1 0x20 DUP2 SWAP1 MSTORE PUSH1 0x40 SWAP1 KECCAK256 PUSH1 0x5 ADD SLOAD PUSH1 0xFF AND PUSH2 0x144B JUMPI PUSH2 0xC4C DUP3 MLOAD ISZERO ISZERO PUSH2 0x2287 JUMP JUMPDEST DUP1 MLOAD ISZERO PUSH2 0x1406 JUMPI DUP3 MLOAD ISZERO PUSH2 0x13C9 JUMPI PUSH1 0x64 CALLDATALOAD PUSH1 0x1 PUSH1 0x1 PUSH1 0xA0 SHL SUB AND ISZERO PUSH2 0x138B JUMPI PUSH1 0xFF PUSH1 0x40 MLOAD PUSH1 0x20 DUP2 DUP7 MLOAD PUSH2 0xC82 DUP2 DUP4 DUP6 DUP12 ADD PUSH2 0x1EEC JUMP JUMPDEST PUSH1 0x1 DUP2 DUP4 ADD MSTORE DUP2 ADD SUB ADD SWAP1 KECCAK256 SLOAD AND PUSH2 0x1346 JUMPI PUSH1 0xFF PUSH1 0x40 MLOAD PUSH1 0x20 DUP2 DUP5 MLOAD PUSH2 0xCAB DUP2 DUP4 DUP6 DUP10 ADD PUSH2 0x1EEC JUMP JUMPDEST DUP2 ADD PUSH1 0x2 DUP2 MSTORE SUB ADD SWAP1 KECCAK256 SLOAD AND PUSH2 0x1308 JUMPI PUSH1 0x40 MLOAD SWAP4 PUSH2 0xCC8 DUP6 PUSH2 0x1E59 JUMP JUMPDEST DUP3 DUP6 MSTORE DUP2 PUSH1 0x20 DUP7 ADD MSTORE DUP4 PUSH1 0x40 DUP7 ADD MSTORE PUSH1 0x1 DUP1 PUSH1 0xA0 SHL SUB PUSH1 0x64 CALLDATALOAD AND PUSH1 0x60 DUP7 ADD MSTORE TIMESTAMP PUSH1 0x80 DUP7 ADD MSTORE PUSH1 0x1 PUSH1 0xA0 DUP7 ADD MSTORE PUSH1 0x1 PUSH1 0xC0 DUP7 ADD MSTORE PUSH1 0x0 PUSH1 0xE0 DUP7 ADD MSTORE PUSH2 0x100 DUP6 ADD MSTORE PUSH1 0x1 DUP1 PUSH1 0xA0 SHL SUB PUSH1 0x64 CALLDATALOAD AND PUSH1 0x0 MSTORE PUSH1 0x0 PUSH1 0x20 MSTORE PUSH1 0x40 PUSH1 0x0 KECCAK256 SWAP4 DUP1 MLOAD DUP1 MLOAD SWAP1 PUSH1 0x1 PUSH1 0x1 PUSH1 0x40 SHL SUB DUP3 GT PUSH2 0x9B7 JUMPI DUP2 SWAP1 PUSH2 0xD40 DUP9 SLOAD PUSH2 0x2150 JUMP JUMPDEST PUSH1 0x1F DUP2 GT PUSH2 0x12B8 JUMPI JUMPDEST POP PUSH1 0x20 SWAP1 PUSH1 0x1F DUP4 GT PUSH1 0x1 EQ PUSH2 0x124C JUMPI PUSH1 0x0 SWAP3 PUSH2 0x1241 JUMPI JUMPDEST POP POP DUP2 PUSH1 0x1 SHL SWAP2 PUSH1 0x0 NOT SWAP1 PUSH1 0x3 SHL SHR NOT AND OR DUP6 SSTORE JUMPDEST PUSH1 0x20 DUP2 ADD MLOAD DUP1 MLOAD SWAP1 PUSH1 0x1 PUSH1 0x1 PUSH1 0x40 SHL SUB DUP3 GT PUSH2 0x9B7 JUMPI DUP2 SWAP1 PUSH2 0xD9A PUSH1 0x1 DUP10 ADD SLOAD PUSH2 0x2150 JUMP JUMPDEST PUSH1 0x1F DUP2 GT PUSH2 0x11EE JUMPI JUMPDEST POP PUSH1 0x20 SWAP1 PUSH1 0x1F DUP4 GT PUSH1 0x1 EQ PUSH2 0x117C JUMPI PUSH1 0x0 SWAP3 PUSH2 0x1171 JUMPI JUMPDEST POP POP DUP2 PUSH1 0x1 SHL SWAP2 PUSH1 0x0 NOT SWAP1 PUSH1 0x3 SHL SHR NOT AND OR PUSH1 0x1 DUP7 ADD SSTORE JUMPDEST PUSH1 0x40 DUP2 ADD MLOAD DUP1 MLOAD SWAP1 PUSH1 0x1 PUSH1 0x1 PUSH1 0x40 SHL SUB DUP3 GT PUSH2 0x9B7 JUMPI PUSH2 0xDF5 PUSH1 0x2 DUP9 ADD SLOAD PUSH2 0x2150 JUMP JUMPDEST PUSH1 0x1F DUP2 GT PUSH2 0x112A JUMPI JUMPDEST POP PUSH1 0x20 SWAP1 PUSH1 0x1F DUP4 GT PUSH1 0x1 EQ PUSH2 0x10B6 JUMPI PUSH2 0x100 SWAP4 SWAP3 SWAP2 PUSH1 0x0 SWAP2 DUP4 PUSH2 0x10AB JUMPI JUMPDEST POP POP DUP2 PUSH1 0x1 SHL SWAP2 PUSH1 0x0 NOT SWAP1 PUSH1 0x3 SHL SHR NOT AND OR PUSH1 0x2 DUP8 ADD SSTORE JUMPDEST PUSH1 0x3 DUP7 ADD PUSH1 0x1 DUP1 PUSH1 0xA0 SHL SUB PUSH1 0x60 DUP4 ADD MLOAD AND PUSH12 0xFFFFFFFFFFFFFFFFFFFFFFFF PUSH1 0xA0 SHL DUP3 SLOAD AND OR SWAP1 SSTORE PUSH1 0x80 DUP2 ADD MLOAD PUSH1 0x4 DUP8 ADD SSTORE PUSH2 0xEA3 PUSH1 0x5 DUP8 ADD PUSH2 0xE88 PUSH1 0xA0 DUP5 ADD MLOAD ISZERO ISZERO DUP3 SWAP1 PUSH1 0xFF DUP1 NOT DUP4 SLOAD AND SWAP2 ISZERO ISZERO AND OR SWAP1 SSTORE JUMP JUMPDEST PUSH1 0xC0 DUP4 ADD MLOAD DUP2 SLOAD PUSH2 0xFF00 NOT AND SWAP1 ISZERO ISZERO PUSH1 0x8 SHL PUSH2 0xFF00 AND OR SWAP1 SSTORE JUMP JUMPDEST PUSH1 0xE0 DUP2 ADD MLOAD PUSH1 0x6 DUP8 ADD SSTORE ADD MLOAD SWAP4 DUP5 MLOAD SWAP5 PUSH1 0x1 PUSH1 0x1 PUSH1 0x40 SHL SUB DUP7 GT PUSH2 0x9B7 JUMPI PUSH2 0xECE PUSH1 0x7 DUP4 ADD SLOAD PUSH2 0x2150 JUMP JUMPDEST PUSH1 0x1F DUP2 GT PUSH2 0x1064 JUMPI JUMPDEST POP PUSH1 0x20 SWAP1 PUSH1 0x1F DUP8 GT PUSH1 0x1 EQ PUSH2 0xFD2 JUMPI SWAP6 DUP1 PUSH1 0x7 SWAP3 PUSH32 0x71746EDC8B9676283675A19A6753778BD1FC4978AE4C8A92CD1151BA1422D19D SWAP8 SWAP9 PUSH1 0x0 SWAP3 PUSH2 0xFC7 JUMPI JUMPDEST POP POP DUP2 PUSH1 0x1 SHL SWAP2 PUSH1 0x0 NOT SWAP1 PUSH1 0x3 SHL SHR NOT AND OR SWAP2 ADD SSTORE JUMPDEST PUSH1 0x40 MLOAD PUSH1 0x20 DUP2 DUP7 MLOAD PUSH2 0xF41 DUP2 DUP4 DUP6 DUP12 ADD PUSH2 0x1EEC JUMP JUMPDEST DUP2 ADD PUSH1 0x1 DUP2 MSTORE SUB ADD SWAP1 KECCAK256 PUSH1 0xFF NOT SWAP1 PUSH1 0x1 DUP3 DUP3 SLOAD AND OR SWAP1 SSTORE PUSH1 0x1 PUSH1 0x40 MLOAD PUSH1 0x20 DUP2 DUP6 MLOAD PUSH2 0xF6F DUP2 DUP4 DUP6 DUP11 ADD PUSH2 0x1EEC JUMP JUMPDEST DUP2 ADD PUSH1 0x2 DUP2 MSTORE SUB ADD SWAP1 KECCAK256 SWAP2 DUP3 SLOAD AND OR SWAP1 SSTORE PUSH2 0xF8B PUSH1 0x64 CALLDATALOAD PUSH2 0x22CA JUMP JUMPDEST PUSH2 0xF96 PUSH1 0x5 SLOAD PUSH2 0x230C JUMP JUMPDEST PUSH1 0x5 SSTORE PUSH1 0x40 MLOAD PUSH1 0x64 CALLDATALOAD PUSH1 0x1 PUSH1 0x1 PUSH1 0xA0 SHL SUB AND SWAP5 SWAP1 SWAP3 DUP4 SWAP3 PUSH2 0xFB9 SWAP3 TIMESTAMP SWAP3 DUP6 PUSH2 0x2331 JUMP JUMPDEST SUB SWAP1 LOG2 PUSH1 0x20 PUSH1 0x40 MLOAD PUSH1 0x1 DUP2 MSTORE RETURN JUMPDEST ADD MLOAD SWAP1 POP DUP9 DUP1 PUSH2 0xF16 JUMP JUMPDEST SWAP1 PUSH1 0x7 DUP4 ADD PUSH1 0x0 MSTORE PUSH1 0x20 PUSH1 0x0 KECCAK256 SWAP2 PUSH1 0x0 JUMPDEST PUSH1 0x1F NOT DUP10 AND DUP2 LT PUSH2 0x104C JUMPI POP SWAP7 PUSH1 0x7 SWAP3 PUSH1 0x1 SWAP3 PUSH32 0x71746EDC8B9676283675A19A6753778BD1FC4978AE4C8A92CD1151BA1422D19D SWAP9 SWAP10 DUP4 PUSH1 0x1F NOT DUP2 AND LT PUSH2 0x1033 JUMPI JUMPDEST POP POP POP DUP2 SHL ADD SWAP2 ADD SSTORE PUSH2 0xF2C JUMP JUMPDEST ADD MLOAD PUSH1 0x0 NOT PUSH1 0xF8 DUP5 PUSH1 0x3 SHL AND SHR NOT AND SWAP1 SSTORE DUP9 DUP1 DUP1 PUSH2 0x1025 JUMP JUMPDEST SWAP2 SWAP3 PUSH1 0x20 PUSH1 0x1 DUP2 SWAP3 DUP7 DUP6 ADD MLOAD DUP2 SSTORE ADD SWAP5 ADD SWAP3 ADD PUSH2 0xFE3 JUMP JUMPDEST PUSH1 0x7 DUP4 ADD PUSH1 0x0 MSTORE PUSH1 0x20 PUSH1 0x0 KECCAK256 PUSH1 0x1F DUP9 ADD PUSH1 0x5 SHR DUP2 ADD PUSH1 0x20 DUP10 LT PUSH2 0x10A4 JUMPI JUMPDEST PUSH1 0x1F DUP4 ADD PUSH1 0x5 SHR DUP3 ADD DUP2 LT PUSH2 0x1098 JUMPI POP POP PUSH2 0xED7 JUMP JUMPDEST PUSH1 0x0 DUP2 SSTORE PUSH1 0x1 ADD PUSH2 0x1082 JUMP JUMPDEST POP DUP1 PUSH2 0x1082 JUMP JUMPDEST ADD MLOAD SWAP1 POP DUP9 DUP1 PUSH2 0xE1C JUMP JUMPDEST SWAP1 PUSH1 0x2 DUP9 ADD PUSH1 0x0 MSTORE PUSH1 0x20 PUSH1 0x0 KECCAK256 SWAP2 PUSH1 0x0 JUMPDEST PUSH1 0x1F NOT DUP6 AND DUP2 LT PUSH2 0x1112 JUMPI POP SWAP2 DUP4 SWAP2 PUSH1 0x1 SWAP4 PUSH2 0x100 SWAP7 SWAP6 PUSH1 0x1F NOT DUP2 AND LT PUSH2 0x10F9 JUMPI JUMPDEST POP POP POP DUP2 SHL ADD PUSH1 0x2 DUP8 ADD SSTORE PUSH2 0xE34 JUMP JUMPDEST ADD MLOAD PUSH1 0x0 NOT PUSH1 0xF8 DUP5 PUSH1 0x3 SHL AND SHR NOT AND SWAP1 SSTORE DUP9 DUP1 DUP1 PUSH2 0x10E9 JUMP JUMPDEST SWAP2 SWAP3 PUSH1 0x20 PUSH1 0x1 DUP2 SWAP3 DUP7 DUP6 ADD MLOAD DUP2 SSTORE ADD SWAP5 ADD SWAP3 ADD PUSH2 0x10C7 JUMP JUMPDEST PUSH1 0x2 DUP9 ADD PUSH1 0x0 MSTORE PUSH1 0x20 PUSH1 0x0 KECCAK256 PUSH1 0x1F DUP5 ADD PUSH1 0x5 SHR DUP2 ADD PUSH1 0x20 DUP6 LT PUSH2 0x116A JUMPI JUMPDEST PUSH1 0x1F DUP4 ADD PUSH1 0x5 SHR DUP3 ADD DUP2 LT PUSH2 0x115E JUMPI POP POP PUSH2 0xDFE JUMP JUMPDEST PUSH1 0x0 DUP2 SSTORE PUSH1 0x1 ADD PUSH2 0x1148 JUMP JUMPDEST POP DUP1 PUSH2 0x1148 JUMP JUMPDEST ADD MLOAD SWAP1 POP DUP8 DUP1 PUSH2 0xDBA JUMP JUMPDEST SWAP3 POP PUSH1 0x1 DUP9 ADD PUSH1 0x0 MSTORE PUSH1 0x20 PUSH1 0x0 KECCAK256 SWAP1 PUSH1 0x0 SWAP4 JUMPDEST PUSH1 0x1F NOT DUP5 AND DUP6 LT PUSH2 0x11D3 JUMPI PUSH1 0x1 SWAP5 POP DUP4 PUSH1 0x1F NOT DUP2 AND LT PUSH2 0x11BA JUMPI JUMPDEST POP POP POP DUP2 SHL ADD PUSH1 0x1 DUP7 ADD SSTORE PUSH2 0xDD2 JUMP JUMPDEST ADD MLOAD PUSH1 0x0 NOT PUSH1 0xF8 DUP5 PUSH1 0x3 SHL AND SHR NOT AND SWAP1 SSTORE DUP8 DUP1 DUP1 PUSH2 0x11AA JUMP JUMPDEST DUP2 DUP2 ADD MLOAD DUP4 SSTORE PUSH1 0x20 SWAP5 DUP6 ADD SWAP5 PUSH1 0x1 SWAP1 SWAP4 ADD SWAP3 SWAP1 SWAP2 ADD SWAP1 PUSH2 0x118F JUMP JUMPDEST SWAP1 SWAP2 POP PUSH1 0x1 DUP9 ADD PUSH1 0x0 MSTORE PUSH1 0x20 PUSH1 0x0 KECCAK256 PUSH1 0x1F DUP5 ADD PUSH1 0x5 SHR DUP2 ADD PUSH1 0x20 DUP6 LT PUSH2 0x123A JUMPI JUMPDEST SWAP1 DUP5 SWAP4 SWAP3 SWAP2 JUMPDEST PUSH1 0x1F DUP4 ADD PUSH1 0x5 SHR DUP3 ADD DUP2 LT PUSH2 0x122B JUMPI POP POP PUSH2 0xDA3 JUMP JUMPDEST PUSH1 0x0 DUP2 SSTORE DUP6 SWAP5 POP PUSH1 0x1 ADD PUSH2 0x1215 JUMP JUMPDEST POP DUP1 PUSH2 0x120F JUMP JUMPDEST ADD MLOAD SWAP1 POP DUP8 DUP1 PUSH2 0xD60 JUMP JUMPDEST SWAP3 POP DUP8 PUSH1 0x0 MSTORE PUSH1 0x20 PUSH1 0x0 KECCAK256 SWAP1 PUSH1 0x0 SWAP4 JUMPDEST PUSH1 0x1F NOT DUP5 AND DUP6 LT PUSH2 0x129D JUMPI PUSH1 0x1 SWAP5 POP DUP4 PUSH1 0x1F NOT DUP2 AND LT PUSH2 0x1284 JUMPI JUMPDEST POP POP POP DUP2 SHL ADD DUP6 SSTORE PUSH2 0xD75 JUMP JUMPDEST ADD MLOAD PUSH1 0x0 NOT PUSH1 0xF8 DUP5 PUSH1 0x3 SHL AND SHR NOT AND SWAP1 SSTORE DUP8 DUP1 DUP1 PUSH2 0x1277 JUMP JUMPDEST DUP2 DUP2 ADD MLOAD DUP4 SSTORE PUSH1 0x20 SWAP5 DUP6 ADD SWAP5 PUSH1 0x1 SWAP1 SWAP4 ADD SWAP3 SWAP1 SWAP2 ADD SWAP1 PUSH2 0x125C JUMP JUMPDEST SWAP1 SWAP2 POP DUP8 PUSH1 0x0 MSTORE PUSH1 0x20 PUSH1 0x0 KECCAK256 PUSH1 0x1F DUP5 ADD PUSH1 0x5 SHR DUP2 ADD PUSH1 0x20 DUP6 LT PUSH2 0x1301 JUMPI JUMPDEST SWAP1 DUP5 SWAP4 SWAP3 SWAP2 JUMPDEST PUSH1 0x1F DUP4 ADD PUSH1 0x5 SHR DUP3 ADD DUP2 LT PUSH2 0x12F2 JUMPI POP POP PUSH2 0xD49 JUMP JUMPDEST PUSH1 0x0 DUP2 SSTORE DUP6 SWAP5 POP PUSH1 0x1 ADD PUSH2 0x12DC JUMP JUMPDEST POP DUP1 PUSH2 0x12D6 JUMP JUMPDEST PUSH1 0x40 MLOAD PUSH3 0x461BCD PUSH1 0xE5 SHL DUP2 MSTORE PUSH1 0x20 PUSH1 0x4 DUP3 ADD MSTORE PUSH1 0x16 PUSH1 0x24 DUP3 ADD MSTORE PUSH22 0x2AB9B2B93730B6B29030B63932B0B23C903A30B5B2B7 PUSH1 0x51 SHL PUSH1 0x44 DUP3 ADD MSTORE PUSH1 0x64 SWAP1 REVERT JUMPDEST PUSH1 0x40 MLOAD PUSH3 0x461BCD PUSH1 0xE5 SHL DUP2 MSTORE PUSH1 0x20 PUSH1 0x4 DUP3 ADD MSTORE PUSH1 0x18 PUSH1 0x24 DUP3 ADD MSTORE PUSH32 0x456D61696C20616C726561647920726567697374657265640000000000000000 PUSH1 0x44 DUP3 ADD MSTORE PUSH1 0x64 SWAP1 REVERT JUMPDEST PUSH1 0x40 MLOAD PUSH3 0x461BCD PUSH1 0xE5 SHL DUP2 MSTORE PUSH1 0x20 PUSH1 0x4 DUP3 ADD MSTORE PUSH1 0x16 PUSH1 0x24 DUP3 ADD MSTORE PUSH22 0x496E76616C69642077616C6C65742061646472657373 PUSH1 0x50 SHL PUSH1 0x44 DUP3 ADD MSTORE PUSH1 0x64 SWAP1 REVERT JUMPDEST PUSH1 0x40 MLOAD PUSH3 0x461BCD PUSH1 0xE5 SHL DUP2 MSTORE PUSH1 0x20 PUSH1 0x4 DUP3 ADD MSTORE PUSH1 0x15 PUSH1 0x24 DUP3 ADD MSTORE PUSH21 0x456D61696C2063616E6E6F7420626520656D707479 PUSH1 0x58 SHL PUSH1 0x44 DUP3 ADD MSTORE PUSH1 0x64 SWAP1 REVERT JUMPDEST PUSH1 0x40 MLOAD PUSH3 0x461BCD PUSH1 0xE5 SHL DUP2 MSTORE PUSH1 0x20 PUSH1 0x4 DUP3 ADD MSTORE PUSH1 0x18 PUSH1 0x24 DUP3 ADD MSTORE PUSH32 0x557365726E616D652063616E6E6F7420626520656D7074790000000000000000 PUSH1 0x44 DUP3 ADD MSTORE PUSH1 0x64 SWAP1 REVERT JUMPDEST PUSH1 0x40 MLOAD PUSH3 0x461BCD PUSH1 0xE5 SHL DUP2 MSTORE PUSH1 0x20 PUSH1 0x4 DUP3 ADD MSTORE PUSH1 0x1D PUSH1 0x24 DUP3 ADD MSTORE PUSH32 0x556E697665727369747920616C72656164792072656769737465726564000000 PUSH1 0x44 DUP3 ADD MSTORE PUSH1 0x64 SWAP1 REVERT JUMPDEST CALLVALUE PUSH2 0x231 JUMPI PUSH1 0xA0 CALLDATASIZE PUSH1 0x3 NOT ADD SLT PUSH2 0x231 JUMPI PUSH1 0x4 CALLDATALOAD PUSH1 0x1 PUSH1 0x1 PUSH1 0x40 SHL SUB DUP2 GT PUSH2 0x231 JUMPI PUSH2 0x14C0 SWAP1 CALLDATASIZE SWAP1 PUSH1 0x4 ADD PUSH2 0x1FBF JUMP JUMPDEST PUSH1 0x24 CALLDATALOAD PUSH1 0x1 PUSH1 0x1 PUSH1 0x40 SHL SUB DUP2 GT PUSH2 0x231 JUMPI PUSH2 0x14DF SWAP1 CALLDATASIZE SWAP1 PUSH1 0x4 ADD PUSH2 0x1FBF JUMP JUMPDEST SWAP1 PUSH1 0x44 CALLDATALOAD PUSH1 0x1 PUSH1 0x1 PUSH1 0x40 SHL SUB DUP2 GT PUSH2 0x231 JUMPI PUSH2 0x14FF SWAP1 CALLDATASIZE SWAP1 PUSH1 0x4 ADD PUSH2 0x1FBF JUMP JUMPDEST SWAP1 PUSH1 0x64 CALLDATALOAD SWAP2 PUSH1 0x1 PUSH1 0x1 PUSH1 0x40 SHL SUB DUP4 GT PUSH2 0x231 JUMPI CALLDATASIZE PUSH1 0x23 DUP5 ADD SLT ISZERO PUSH2 0x231 JUMPI DUP3 PUSH1 0x4 ADD CALLDATALOAD PUSH2 0x152B DUP2 PUSH2 0x1FA8 JUMP JUMPDEST SWAP4 PUSH2 0x1539 PUSH1 0x40 MLOAD SWAP6 DUP7 PUSH2 0x1E75 JUMP JUMPDEST DUP2 DUP6 MSTORE PUSH1 0x24 PUSH1 0x20 DUP7 ADD SWAP3 PUSH1 0x5 SHL DUP3 ADD ADD SWAP1 CALLDATASIZE DUP3 GT PUSH2 0x231 JUMPI PUSH1 0x24 ADD SWAP2 JUMPDEST DUP2 DUP4 LT PUSH2 0x1D1F JUMPI POP POP POP PUSH1 0x84 CALLDATALOAD PUSH1 0x1 PUSH1 0x1 PUSH1 0x40 SHL SUB DUP2 GT PUSH2 0x231 JUMPI PUSH2 0x157F SWAP1 CALLDATASIZE SWAP1 PUSH1 0x4 ADD PUSH2 0x1FBF JUMP JUMPDEST SWAP3 PUSH2 0x1595 PUSH1 0x1 DUP1 PUSH1 0xA0 SHL SUB PUSH1 0x4 SLOAD AND CALLER EQ PUSH2 0x2230 JUMP JUMPDEST DUP3 MLOAD DUP6 MLOAD DUP1 SWAP2 EQ SWAP1 DUP2 PUSH2 0x1D14 JUMPI JUMPDEST POP DUP1 PUSH2 0x1D09 JUMPI JUMPDEST DUP1 PUSH2 0x1CFE JUMPI JUMPDEST ISZERO PUSH2 0x1CB9 JUMPI PUSH1 0x0 DUP1 JUMPDEST DUP3 MLOAD DUP3 LT ISZERO PUSH2 0x1CAE JUMPI PUSH1 0x1 PUSH1 0x1 PUSH1 0xA0 SHL SUB PUSH2 0x15D4 DUP4 DUP6 PUSH2 0x2370 JUMP JUMPDEST MLOAD AND PUSH1 0x0 MSTORE PUSH1 0x0 PUSH1 0x20 MSTORE PUSH1 0xFF PUSH1 0x5 PUSH1 0x40 PUSH1 0x0 KECCAK256 ADD SLOAD AND PUSH2 0x1C8D JUMPI PUSH1 0xFF PUSH2 0x1603 PUSH2 0x15FD DUP5 DUP8 PUSH2 0x2370 JUMP JUMPDEST MLOAD PUSH2 0x1F0F JUMP JUMPDEST SLOAD AND DUP1 ISZERO PUSH2 0x1C97 JUMPI JUMPDEST PUSH2 0x1C8D JUMPI PUSH2 0x161A DUP3 DUP7 PUSH2 0x2370 JUMP JUMPDEST MLOAD PUSH2 0x1625 DUP4 DUP10 PUSH2 0x2370 JUMP JUMPDEST MLOAD PUSH2 0x1630 DUP5 DUP8 PUSH2 0x2370 JUMP JUMPDEST MLOAD PUSH1 0x1 PUSH1 0x1 PUSH1 0xA0 SHL SUB PUSH2 0x1643 DUP7 DUP9 PUSH2 0x2370 JUMP JUMPDEST MLOAD AND SWAP1 PUSH2 0x1650 DUP7 DUP12 PUSH2 0x2370 JUMP JUMPDEST MLOAD SWAP3 PUSH1 0x40 MLOAD SWAP5 PUSH2 0x165F DUP7 PUSH2 0x1E59 JUMP JUMPDEST DUP6 MSTORE PUSH1 0x20 DUP6 ADD MSTORE PUSH1 0x40 DUP5 ADD MSTORE PUSH1 0x60 DUP4 ADD MSTORE TIMESTAMP PUSH1 0x80 DUP4 ADD MSTORE PUSH1 0x1 PUSH1 0xA0 DUP4 ADD DUP2 SWAP1 MSTORE PUSH1 0xC0 DUP4 ADD MSTORE PUSH1 0x0 PUSH1 0xE0 DUP4 ADD MSTORE PUSH2 0x100 DUP3 ADD MSTORE PUSH1 0x1 PUSH1 0x1 PUSH1 0xA0 SHL SUB PUSH2 0x16A3 DUP5 DUP7 PUSH2 0x2370 JUMP JUMPDEST MLOAD AND PUSH1 0x0 MSTORE PUSH1 0x0 PUSH1 0x20 MSTORE PUSH1 0x40 PUSH1 0x0 KECCAK256 SWAP1 DUP1 MLOAD DUP1 MLOAD SWAP1 PUSH1 0x1 PUSH1 0x1 PUSH1 0x40 SHL SUB DUP3 GT PUSH2 0x9B7 JUMPI DUP2 SWAP1 PUSH2 0x16D2 DUP6 SLOAD PUSH2 0x2150 JUMP JUMPDEST PUSH1 0x1F DUP2 GT PUSH2 0x1C3D JUMPI JUMPDEST POP PUSH1 0x20 SWAP1 PUSH1 0x1F DUP4 GT PUSH1 0x1 EQ PUSH2 0x1BD1 JUMPI PUSH1 0x0 SWAP3 PUSH2 0x1BC6 JUMPI JUMPDEST POP POP DUP2 PUSH1 0x1 SHL SWAP2 PUSH1 0x0 NOT SWAP1 PUSH1 0x3 SHL SHR NOT AND OR DUP3 SSTORE JUMPDEST PUSH1 0x20 DUP2 ADD MLOAD DUP1 MLOAD SWAP1 PUSH1 0x1 PUSH1 0x1 PUSH1 0x40 SHL SUB DUP3 GT PUSH2 0x9B7 JUMPI DUP2 SWAP1 PUSH2 0x172C PUSH1 0x1 DUP7 ADD SLOAD PUSH2 0x2150 JUMP JUMPDEST PUSH1 0x1F DUP2 GT PUSH2 0x1B73 JUMPI JUMPDEST POP PUSH1 0x20 SWAP1 PUSH1 0x1F DUP4 GT PUSH1 0x1 EQ PUSH2 0x1B01 JUMPI PUSH1 0x0 SWAP3 PUSH2 0x1AF6 JUMPI JUMPDEST POP POP DUP2 PUSH1 0x1 SHL SWAP2 PUSH1 0x0 NOT SWAP1 PUSH1 0x3 SHL SHR NOT AND OR PUSH1 0x1 DUP4 ADD SSTORE JUMPDEST PUSH1 0x40 DUP2 ADD MLOAD DUP1 MLOAD SWAP1 PUSH1 0x1 PUSH1 0x1 PUSH1 0x40 SHL SUB DUP3 GT PUSH2 0x9B7 JUMPI PUSH2 0x1787 PUSH1 0x2 DUP6 ADD SLOAD PUSH2 0x2150 JUMP JUMPDEST PUSH1 0x1F DUP2 GT PUSH2 0x1AAF JUMPI JUMPDEST POP PUSH1 0x20 SWAP1 PUSH1 0x1F DUP4 GT PUSH1 0x1 EQ PUSH2 0x1A3B JUMPI PUSH2 0x100 SWAP4 SWAP3 SWAP2 PUSH1 0x0 SWAP2 DUP4 PUSH2 0x1A30 JUMPI JUMPDEST POP POP DUP2 PUSH1 0x1 SHL SWAP2 PUSH1 0x0 NOT SWAP1 PUSH1 0x3 SHL SHR NOT AND OR PUSH1 0x2 DUP5 ADD SSTORE JUMPDEST PUSH1 0x3 DUP4 ADD PUSH1 0x1 DUP1 PUSH1 0xA0 SHL SUB PUSH1 0x60 DUP4 ADD MLOAD AND PUSH12 0xFFFFFFFFFFFFFFFFFFFFFFFF PUSH1 0xA0 SHL DUP3 SLOAD AND OR SWAP1 SSTORE PUSH1 0x80 DUP2 ADD MLOAD PUSH1 0x4 DUP5 ADD SSTORE PUSH2 0x181A PUSH1 0x5 DUP5 ADD PUSH2 0xE88 PUSH1 0xA0 DUP5 ADD MLOAD ISZERO ISZERO DUP3 SWAP1 PUSH1 0xFF DUP1 NOT DUP4 SLOAD AND SWAP2 ISZERO ISZERO AND OR SWAP1 SSTORE JUMP JUMPDEST PUSH1 0xE0 DUP2 ADD MLOAD PUSH1 0x6 DUP5 ADD SSTORE ADD MLOAD DUP1 MLOAD SWAP1 PUSH1 0x1 PUSH1 0x1 PUSH1 0x40 SHL SUB DUP3 GT PUSH2 0x9B7 JUMPI PUSH2 0x1844 PUSH1 0x7 DUP5 ADD SLOAD PUSH2 0x2150 JUMP JUMPDEST PUSH1 0x1F DUP2 GT PUSH2 0x19E9 JUMPI JUMPDEST POP PUSH1 0x20 SWAP1 PUSH1 0x1F DUP4 GT PUSH1 0x1 EQ PUSH2 0x1971 JUMPI DUP3 PUSH2 0x1960 SWAP6 SWAP4 PUSH2 0x18EE SWAP6 SWAP4 PUSH1 0x7 SWAP4 PUSH1 0x0 SWAP3 PUSH2 0x1966 JUMPI JUMPDEST POP POP DUP2 PUSH1 0x1 SHL SWAP2 PUSH1 0x0 NOT SWAP1 PUSH1 0x3 SHL SHR NOT AND OR SWAP2 ADD SSTORE JUMPDEST PUSH2 0x1895 PUSH2 0x15FD DUP6 DUP9 PUSH2 0x2370 JUMP JUMPDEST PUSH1 0xFF NOT SWAP1 PUSH1 0x1 DUP3 DUP3 SLOAD AND OR SWAP1 SSTORE PUSH1 0x1 PUSH2 0x18B7 PUSH2 0x18B1 DUP8 DUP14 PUSH2 0x2370 JUMP JUMPDEST MLOAD PUSH2 0x1F35 JUMP JUMPDEST DUP1 SLOAD SWAP1 SWAP3 AND OR SWAP1 SSTORE PUSH2 0x18DB PUSH1 0x1 PUSH1 0x1 PUSH1 0xA0 SHL SUB PUSH2 0x18D4 DUP7 DUP9 PUSH2 0x2370 JUMP JUMPDEST MLOAD AND PUSH2 0x22CA JUMP JUMPDEST PUSH2 0x18E6 PUSH1 0x5 SLOAD PUSH2 0x230C JUMP JUMPDEST PUSH1 0x5 SSTORE PUSH2 0x230C JUMP JUMPDEST SWAP2 PUSH1 0x1 PUSH1 0x1 PUSH1 0xA0 SHL SUB PUSH2 0x1901 DUP3 DUP7 PUSH2 0x2370 JUMP JUMPDEST MLOAD AND PUSH32 0x71746EDC8B9676283675A19A6753778BD1FC4978AE4C8A92CD1151BA1422D19D PUSH2 0x192E DUP4 DUP10 PUSH2 0x2370 JUMP JUMPDEST MLOAD DUP11 PUSH2 0x1958 PUSH2 0x1948 DUP7 PUSH2 0x1941 DUP2 DUP14 PUSH2 0x2370 JUMP JUMPDEST MLOAD SWAP4 PUSH2 0x2370 JUMP JUMPDEST MLOAD SWAP3 PUSH1 0x40 MLOAD SWAP4 DUP5 SWAP4 TIMESTAMP SWAP3 DUP6 PUSH2 0x2331 JUMP JUMPDEST SUB SWAP1 LOG2 PUSH2 0x230C JUMP JUMPDEST SWAP1 PUSH2 0x15B9 JUMP JUMPDEST ADD MLOAD SWAP1 POP DUP14 DUP1 PUSH2 0x1872 JUMP JUMPDEST SWAP1 PUSH1 0x7 DUP5 ADD PUSH1 0x0 MSTORE PUSH1 0x20 PUSH1 0x0 KECCAK256 SWAP2 PUSH1 0x0 JUMPDEST PUSH1 0x1F NOT DUP6 AND DUP2 LT PUSH2 0x19D1 JUMPI POP DUP4 PUSH2 0x18EE SWAP6 SWAP4 PUSH1 0x7 SWAP4 PUSH1 0x1 SWAP4 PUSH2 0x1960 SWAP10 SWAP8 PUSH1 0x1F NOT DUP2 AND LT PUSH2 0x19B8 JUMPI JUMPDEST POP POP POP DUP2 SHL ADD SWAP2 ADD SSTORE PUSH2 0x1888 JUMP JUMPDEST ADD MLOAD PUSH1 0x0 NOT PUSH1 0xF8 DUP5 PUSH1 0x3 SHL AND SHR NOT AND SWAP1 SSTORE DUP14 DUP1 DUP1 PUSH2 0x19AA JUMP JUMPDEST SWAP2 SWAP3 PUSH1 0x20 PUSH1 0x1 DUP2 SWAP3 DUP7 DUP6 ADD MLOAD DUP2 SSTORE ADD SWAP5 ADD SWAP3 ADD PUSH2 0x1982 JUMP JUMPDEST PUSH1 0x7 DUP5 ADD PUSH1 0x0 MSTORE PUSH1 0x20 PUSH1 0x0 KECCAK256 PUSH1 0x1F DUP5 ADD PUSH1 0x5 SHR DUP2 ADD PUSH1 0x20 DUP6 LT PUSH2 0x1A29 JUMPI JUMPDEST PUSH1 0x1F DUP4 ADD PUSH1 0x5 SHR DUP3 ADD DUP2 LT PUSH2 0x1A1D JUMPI POP POP PUSH2 0x184D JUMP JUMPDEST PUSH1 0x0 DUP2 SSTORE PUSH1 0x1 ADD PUSH2 0x1A07 JUMP JUMPDEST POP DUP1 PUSH2 0x1A07 JUMP JUMPDEST ADD MLOAD SWAP1 POP DUP13 DUP1 PUSH2 0x17AE JUMP JUMPDEST SWAP1 PUSH1 0x2 DUP6 ADD PUSH1 0x0 MSTORE PUSH1 0x20 PUSH1 0x0 KECCAK256 SWAP2 PUSH1 0x0 JUMPDEST PUSH1 0x1F NOT DUP6 AND DUP2 LT PUSH2 0x1A97 JUMPI POP SWAP2 DUP4 SWAP2 PUSH1 0x1 SWAP4 PUSH2 0x100 SWAP7 SWAP6 PUSH1 0x1F NOT DUP2 AND LT PUSH2 0x1A7E JUMPI JUMPDEST POP POP POP DUP2 SHL ADD PUSH1 0x2 DUP5 ADD SSTORE PUSH2 0x17C6 JUMP JUMPDEST ADD MLOAD PUSH1 0x0 NOT PUSH1 0xF8 DUP5 PUSH1 0x3 SHL AND SHR NOT AND SWAP1 SSTORE DUP13 DUP1 DUP1 PUSH2 0x1A6E JUMP JUMPDEST SWAP2 SWAP3 PUSH1 0x20 PUSH1 0x1 DUP2 SWAP3 DUP7 DUP6 ADD MLOAD DUP2 SSTORE ADD SWAP5 ADD SWAP3 ADD PUSH2 0x1A4C JUMP JUMPDEST PUSH1 0x2 DUP6 ADD PUSH1 0x0 MSTORE PUSH1 0x20 PUSH1 0x0 KECCAK256 PUSH1 0x1F DUP5 ADD PUSH1 0x5 SHR DUP2 ADD PUSH1 0x20 DUP6 LT PUSH2 0x1AEF JUMPI JUMPDEST PUSH1 0x1F DUP4 ADD PUSH1 0x5 SHR DUP3 ADD DUP2 LT PUSH2 0x1AE3 JUMPI POP POP PUSH2 0x1790 JUMP JUMPDEST PUSH1 0x0 DUP2 SSTORE PUSH1 0x1 ADD PUSH2 0x1ACD JUMP JUMPDEST POP DUP1 PUSH2 0x1ACD JUMP JUMPDEST ADD MLOAD SWAP1 POP DUP12 DUP1 PUSH2 0x174C JUMP JUMPDEST SWAP3 POP PUSH1 0x1 DUP6 ADD PUSH1 0x0 MSTORE PUSH1 0x20 PUSH1 0x0 KECCAK256 SWAP1 PUSH1 0x0 SWAP4 JUMPDEST PUSH1 0x1F NOT DUP5 AND DUP6 LT PUSH2 0x1B58 JUMPI PUSH1 0x1 SWAP5 POP DUP4 PUSH1 0x1F NOT DUP2 AND LT PUSH2 0x1B3F JUMPI JUMPDEST POP POP POP DUP2 SHL ADD PUSH1 0x1 DUP4 ADD SSTORE PUSH2 0x1764 JUMP JUMPDEST ADD MLOAD PUSH1 0x0 NOT PUSH1 0xF8 DUP5 PUSH1 0x3 SHL AND SHR NOT AND SWAP1 SSTORE DUP12 DUP1 DUP1 PUSH2 0x1B2F JUMP JUMPDEST DUP2 DUP2 ADD MLOAD DUP4 SSTORE PUSH1 0x20 SWAP5 DUP6 ADD SWAP5 PUSH1 0x1 SWAP1 SWAP4 ADD SWAP3 SWAP1 SWAP2 ADD SWAP1 PUSH2 0x1B14 JUMP JUMPDEST SWAP1 SWAP2 POP PUSH1 0x1 DUP6 ADD PUSH1 0x0 MSTORE PUSH1 0x20 PUSH1 0x0 KECCAK256 PUSH1 0x1F DUP5 ADD PUSH1 0x5 SHR DUP2 ADD PUSH1 0x20 DUP6 LT PUSH2 0x1BBF JUMPI JUMPDEST SWAP1 DUP5 SWAP4 SWAP3 SWAP2 JUMPDEST PUSH1 0x1F DUP4 ADD PUSH1 0x5 SHR DUP3 ADD DUP2 LT PUSH2 0x1BB0 JUMPI POP POP PUSH2 0x1735 JUMP JUMPDEST PUSH1 0x0 DUP2 SSTORE DUP6 SWAP5 POP PUSH1 0x1 ADD PUSH2 0x1B9A JUMP JUMPDEST POP DUP1 PUSH2 0x1B94 JUMP JUMPDEST ADD MLOAD SWAP1 POP DUP12 DUP1 PUSH2 0x16F2 JUMP JUMPDEST SWAP3 POP DUP5 PUSH1 0x0 MSTORE PUSH1 0x20 PUSH1 0x0 KECCAK256 SWAP1 PUSH1 0x0 SWAP4 JUMPDEST PUSH1 0x1F NOT DUP5 AND DUP6 LT PUSH2 0x1C22 JUMPI PUSH1 0x1 SWAP5 POP DUP4 PUSH1 0x1F NOT DUP2 AND LT PUSH2 0x1C09 JUMPI JUMPDEST POP POP POP DUP2 SHL ADD DUP3 SSTORE PUSH2 0x1707 JUMP JUMPDEST ADD MLOAD PUSH1 0x0 NOT PUSH1 0xF8 DUP5 PUSH1 0x3 SHL AND SHR NOT AND SWAP1 SSTORE DUP12 DUP1 DUP1 PUSH2 0x1BFC JUMP JUMPDEST DUP2 DUP2 ADD MLOAD DUP4 SSTORE PUSH1 0x20 SWAP5 DUP6 ADD SWAP5 PUSH1 0x1 SWAP1 SWAP4 ADD SWAP3 SWAP1 SWAP2 ADD SWAP1 PUSH2 0x1BE1 JUMP JUMPDEST SWAP1 SWAP2 POP DUP5 PUSH1 0x0 MSTORE PUSH1 0x20 PUSH1 0x0 KECCAK256 PUSH1 0x1F DUP5 ADD PUSH1 0x5 SHR DUP2 ADD PUSH1 0x20 DUP6 LT PUSH2 0x1C86 JUMPI JUMPDEST SWAP1 DUP5 SWAP4 SWAP3 SWAP2 JUMPDEST PUSH1 0x1F DUP4 ADD PUSH1 0x5 SHR DUP3 ADD DUP2 LT PUSH2 0x1C77 JUMPI POP POP PUSH2 0x16DB JUMP JUMPDEST PUSH1 0x0 DUP2 SSTORE DUP6 SWAP5 POP PUSH1 0x1 ADD PUSH2 0x1C61 JUMP JUMPDEST POP DUP1 PUSH2 0x1C5B JUMP JUMPDEST SWAP1 PUSH2 0x1960 SWAP1 PUSH2 0x230C JUMP JUMPDEST POP PUSH1 0xFF PUSH2 0x1CA7 PUSH2 0x18B1 DUP5 DUP11 PUSH2 0x2370 JUMP JUMPDEST SLOAD AND PUSH2 0x160C JUMP JUMPDEST PUSH1 0x20 SWAP1 PUSH1 0x40 MLOAD SWAP1 DUP2 MSTORE RETURN JUMPDEST PUSH1 0x40 MLOAD PUSH3 0x461BCD PUSH1 0xE5 SHL DUP2 MSTORE PUSH1 0x20 PUSH1 0x4 DUP3 ADD MSTORE PUSH1 0x18 PUSH1 0x24 DUP3 ADD MSTORE PUSH32 0x4172726179206C656E67746873206D757374206D617463680000000000000000 PUSH1 0x44 DUP3 ADD MSTORE PUSH1 0x64 SWAP1 REVERT JUMPDEST POP DUP1 MLOAD DUP5 MLOAD EQ PUSH2 0x15B0 JUMP JUMPDEST POP DUP2 MLOAD DUP2 MLOAD EQ PUSH2 0x15AA JUMP JUMPDEST SWAP1 POP DUP3 MLOAD EQ DUP7 PUSH2 0x15A3 JUMP JUMPDEST DUP3 CALLDATALOAD PUSH1 0x1 PUSH1 0x1 PUSH1 0xA0 SHL SUB DUP2 AND DUP2 SUB PUSH2 0x231 JUMPI DUP2 MSTORE PUSH1 0x20 SWAP3 DUP4 ADD SWAP3 ADD PUSH2 0x1556 JUMP JUMPDEST CALLVALUE PUSH2 0x231 JUMPI PUSH1 0x0 CALLDATASIZE PUSH1 0x3 NOT ADD SLT PUSH2 0x231 JUMPI PUSH1 0x20 PUSH1 0x5 SLOAD PUSH1 0x40 MLOAD SWAP1 DUP2 MSTORE RETURN JUMPDEST CALLVALUE PUSH2 0x231 JUMPI PUSH1 0x20 CALLDATASIZE PUSH1 0x3 NOT ADD SLT PUSH2 0x231 JUMPI PUSH1 0x4 CALLDATALOAD PUSH1 0x3 SLOAD DUP2 LT ISZERO PUSH2 0x231 JUMPI PUSH2 0x1D86 PUSH1 0x20 SWAP2 PUSH2 0x1F5B JUMP JUMPDEST SWAP1 SLOAD PUSH1 0x40 MLOAD PUSH1 0x3 SWAP3 SWAP1 SWAP3 SHL SHR PUSH1 0x1 PUSH1 0x1 PUSH1 0xA0 SHL SUB AND DUP2 MSTORE RETURN JUMPDEST CALLVALUE PUSH2 0x231 JUMPI PUSH1 0x20 CALLDATASIZE PUSH1 0x3 NOT ADD SLT PUSH2 0x231 JUMPI PUSH2 0x1DB8 PUSH2 0x1E43 JUMP JUMPDEST PUSH1 0x4 SLOAD PUSH1 0x1 PUSH1 0x1 PUSH1 0xA0 SHL SUB SWAP2 SWAP1 PUSH2 0x1DD2 SWAP1 DUP4 AND CALLER EQ PUSH2 0x2230 JUMP JUMPDEST AND DUP1 PUSH1 0x0 MSTORE PUSH1 0x0 PUSH1 0x20 MSTORE PUSH2 0x1DF0 PUSH1 0xFF PUSH1 0x5 PUSH1 0x40 PUSH1 0x0 KECCAK256 ADD SLOAD AND PUSH2 0x2384 JUMP JUMPDEST DUP1 PUSH1 0x0 MSTORE PUSH1 0x0 PUSH1 0x20 MSTORE PUSH1 0x5 PUSH1 0x40 PUSH1 0x0 KECCAK256 ADD PUSH2 0x100 PUSH2 0xFF00 NOT DUP3 SLOAD AND OR SWAP1 SSTORE PUSH32 0x35497B4C4B5DE106C5A73835869B64C116686F3F1F522434BF555D0A1345447A PUSH1 0x20 PUSH1 0x40 MLOAD TIMESTAMP DUP2 MSTORE LOG2 PUSH1 0x20 PUSH1 0x40 MLOAD PUSH1 0x1 DUP2 MSTORE RETURN JUMPDEST PUSH1 0x4 CALLDATALOAD SWAP1 PUSH1 0x1 PUSH1 0x1 PUSH1 0xA0 SHL SUB DUP3 AND DUP3 SUB PUSH2 0x231 JUMPI JUMP JUMPDEST PUSH2 0x120 DUP2 ADD SWAP1 DUP2 LT PUSH1 0x1 PUSH1 0x1 PUSH1 0x40 SHL SUB DUP3 GT OR PUSH2 0x9B7 JUMPI PUSH1 0x40 MSTORE JUMP JUMPDEST SWAP1 PUSH1 0x1F DUP1 NOT SWAP2 ADD AND DUP2 ADD SWAP1 DUP2 LT PUSH1 0x1 PUSH1 0x1 PUSH1 0x40 SHL SUB DUP3 GT OR PUSH2 0x9B7 JUMPI PUSH1 0x40 MSTORE JUMP JUMPDEST DUP2 PUSH1 0x1F DUP3 ADD SLT ISZERO PUSH2 0x231 JUMPI DUP1 CALLDATALOAD SWAP1 PUSH1 0x1 PUSH1 0x1 PUSH1 0x40 SHL SUB DUP3 GT PUSH2 0x9B7 JUMPI PUSH1 0x40 MLOAD SWAP3 PUSH2 0x1ECA PUSH1 0x1F DUP5 ADD PUSH1 0x1F NOT AND PUSH1 0x20 ADD DUP6 PUSH2 0x1E75 JUMP JUMPDEST DUP3 DUP5 MSTORE PUSH1 0x20 DUP4 DUP4 ADD ADD GT PUSH2 0x231 JUMPI DUP2 PUSH1 0x0 SWAP3 PUSH1 0x20 DUP1 SWAP4 ADD DUP4 DUP7 ADD CALLDATACOPY DUP4 ADD ADD MSTORE SWAP1 JUMP JUMPDEST PUSH1 0x0 JUMPDEST DUP4 DUP2 LT PUSH2 0x1EFF JUMPI POP POP PUSH1 0x0 SWAP2 ADD MSTORE JUMP JUMPDEST DUP2 DUP2 ADD MLOAD DUP4 DUP3 ADD MSTORE PUSH1 0x20 ADD PUSH2 0x1EEF JUMP JUMPDEST PUSH1 0x20 PUSH2 0x1F28 SWAP2 DUP2 PUSH1 0x40 MLOAD SWAP4 DUP3 DUP6 DUP1 SWAP5 MLOAD SWAP4 DUP5 SWAP3 ADD PUSH2 0x1EEC JUMP JUMPDEST DUP2 ADD PUSH1 0x1 DUP2 MSTORE SUB ADD SWAP1 KECCAK256 SWAP1 JUMP JUMPDEST PUSH1 0x20 PUSH2 0x1F4E SWAP2 DUP2 PUSH1 0x40 MLOAD SWAP4 DUP3 DUP6 DUP1 SWAP5 MLOAD SWAP4 DUP5 SWAP3 ADD PUSH2 0x1EEC JUMP JUMPDEST DUP2 ADD PUSH1 0x2 DUP2 MSTORE SUB ADD SWAP1 KECCAK256 SWAP1 JUMP JUMPDEST PUSH1 0x3 SLOAD DUP2 LT ISZERO PUSH2 0x1F92 JUMPI PUSH1 0x3 PUSH1 0x0 MSTORE PUSH32 0xC2575A0E9E593C00F959F8C92F12DB2869C3395A3B0502D05E2516446F71F85B ADD SWAP1 PUSH1 0x0 SWAP1 JUMP JUMPDEST PUSH4 0x4E487B71 PUSH1 0xE0 SHL PUSH1 0x0 MSTORE PUSH1 0x32 PUSH1 0x4 MSTORE PUSH1 0x24 PUSH1 0x0 REVERT JUMPDEST PUSH1 0x1 PUSH1 0x1 PUSH1 0x40 SHL SUB DUP2 GT PUSH2 0x9B7 JUMPI PUSH1 0x5 SHL PUSH1 0x20 ADD SWAP1 JUMP JUMPDEST SWAP1 DUP1 PUSH1 0x1F DUP4 ADD SLT ISZERO PUSH2 0x231 JUMPI DUP2 CALLDATALOAD SWAP1 PUSH2 0x1FD7 DUP3 PUSH2 0x1FA8 JUMP JUMPDEST SWAP3 PUSH2 0x1FE5 PUSH1 0x40 MLOAD SWAP5 DUP6 PUSH2 0x1E75 JUMP JUMPDEST DUP3 DUP5 MSTORE PUSH1 0x20 SWAP3 DUP4 DUP1 DUP7 ADD SWAP2 PUSH1 0x5 SHL DUP4 ADD ADD SWAP3 DUP1 DUP5 GT PUSH2 0x231 JUMPI DUP5 DUP4 ADD SWAP2 JUMPDEST DUP5 DUP4 LT PUSH2 0x2013 JUMPI POP POP POP POP POP POP SWAP1 JUMP JUMPDEST DUP3 CALLDATALOAD PUSH1 0x1 PUSH1 0x1 PUSH1 0x40 SHL SUB DUP2 GT PUSH2 0x231 JUMPI DUP7 SWAP2 PUSH2 0x2034 DUP5 DUP5 DUP1 SWAP5 DUP10 ADD ADD PUSH2 0x1E96 JUMP JUMPDEST DUP2 MSTORE ADD SWAP3 ADD SWAP2 PUSH2 0x2003 JUMP JUMPDEST SWAP1 PUSH1 0x40 PUSH1 0x3 NOT DUP4 ADD SLT PUSH2 0x231 JUMPI PUSH1 0x4 CALLDATALOAD PUSH1 0x1 PUSH1 0x1 PUSH1 0xA0 SHL SUB DUP2 AND DUP2 SUB PUSH2 0x231 JUMPI SWAP2 PUSH1 0x24 CALLDATALOAD SWAP1 PUSH1 0x1 PUSH1 0x1 PUSH1 0x40 SHL SUB DUP3 GT PUSH2 0x231 JUMPI PUSH2 0x207E SWAP2 PUSH1 0x4 ADD PUSH2 0x1E96 JUMP JUMPDEST SWAP1 JUMP JUMPDEST SWAP1 PUSH1 0x20 SWAP2 PUSH2 0x209A DUP2 MLOAD DUP1 SWAP3 DUP2 DUP6 MSTORE DUP6 DUP1 DUP7 ADD SWAP2 ADD PUSH2 0x1EEC JUMP JUMPDEST PUSH1 0x1F ADD PUSH1 0x1F NOT AND ADD ADD SWAP1 JUMP JUMPDEST SWAP1 PUSH2 0x207E SWAP2 PUSH1 0x20 DUP2 MSTORE DUP2 MLOAD SWAP1 PUSH2 0x20CA PUSH2 0x120 SWAP3 DUP4 PUSH1 0x20 DUP5 ADD MSTORE PUSH2 0x140 DUP4 ADD SWAP1 PUSH2 0x2081 JUMP JUMPDEST SWAP2 PUSH2 0x20FE PUSH2 0x20EA PUSH1 0x20 DUP7 ADD MLOAD SWAP5 PUSH1 0x1F NOT SWAP6 DUP7 DUP7 DUP4 SUB ADD PUSH1 0x40 DUP8 ADD MSTORE PUSH2 0x2081 JUMP JUMPDEST PUSH1 0x40 DUP7 ADD MLOAD DUP6 DUP6 DUP4 SUB ADD PUSH1 0x60 DUP7 ADD MSTORE PUSH2 0x2081 JUMP JUMPDEST SWAP4 PUSH1 0x1 DUP1 PUSH1 0xA0 SHL SUB PUSH1 0x60 DUP3 ADD MLOAD AND PUSH1 0x80 DUP5 ADD MSTORE PUSH1 0x80 DUP2 ADD MLOAD PUSH1 0xA0 DUP5 ADD MSTORE PUSH1 0xA0 DUP2 ADD MLOAD ISZERO ISZERO PUSH1 0xC0 DUP5 ADD MSTORE PUSH1 0xC0 DUP2 ADD MLOAD ISZERO ISZERO PUSH1 0xE0 DUP5 ADD MSTORE PUSH1 0xE0 DUP2 ADD MLOAD SWAP1 PUSH2 0x100 SWAP2 DUP3 DUP6 ADD MSTORE ADD MLOAD SWAP3 DUP3 DUP6 SUB ADD SWAP2 ADD MSTORE PUSH2 0x2081 JUMP JUMPDEST SWAP1 PUSH1 0x1 DUP3 DUP2 SHR SWAP3 AND DUP1 ISZERO PUSH2 0x2180 JUMPI JUMPDEST PUSH1 0x20 DUP4 LT EQ PUSH2 0x216A JUMPI JUMP JUMPDEST PUSH4 0x4E487B71 PUSH1 0xE0 SHL PUSH1 0x0 MSTORE PUSH1 0x22 PUSH1 0x4 MSTORE PUSH1 0x24 PUSH1 0x0 REVERT JUMPDEST SWAP2 PUSH1 0x7F AND SWAP2 PUSH2 0x215F JUMP JUMPDEST SWAP1 PUSH1 0x40 MLOAD SWAP2 DUP3 PUSH1 0x0 DUP3 SLOAD SWAP3 PUSH2 0x219E DUP5 PUSH2 0x2150 JUMP JUMPDEST SWAP1 DUP2 DUP5 MSTORE PUSH1 0x1 SWAP5 DUP6 DUP2 AND SWAP1 DUP2 PUSH1 0x0 EQ PUSH2 0x220D JUMPI POP PUSH1 0x1 EQ PUSH2 0x21CA JUMPI JUMPDEST POP POP PUSH2 0x21C8 SWAP3 POP SUB DUP4 PUSH2 0x1E75 JUMP JUMPDEST JUMP JUMPDEST SWAP1 SWAP4 SWAP2 POP PUSH1 0x0 MSTORE PUSH1 0x20 SWAP1 DUP2 PUSH1 0x0 KECCAK256 SWAP4 PUSH1 0x0 SWAP2 JUMPDEST DUP2 DUP4 LT PUSH2 0x21F5 JUMPI POP POP PUSH2 0x21C8 SWAP4 POP DUP3 ADD ADD CODESIZE DUP1 PUSH2 0x21BA JUMP JUMPDEST DUP6 SLOAD DUP9 DUP5 ADD DUP6 ADD MSTORE SWAP5 DUP6 ADD SWAP5 DUP8 SWAP5 POP SWAP2 DUP4 ADD SWAP2 PUSH2 0x21DD JUMP JUMPDEST SWAP2 POP POP PUSH2 0x21C8 SWAP5 POP PUSH1 0x20 SWAP3 POP PUSH1 0xFF NOT AND DUP3 DUP5 ADD MSTORE ISZERO ISZERO PUSH1 0x5 SHL DUP3 ADD ADD CODESIZE DUP1 PUSH2 0x21BA JUMP JUMPDEST ISZERO PUSH2 0x2237 JUMPI JUMP JUMPDEST PUSH1 0x40 MLOAD PUSH3 0x461BCD PUSH1 0xE5 SHL DUP2 MSTORE PUSH1 0x20 PUSH1 0x4 DUP3 ADD MSTORE PUSH1 0x22 PUSH1 0x24 DUP3 ADD MSTORE PUSH32 0x4F6E6C792061646D696E2063616E20706572666F726D20746869732061637469 PUSH1 0x44 DUP3 ADD MSTORE PUSH2 0x37B7 PUSH1 0xF1 SHL PUSH1 0x64 DUP3 ADD MSTORE PUSH1 0x84 SWAP1 REVERT JUMPDEST ISZERO PUSH2 0x228E JUMPI JUMP JUMPDEST PUSH1 0x40 MLOAD PUSH3 0x461BCD PUSH1 0xE5 SHL DUP2 MSTORE PUSH1 0x20 PUSH1 0x4 DUP3 ADD MSTORE PUSH1 0x14 PUSH1 0x24 DUP3 ADD MSTORE PUSH20 0x4E616D652063616E6E6F7420626520656D707479 PUSH1 0x60 SHL PUSH1 0x44 DUP3 ADD MSTORE PUSH1 0x64 SWAP1 REVERT JUMPDEST PUSH1 0x3 SLOAD PUSH9 0x10000000000000000 DUP2 LT ISZERO PUSH2 0x9B7 JUMPI DUP1 PUSH1 0x1 PUSH2 0x22EE SWAP3 ADD PUSH1 0x3 SSTORE PUSH2 0x1F5B JUMP JUMPDEST DUP2 SWAP3 SWAP2 SLOAD SWAP1 PUSH1 0x3 SHL SWAP2 PUSH1 0x1 DUP1 PUSH1 0xA0 SHL SUB DUP1 SWAP2 AND DUP4 SHL SWAP3 SHL NOT AND OR SWAP1 SSTORE JUMP JUMPDEST PUSH1 0x0 NOT DUP2 EQ PUSH2 0x231B JUMPI PUSH1 0x1 ADD SWAP1 JUMP JUMPDEST PUSH4 0x4E487B71 PUSH1 0xE0 SHL PUSH1 0x0 MSTORE PUSH1 0x11 PUSH1 0x4 MSTORE PUSH1 0x24 PUSH1 0x0 REVERT JUMPDEST SWAP5 SWAP4 SWAP3 PUSH2 0x235D PUSH1 0x60 SWAP4 PUSH2 0x234F PUSH2 0x236B SWAP5 PUSH1 0x80 DUP11 MSTORE PUSH1 0x80 DUP11 ADD SWAP1 PUSH2 0x2081 JUMP JUMPDEST SWAP1 DUP9 DUP3 SUB PUSH1 0x20 DUP11 ADD MSTORE PUSH2 0x2081 JUMP JUMPDEST SWAP1 DUP7 DUP3 SUB PUSH1 0x40 DUP9 ADD MSTORE PUSH2 0x2081 JUMP JUMPDEST SWAP4 ADD MSTORE JUMP JUMPDEST DUP1 MLOAD DUP3 LT ISZERO PUSH2 0x1F92 JUMPI PUSH1 0x20 SWAP2 PUSH1 0x5 SHL ADD ADD SWAP1 JUMP JUMPDEST ISZERO PUSH2 0x238B JUMPI JUMP JUMPDEST PUSH1 0x40 MLOAD PUSH3 0x461BCD PUSH1 0xE5 SHL DUP2 MSTORE PUSH1 0x20 PUSH1 0x4 DUP3 ADD MSTORE PUSH1 0x19 PUSH1 0x24 DUP3 ADD MSTORE PUSH32 0x556E6976657273697479206E6F74207265676973746572656400000000000000 PUSH1 0x44 DUP3 ADD MSTORE PUSH1 0x64 SWAP1 REVERT JUMPDEST PUSH1 0x40 MLOAD SWAP1 PUSH2 0x23DD DUP3 PUSH2 0x1E59 JUMP JUMPDEST PUSH1 0x60 PUSH2 0x100 DUP4 DUP3 DUP2 MSTORE DUP3 PUSH1 0x20 DUP3 ADD MSTORE DUP3 PUSH1 0x40 DUP3 ADD MSTORE PUSH1 0x0 DUP4 DUP3 ADD MSTORE PUSH1 0x0 PUSH1 0x80 DUP3 ADD MSTORE PUSH1 0x0 PUSH1 0xA0 DUP3 ADD MSTORE PUSH1 0x0 PUSH1 0xC0 DUP3 ADD MSTORE PUSH1 0x0 PUSH1 0xE0 DUP3 ADD MSTORE ADD MSTORE JUMP INVALID LOG2 PUSH5 0x6970667358 0x22 SLT KECCAK256 CREATE STATICCALL DUP16 REVERT 0xF9 0xCD GAS 0xB9 0xC0 TIMESTAMP EXTCODEHASH PUSH7 0xC4CB905E43DF12 DUP7 PREVRANDAO CODESIZE SUB 0xD4 0xB7 0xD5 0xCF PUSH24 0xE8B75C7C64736F6C63430008140033000000000000000000 "},"methodIdentifiers":{"activateUniversity(address)":"057ac9c8","admin()":"f851a440","batchRegisterUniversities(string[],string[],string[],address[],string[])":"53d53a3a","changeUniversityStatus(address,string)":"5feb9ee2","deactivateUniversity(address)":"ba3c6a08","emailExists(string)":"2be46c3c","getAllUniversityAddresses()":"b9b3bb36","getTotalUniversities()":"42e2dbda","getUniversity(address)":"94a59ea6","getUniversityByIndex(uint256)":"fe48ca3f","incrementCertificateCount(address)":"f466fe13","isEmailRegistered(string)":"df3cdad7","isUniversityActive(address)":"f291c3e0","isUniversityRegistered(address)":"e0aad414","isUsernameTaken(string)":"176c5919","registerUniversity(string,string,string,address,string)":"5d8d3d45","totalUniversities()":"5216f3c4","transferAdmin(address)":"75829def","universities(address)":"f0995560","universityAddresses(uint256)":"34ed2694","updateUniversityName(address,string)":"68a1692e","usernameExists(string)":"f309e3f9"}}}}}