{
  "_format": "hh-sol-artifact-1",
  "contractName": "UniversityRegistrySepolia",
  "sourceName": "contracts/UniversityRegistrySepolia.sol",
  "abi": [
    {
      "inputs": [],
      "stateMutability": "nonpayable",
      "type": "constructor"
    },
    {
      "anonymous": false,
      "inputs": [
        {
          "indexed": true,
          "internalType": "address",
          "name": "walletAddress",
          "type": "address"
        },
        {
          "indexed": false,
          "internalType": "uint256",
          "name": "newCount",
          "type": "uint256"
        }
      ],
      "name": "CertificateCountIncremented",
      "type": "event"
    },
    {
      "anonymous": false,
      "inputs": [
        {
          "indexed": true,
          "internalType": "address",
          "name": "walletAddress",
          "type": "address"
        },
        {
          "indexed": false,
          "internalType": "uint256",
          "name": "timestamp",
          "type": "uint256"
        }
      ],
      "name": "UniversityActivated",
      "type": "event"
    },
    {
      "anonymous": false,
      "inputs": [
        {
          "indexed": true,
          "internalType": "address",
          "name": "walletAddress",
          "type": "address"
        },
        {
          "indexed": false,
          "internalType": "uint256",
          "name": "timestamp",
          "type": "uint256"
        }
      ],
      "name": "UniversityDeactivated",
      "type": "event"
    },
    {
      "anonymous": false,
      "inputs": [
        {
          "indexed": true,
          "internalType": "address",
          "name": "walletAddress",
          "type": "address"
        },
        {
          "indexed": false,
          "internalType": "string",
          "name": "name",
          "type": "string"
        },
        {
          "indexed": false,
          "internalType": "string",
          "name": "email",
          "type": "string"
        },
        {
          "indexed": false,
          "internalType": "string",
          "name": "username",
          "type": "string"
        },
        {
          "indexed": false,
          "internalType": "uint256",
          "name": "timestamp",
          "type": "uint256"
        }
      ],
      "name": "UniversityRegistered",
      "type": "event"
    },
    {
      "anonymous": false,
      "inputs": [
        {
          "indexed": true,
          "internalType": "address",
          "name": "walletAddress",
          "type": "address"
        },
        {
          "indexed": false,
          "internalType": "string",
          "name": "newStatus",
          "type": "string"
        },
        {
          "indexed": false,
          "internalType": "uint256",
          "name": "timestamp",
          "type": "uint256"
        }
      ],
      "name": "UniversityStatusChanged",
      "type": "event"
    },
    {
      "anonymous": false,
      "inputs": [
        {
          "indexed": true,
          "internalType": "address",
          "name": "walletAddress",
          "type": "address"
        },
        {
          "indexed": false,
          "internalType": "string",
          "name": "name",
          "type": "string"
        },
        {
          "indexed": false,
          "internalType": "uint256",
          "name": "timestamp",
          "type": "uint256"
        }
      ],
      "name": "UniversityUpdated",
      "type": "event"
    },
    {
      "inputs": [
        {
          "internalType": "address",
          "name": "_walletAddress",
          "type": "address"
        }
      ],
      "name": "activateUniversity",
      "outputs": [
        {
          "internalType": "bool",
          "name": "",
          "type": "bool"
        }
      ],
      "stateMutability": "nonpayable",
      "type": "function"
    },
    {
      "inputs": [],
      "name": "admin",
      "outputs": [
        {
          "internalType": "address",
          "name": "",
          "type": "address"
        }
      ],
      "stateMutability": "view",
      "type": "function"
    },
    {
      "inputs": [
        {
          "internalType": "string[]",
          "name": "_names",
          "type": "string[]"
        },
        {
          "internalType": "string[]",
          "name": "_usernames",
          "type": "string[]"
        },
        {
          "internalType": "string[]",
          "name": "_emails",
          "type": "string[]"
        },
        {
          "internalType": "address[]",
          "name": "_walletAddresses",
          "type": "address[]"
        },
        {
          "internalType": "string[]",
          "name": "_statuses",
          "type": "string[]"
        }
      ],
      "name": "batchRegisterUniversities",
      "outputs": [
        {
          "internalType": "uint256",
          "name": "",
          "type": "uint256"
        }
      ],
      "stateMutability": "nonpayable",
      "type": "function"
    },
    {
      "inputs": [
        {
          "internalType": "address",
          "name": "_walletAddress",
          "type": "address"
        },
        {
          "internalType": "string",
          "name": "_status",
          "type": "string"
        }
      ],
      "name": "changeUniversityStatus",
      "outputs": [
        {
          "internalType": "bool",
          "name": "",
          "type": "bool"
        }
      ],
      "stateMutability": "nonpayable",
      "type": "function"
    },
    {
      "inputs": [
        {
          "internalType": "address",
          "name": "_walletAddress",
          "type": "address"
        }
      ],
      "name": "deactivateUniversity",
      "outputs": [
        {
          "internalType": "bool",
          "name": "",
          "type": "bool"
        }
      ],
      "stateMutability": "nonpayable",
      "type": "function"
    },
    {
      "inputs": [
        {
          "internalType": "string",
          "name": "",
          "type": "string"
        }
      ],
      "name": "emailExists",
      "outputs": [
        {
          "internalType": "bool",
          "name": "",
          "type": "bool"
        }
      ],
      "stateMutability": "view",
      "type": "function"
    },
    {
      "inputs": [],
      "name": "getAllUniversityAddresses",
      "outputs": [
        {
          "internalType": "address[]",
          "name": "",
          "type": "address[]"
        }
      ],
      "stateMutability": "view",
      "type": "function"
    },
    {
      "inputs": [],
      "name": "getTotalUniversities",
      "outputs": [
        {
          "internalType": "uint256",
          "name": "",
          "type": "uint256"
        }
      ],
      "stateMutability": "view",
      "type": "function"
    },
    {
      "inputs": [
        {
          "internalType": "address",
          "name": "_walletAddress",
          "type": "address"
        }
      ],
      "name": "getUniversity",
      "outputs": [
        {
          "components": [
            {
              "internalType": "string",
              "name": "name",
              "type": "string"
            },
            {
              "internalType": "string",
              "name": "username",
              "type": "string"
            },
            {
              "internalType": "string",
              "name": "email",
              "type": "string"
            },
            {
              "internalType": "address",
              "name": "walletAddress",
              "type": "address"
            },
            {
              "internalType": "uint256",
              "name": "registrationTimestamp",
              "type": "uint256"
            },
            {
              "internalType": "bool",
              "name": "isRegistered",
              "type": "bool"
            },
            {
              "internalType": "bool",
              "name": "isActive",
              "type": "bool"
            },
            {
              "internalType": "uint256",
              "name": "certificatesIssued",
              "type": "uint256"
            },
            {
              "internalType": "string",
              "name": "status",
              "type": "string"
            }
          ],
          "internalType": "struct UniversityRegistrySepolia.University",
          "name": "",
          "type": "tuple"
        }
      ],
      "stateMutability": "view",
      "type": "function"
    },
    {
      "inputs": [
        {
          "internalType": "uint256",
          "name": "_index",
          "type": "uint256"
        }
      ],
      "name": "getUniversityByIndex",
      "outputs": [
        {
          "components": [
            {
              "internalType": "string",
              "name": "name",
              "type": "string"
            },
            {
              "internalType": "string",
              "name": "username",
              "type": "string"
            },
            {
              "internalType": "string",
              "name": "email",
              "type": "string"
            },
            {
              "internalType": "address",
              "name": "walletAddress",
              "type": "address"
            },
            {
              "internalType": "uint256",
              "name": "registrationTimestamp",
              "type": "uint256"
            },
            {
              "internalType": "bool",
              "name": "isRegistered",
              "type": "bool"
            },
            {
              "internalType": "bool",
              "name": "isActive",
              "type": "bool"
            },
            {
              "internalType": "uint256",
              "name": "certificatesIssued",
              "type": "uint256"
            },
            {
              "internalType": "string",
              "name": "status",
              "type": "string"
            }
          ],
          "internalType": "struct UniversityRegistrySepolia.University",
          "name": "",
          "type": "tuple"
        }
      ],
      "stateMutability": "view",
      "type": "function"
    },
    {
      "inputs": [
        {
          "internalType": "address",
          "name": "_walletAddress",
          "type": "address"
        }
      ],
      "name": "incrementCertificateCount",
      "outputs": [
        {
          "internalType": "bool",
          "name": "",
          "type": "bool"
        }
      ],
      "stateMutability": "nonpayable",
      "type": "function"
    },
    {
      "inputs": [
        {
          "internalType": "string",
          "name": "_email",
          "type": "string"
        }
      ],
      "name": "isEmailRegistered",
      "outputs": [
        {
          "internalType": "bool",
          "name": "",
          "type": "bool"
        }
      ],
      "stateMutability": "view",
      "type": "function"
    },
    {
      "inputs": [
        {
          "internalType": "address",
          "name": "_walletAddress",
          "type": "address"
        }
      ],
      "name": "isUniversityActive",
      "outputs": [
        {
          "internalType": "bool",
          "name": "",
          "type": "bool"
        }
      ],
      "stateMutability": "view",
      "type": "function"
    },
    {
      "inputs": [
        {
          "internalType": "address",
          "name": "_walletAddress",
          "type": "address"
        }
      ],
      "name": "isUniversityRegistered",
      "outputs": [
        {
          "internalType": "bool",
          "name": "",
          "type": "bool"
        }
      ],
      "stateMutability": "view",
      "type": "function"
    },
    {
      "inputs": [
        {
          "internalType": "string",
          "name": "_username",
          "type": "string"
        }
      ],
      "name": "isUsernameTaken",
      "outputs": [
        {
          "internalType": "bool",
          "name": "",
          "type": "bool"
        }
      ],
      "stateMutability": "view",
      "type": "function"
    },
    {
      "inputs": [
        {
          "internalType": "string",
          "name": "_name",
          "type": "string"
        },
        {
          "internalType": "string",
          "name": "_username",
          "type": "string"
        },
        {
          "internalType": "string",
          "name": "_email",
          "type": "string"
        },
        {
          "internalType": "address",
          "name": "_walletAddress",
          "type": "address"
        },
        {
          "internalType": "string",
          "name": "_status",
          "type": "string"
        }
      ],
      "name": "registerUniversity",
      "outputs": [
        {
          "internalType": "bool",
          "name": "",
          "type": "bool"
        }
      ],
      "stateMutability": "nonpayable",
      "type": "function"
    },
    {
      "inputs": [],
      "name": "totalUniversities",
      "outputs": [
        {
          "internalType": "uint256",
          "name": "",
          "type": "uint256"
        }
      ],
      "stateMutability": "view",
      "type": "function"
    },
    {
      "inputs": [
        {
          "internalType": "address",
          "name": "_newAdmin",
          "type": "address"
        }
      ],
      "name": "transferAdmin",
      "outputs": [],
      "stateMutability": "nonpayable",
      "type": "function"
    },
    {
      "inputs": [
        {
          "internalType": "address",
          "name": "",
          "type": "address"
        }
      ],
      "name": "universities",
      "outputs": [
        {
          "internalType": "string",
          "name": "name",
          "type": "string"
        },
        {
          "internalType": "string",
          "name": "username",
          "type": "string"
        },
        {
          "internalType": "string",
          "name": "email",
          "type": "string"
        },
        {
          "internalType": "address",
          "name": "walletAddress",
          "type": "address"
        },
        {
          "internalType": "uint256",
          "name": "registrationTimestamp",
          "type": "uint256"
        },
        {
          "internalType": "bool",
          "name": "isRegistered",
          "type": "bool"
        },
        {
          "internalType": "bool",
          "name": "isActive",
          "type": "bool"
        },
        {
          "internalType": "uint256",
          "name": "certificatesIssued",
          "type": "uint256"
        },
        {
          "internalType": "string",
          "name": "status",
          "type": "string"
        }
      ],
      "stateMutability": "view",
      "type": "function"
    },
    {
      "inputs": [
        {
          "internalType": "uint256",
          "name": "",
          "type": "uint256"
        }
      ],
      "name": "universityAddresses",
      "outputs": [
        {
          "internalType": "address",
          "name": "",
          "type": "address"
        }
      ],
      "stateMutability": "view",
      "type": "function"
    },
    {
      "inputs": [
        {
          "internalType": "address",
          "name": "_walletAddress",
          "type": "address"
        },
        {
          "internalType": "string",
          "name": "_name",
          "type": "string"
        }
      ],
      "name": "updateUniversityName",
      "outputs": [
        {
          "internalType": "bool",
          "name": "",
          "type": "bool"
        }
      ],
      "stateMutability": "nonpayable",
      "type": "function"
    },
    {
      "inputs": [
        {
          "internalType": "string",
          "name": "",
          "type": "string"
        }
      ],
      "name": "usernameExists",
      "outputs": [
        {
          "internalType": "bool",
          "name": "",
          "type": "bool"
        }
      ],
      "stateMutability": "view",
      "type": "function"
    }
  ],
  "bytecode": "0x6080806040523461002857600480546001600160a01b0319163317905561244e908161002e8239f35b600080fdfe6080604052600436101561001257600080fd5b60003560e01c8063057ac9c814611d9f578063176c5919146103545780632be46c3c1461053b57806334ed269414611d5d57806342e2dbda14611d3f5780635216f3c414611d3f57806353d53a3a146114905780635d8d3d4514610b635780635feb9ee2146109cd57806368a1692e146107e057806375829def1461075e57806394a59ea6146106f1578063b9b3bb3614610629578063ba3c6a0814610589578063df3cdad71461053b578063e0aad414146104f9578063f09955601461040e578063f291c3e0146103b5578063f309e3f914610354578063f466fe131461025f578063f851a440146102365763fe48ca3f1461010e57600080fd5b346102315760203660031901126102315760043561012a6123d0565b506003548110156101f6576101416101f291611f5b565b9060018060a01b03918291549060031b1c1660005260006020526101e0600760406000206040519361017285611e59565b61017b8261218a565b85526101896001830161218a565b602086015261019a6002830161218a565b604086015260038201541660608501526004810154608085015260ff6005820154818116151560a087015260081c16151560c0850152600681015460e08501520161218a565b610100820152604051918291826120a6565b0390f35b60405162461bcd60e51b8152602060048201526013602482015272496e646578206f7574206f6620626f756e647360681b6044820152606490fd5b600080fd5b34610231576000366003190112610231576004546040516001600160a01b039091168152602090f35b3461023157602080600319360112610231576001600160a01b0380610282611e43565b169081600052600083526102a060ff60056040600020015416612384565b813314908115610346575b501561031057806000526000825260066040600020016102cb815461230c565b905580600052600082527fd3a5f69326ec2a618b432330b63b78a5776ac811b1c9e75b10d33a8fbed1d74e82600660406000200154604051908152a260405160018152f35b60405162461bcd60e51b815260048101839052600e60248201526d139bdd08185d5d1a1bdc9a5e995960921b6044820152606490fd5b9050600454163314836102ab565b34610231576020366003190112610231576004356001600160401b0381116102315760ff61039f602061038c81943690600401611e96565b8160405193828580945193849201611eec565b8101600281520301902054166040519015158152f35b34610231576020366003190112610231576001600160a01b036103d6611e43565b166000526000602052602060056040600020015460ff81169081610400575b506040519015158152f35b60ff915060081c16826103f5565b34610231576020366003190112610231576104aa6001600160a01b0380610433611e43565b1660005260006020526101f260406000209161044e8361218a565b9261045b6001820161218a565b9060ff61046a6002830161218a565b936003830154169360048301546104c66005850154926104b861049460076006890154980161218a565b976040519c8d9c8d610120908181520190612081565b8c810360208e015290612081565b908a820360408c0152612081565b9560608901526080880152818116151560a088015260081c16151560c086015260e0850152838203610100850152612081565b34610231576020366003190112610231576001600160a01b0361051a611e43565b166000526000602052602060ff600560406000200154166040519015158152f35b34610231576020366003190112610231576004356001600160401b0381116102315760ff610573602061038c81943690600401611e96565b8101600181520301902054166040519015158152f35b34610231576020366003190112610231576105a2611e43565b6004546001600160a01b0391906105bc9083163314612230565b168060005260006020526105da60ff60056040600020015416612384565b806000526000602052600560406000200161ff001981541690557fe11bb286ba108eb990fcbf07e4231247811a168c5a1f3a05efc9ddae4dc94e226020604051428152a2602060405160018152f35b3461023157600036600319011261023157604051806003548083526020809301809160036000527fc2575a0e9e593c00f959f8c92f12db2869c3395a3b0502d05e2516446f71f85b9060005b868282106106d457868661068b82880383611e75565b604051928392818401908285525180915260408401929160005b8281106106b457505050500390f35b83516001600160a01b0316855286955093810193928101926001016106a5565b83546001600160a01b031685529093019260019283019201610675565b34610231576020366003190112610231576101f261070d611e43565b6107156123d0565b506001600160a01b0390811660008181526020819052604090206005015461073f9060ff16612384565b60005260006020526101e0600760406000206040519361017285611e59565b3461023157602036600319011261023157610777611e43565b600454906001600160a01b03906107913383851614612230565b169081156107a9576001600160a01b03191617600455005b60405162461bcd60e51b815260206004820152600f60248201526e496e76616c6964206164647265737360881b6044820152606490fd5b34610231576107ee3661203f565b60045490916001600160a01b03916108099083163314612230565b16806000526020916000835261082960ff60056040600020015416612384565b61083581511515612287565b8160005260008352604060002081516001600160401b0381116109b75761085c8254612150565b601f8111610971575b5084601f82116001146108e75791817f4e2f4332f1d9bd6107a5fcbbd43a6a5eaa1edbd011782ed56e198aaca2e5dda994926108cb946000916108dc575b508160011b916000199060031b1c19161790555b604051918291604083526040830190612081565b42868301520390a260405160018152f35b9050830151886108a3565b601f1982169083600052866000209160005b8882821061095b575050926108cb9492600192827f4e2f4332f1d9bd6107a5fcbbd43a6a5eaa1edbd011782ed56e198aaca2e5dda9989610610942575b5050811b0190556108b7565b85015160001960f88460031b161c191690558880610936565b600184958293958a0151815501940192016108f9565b8260005285600020601f830160051c8101918784106109ad575b601f0160051c01905b8181106109a15750610865565b60008155600101610994565b909150819061098b565b634e487b7160e01b600052604160045260246000fd5b34610231576109db3661203f565b60045490916001600160a01b03916109f69083163314612230565b168060005260209160008352610a1660ff60056040600020015416612384565b8160005260008352600760406000200181516001600160401b0381116109b757610a408254612150565b601f8111610b1d575b5084601f8211600114610aad5791817f0a7275c9afb601e81c5f14059c95a2642f0b8c9155b709e23077d474efd9788494926108cb946000916108dc57508160011b916000199060031b1c1916179055604051918291604083526040830190612081565b601f1982169083600052866000209160005b88828210610b07575050926108cb9492600192827f0a7275c9afb601e81c5f14059c95a2642f0b8c9155b709e23077d474efd97884989610610942575050811b0190556108b7565b600184958293958a015181550194019201610abf565b8260005285600020601f830160051c810191878410610b59575b601f0160051c01905b818110610b4d5750610a49565b60008155600101610b40565b9091508190610b37565b346102315760a0366003190112610231576004356001600160401b03811161023157610b93903690600401611e96565b6024356001600160401b03811161023157610bb2903690600401611e96565b906044356001600160401b03811161023157610bd2903690600401611e96565b906064356001600160a01b0381169003610231576084356001600160401b03811161023157610c05903690600401611e96565b92610c1b60018060a01b03600454163314612230565b6064356001600160a01b031660009081526020819052604090206005015460ff1661144b57610c4c82511515612287565b805115611406578251156113c9576064356001600160a01b03161561138b5760ff6040516020818651610c828183858b01611eec565b60018183015281010301902054166113465760ff6040516020818451610cab8183858901611eec565b8101600281520301902054166113085760405193610cc885611e59565b82855281602086015283604086015260018060a01b03606435166060860152426080860152600160a0860152600160c0860152600060e086015261010085015260018060a01b0360643516600052600060205260406000209380518051906001600160401b0382116109b7578190610d408854612150565b601f81116112b8575b50602090601f831160011461124c57600092611241575b50508160011b916000199060031b1c19161785555b60208101518051906001600160401b0382116109b7578190610d9a6001890154612150565b601f81116111ee575b50602090601f831160011461117c57600092611171575b50508160011b916000199060031b1c19161760018601555b60408101518051906001600160401b0382116109b757610df56002880154612150565b601f811161112a575b50602090601f83116001146110b657610100939291600091836110ab575b50508160011b916000199060031b1c19161760028701555b6003860160018060a01b036060830151166bffffffffffffffffffffffff60a01b82541617905560808101516004870155610ea360058701610e8860a08401511515829060ff801983541691151516179055565b60c0830151815461ff00191690151560081b61ff0016179055565b60e081015160068701550151938451946001600160401b0386116109b757610ece6007830154612150565b601f8111611064575b50602090601f8711600114610fd25795806007927f71746edc8b9676283675a19a6753778bd1fc4978ae4c8a92cd1151ba1422d19d9798600092610fc7575b50508160011b916000199060031b1c1916179101555b6040516020818651610f418183858b01611eec565b8101600181520301902060ff199060018282541617905560016040516020818551610f6f8183858a01611eec565b8101600281520301902091825416179055610f8b6064356122ca565b610f9660055461230c565b6005556040516064356001600160a01b03169490928392610fb992429285612331565b0390a2602060405160018152f35b015190508880610f16565b906007830160005260206000209160005b601f198916811061104c5750966007926001927f71746edc8b9676283675a19a6753778bd1fc4978ae4c8a92cd1151ba1422d19d989983601f19811610611033575b505050811b01910155610f2c565b015160001960f88460031b161c19169055888080611025565b91926020600181928685015181550194019201610fe3565b600783016000526020600020601f880160051c8101602089106110a4575b601f830160051c82018110611098575050610ed7565b60008155600101611082565b5080611082565b015190508880610e1c565b906002880160005260206000209160005b601f198516811061111257509183916001936101009695601f198116106110f9575b505050811b016002870155610e34565b015160001960f88460031b161c191690558880806110e9565b919260206001819286850151815501940192016110c7565b600288016000526020600020601f840160051c81016020851061116a575b601f830160051c8201811061115e575050610dfe565b60008155600101611148565b5080611148565b015190508780610dba565b9250600188016000526020600020906000935b601f19841685106111d3576001945083601f198116106111ba575b505050811b016001860155610dd2565b015160001960f88460031b161c191690558780806111aa565b8181015183556020948501946001909301929091019061118f565b909150600188016000526020600020601f840160051c81016020851061123a575b90849392915b601f830160051c8201811061122b575050610da3565b60008155859450600101611215565b508061120f565b015190508780610d60565b9250876000526020600020906000935b601f198416851061129d576001945083601f19811610611284575b505050811b018555610d75565b015160001960f88460031b161c19169055878080611277565b8181015183556020948501946001909301929091019061125c565b909150876000526020600020601f840160051c810160208510611301575b90849392915b601f830160051c820181106112f2575050610d49565b600081558594506001016112dc565b50806112d6565b60405162461bcd60e51b81526020600482015260166024820152752ab9b2b93730b6b29030b63932b0b23c903a30b5b2b760511b6044820152606490fd5b60405162461bcd60e51b815260206004820152601860248201527f456d61696c20616c7265616479207265676973746572656400000000000000006044820152606490fd5b60405162461bcd60e51b8152602060048201526016602482015275496e76616c69642077616c6c6574206164647265737360501b6044820152606490fd5b60405162461bcd60e51b8152602060048201526015602482015274456d61696c2063616e6e6f7420626520656d70747960581b6044820152606490fd5b60405162461bcd60e51b815260206004820152601860248201527f557365726e616d652063616e6e6f7420626520656d70747900000000000000006044820152606490fd5b60405162461bcd60e51b815260206004820152601d60248201527f556e697665727369747920616c726561647920726567697374657265640000006044820152606490fd5b346102315760a0366003190112610231576004356001600160401b038111610231576114c0903690600401611fbf565b6024356001600160401b038111610231576114df903690600401611fbf565b906044356001600160401b038111610231576114ff903690600401611fbf565b90606435916001600160401b038311610231573660238401121561023157826004013561152b81611fa8565b936115396040519586611e75565b8185526024602086019260051b8201019036821161023157602401915b818310611d1f575050506084356001600160401b0381116102315761157f903690600401611fbf565b9261159560018060a01b03600454163314612230565b825185518091149081611d14575b5080611d09575b80611cfe575b15611cb9576000805b8251821015611cae576001600160a01b036115d48385612370565b5116600052600060205260ff60056040600020015416611c8d5760ff6116036115fd8487612370565b51611f0f565b54168015611c97575b611c8d5761161a8286612370565b516116258389612370565b516116308487612370565b516001600160a01b036116438688612370565b511690611650868b612370565b51926040519461165f86611e59565b8552602085015260408401526060830152426080830152600160a0830181905260c0830152600060e08301526101008201526001600160a01b036116a38486612370565b5116600052600060205260406000209080518051906001600160401b0382116109b75781906116d28554612150565b601f8111611c3d575b50602090601f8311600114611bd157600092611bc6575b50508160011b916000199060031b1c19161782555b60208101518051906001600160401b0382116109b757819061172c6001860154612150565b601f8111611b73575b50602090601f8311600114611b0157600092611af6575b50508160011b916000199060031b1c19161760018301555b60408101518051906001600160401b0382116109b7576117876002850154612150565b601f8111611aaf575b50602090601f8311600114611a3b5761010093929160009183611a30575b50508160011b916000199060031b1c19161760028401555b6003830160018060a01b036060830151166bffffffffffffffffffffffff60a01b8254161790556080810151600484015561181a60058401610e8860a08401511515829060ff801983541691151516179055565b60e0810151600684015501518051906001600160401b0382116109b7576118446007840154612150565b601f81116119e9575b50602090601f8311600114611971578261196095936118ee9593600793600092611966575b50508160011b916000199060031b1c1916179101555b6118956115fd8588612370565b60ff199060018282541617905560016118b76118b1878d612370565b51611f35565b80549092161790556118db6001600160a01b036118d48688612370565b51166122ca565b6118e660055461230c565b60055561230c565b916001600160a01b036119018286612370565b51167f71746edc8b9676283675a19a6753778bd1fc4978ae4c8a92cd1151ba1422d19d61192e8389612370565b518a61195861194886611941818d612370565b5193612370565b5192604051938493429285612331565b0390a261230c565b906115b9565b015190508d80611872565b906007840160005260206000209160005b601f19851681106119d15750836118ee95936007936001936119609997601f198116106119b8575b505050811b01910155611888565b015160001960f88460031b161c191690558d80806119aa565b91926020600181928685015181550194019201611982565b600784016000526020600020601f840160051c810160208510611a29575b601f830160051c82018110611a1d57505061184d565b60008155600101611a07565b5080611a07565b015190508c806117ae565b906002850160005260206000209160005b601f1985168110611a9757509183916001936101009695601f19811610611a7e575b505050811b0160028401556117c6565b015160001960f88460031b161c191690558c8080611a6e565b91926020600181928685015181550194019201611a4c565b600285016000526020600020601f840160051c810160208510611aef575b601f830160051c82018110611ae3575050611790565b60008155600101611acd565b5080611acd565b015190508b8061174c565b9250600185016000526020600020906000935b601f1984168510611b58576001945083601f19811610611b3f575b505050811b016001830155611764565b015160001960f88460031b161c191690558b8080611b2f565b81810151835560209485019460019093019290910190611b14565b909150600185016000526020600020601f840160051c810160208510611bbf575b90849392915b601f830160051c82018110611bb0575050611735565b60008155859450600101611b9a565b5080611b94565b015190508b806116f2565b9250846000526020600020906000935b601f1984168510611c22576001945083601f19811610611c09575b505050811b018255611707565b015160001960f88460031b161c191690558b8080611bfc565b81810151835560209485019460019093019290910190611be1565b909150846000526020600020601f840160051c810160208510611c86575b90849392915b601f830160051c82018110611c775750506116db565b60008155859450600101611c61565b5080611c5b565b906119609061230c565b5060ff611ca76118b1848a612370565b541661160c565b602090604051908152f35b60405162461bcd60e51b815260206004820152601860248201527f4172726179206c656e67746873206d757374206d6174636800000000000000006044820152606490fd5b5080518451146115b0565b5081518151146115aa565b9050825114866115a3565b82356001600160a01b038116810361023157815260209283019201611556565b34610231576000366003190112610231576020600554604051908152f35b346102315760203660031901126102315760043560035481101561023157611d86602091611f5b565b905460405160039290921b1c6001600160a01b03168152f35b3461023157602036600319011261023157611db8611e43565b6004546001600160a01b039190611dd29083163314612230565b16806000526000602052611df060ff60056040600020015416612384565b806000526000602052600560406000200161010061ff00198254161790557f35497b4c4b5de106c5a73835869b64c116686f3f1f522434bf555d0a1345447a6020604051428152a2602060405160018152f35b600435906001600160a01b038216820361023157565b61012081019081106001600160401b038211176109b757604052565b90601f801991011681019081106001600160401b038211176109b757604052565b81601f82011215610231578035906001600160401b0382116109b75760405192611eca601f8401601f191660200185611e75565b8284526020838301011161023157816000926020809301838601378301015290565b60005b838110611eff5750506000910152565b8181015183820152602001611eef565b6020611f28918160405193828580945193849201611eec565b8101600181520301902090565b6020611f4e918160405193828580945193849201611eec565b8101600281520301902090565b600354811015611f925760036000527fc2575a0e9e593c00f959f8c92f12db2869c3395a3b0502d05e2516446f71f85b0190600090565b634e487b7160e01b600052603260045260246000fd5b6001600160401b0381116109b75760051b60200190565b9080601f8301121561023157813590611fd782611fa8565b92611fe56040519485611e75565b828452602092838086019160051b8301019280841161023157848301915b8483106120135750505050505090565b82356001600160401b03811161023157869161203484848094890101611e96565b815201920191612003565b906040600319830112610231576004356001600160a01b03811681036102315791602435906001600160401b0382116102315761207e91600401611e96565b90565b9060209161209a81518092818552858086019101611eec565b601f01601f1916010190565b9061207e91602081528151906120ca61012092836020840152610140830190612081565b916120fe6120ea602086015194601f199586868303016040870152612081565b604086015185858303016060860152612081565b9360018060a01b036060820151166080840152608081015160a084015260a0810151151560c084015260c0810151151560e084015260e081015190610100918285015201519282850301910152612081565b90600182811c92168015612180575b602083101461216a57565b634e487b7160e01b600052602260045260246000fd5b91607f169161215f565b906040519182600082549261219e84612150565b90818452600194858116908160001461220d57506001146121ca575b50506121c892500383611e75565b565b9093915060005260209081600020936000915b8183106121f55750506121c8935082010138806121ba565b855488840185015294850194879450918301916121dd565b9150506121c894506020925060ff191682840152151560051b82010138806121ba565b1561223757565b60405162461bcd60e51b815260206004820152602260248201527f4f6e6c792061646d696e2063616e20706572666f726d2074686973206163746960448201526137b760f11b6064820152608490fd5b1561228e57565b60405162461bcd60e51b81526020600482015260146024820152734e616d652063616e6e6f7420626520656d70747960601b6044820152606490fd5b600354680100000000000000008110156109b7578060016122ee9201600355611f5b565b819291549060031b9160018060a01b03809116831b921b1916179055565b600019811461231b5760010190565b634e487b7160e01b600052601160045260246000fd5b94939261235d60609361234f61236b9460808a5260808a0190612081565b9088820360208a0152612081565b908682036040880152612081565b930152565b8051821015611f925760209160051b010190565b1561238b57565b60405162461bcd60e51b815260206004820152601960248201527f556e6976657273697479206e6f742072656769737465726564000000000000006044820152606490fd5b604051906123dd82611e59565b60606101008382815282602082015282604082015260008382015260006080820152600060a0820152600060c0820152600060e0820152015256fea2646970667358221220f0fa8ffdf9cd5ab9c0423f66c4cb905e43df1286443803d4b7d5cf77e8b75c7c64736f6c63430008140033",
  "linkReferences": {},
  "deployedLinkReferences": {}
}