{
  "_format": "hh-sol-artifact-1",
  "contractName": "CertificateRegistry",
  "sourceName": "contracts/CertificateRegistry.sol",
  "abi": [
    {
      "anonymous": false,
      "inputs": [
        {
          "indexed": true,
          "internalType": "string",
          "name": "fileHash",
          "type": "string"
        },
        {
          "indexed": false,
          "internalType": "string",
          "name": "studentName",
          "type": "string"
        },
        {
          "indexed": false,
          "internalType": "string",
          "name": "registrationNumber",
          "type": "string"
        },
        {
          "indexed": true,
          "internalType": "address",
          "name": "universityAddress",
          "type": "address"
        },
        {
          "indexed": false,
          "internalType": "uint256",
          "name": "timestamp",
          "type": "uint256"
        }
      ],
      "name": "CertificateRegistered",
      "type": "event"
    },
    {
      "anonymous": false,
      "inputs": [
        {
          "indexed": true,
          "internalType": "string",
          "name": "fileHash",
          "type": "string"
        },
        {
          "indexed": false,
          "internalType": "string",
          "name": "reason",
          "type": "string"
        },
        {
          "indexed": false,
          "internalType": "string",
          "name": "replacementCertificateHash",
          "type": "string"
        },
        {
          "indexed": true,
          "internalType": "address",
          "name": "revokedBy",
          "type": "address"
        },
        {
          "indexed": false,
          "internalType": "uint256",
          "name": "timestamp",
          "type": "uint256"
        }
      ],
      "name": "CertificateRevoked",
      "type": "event"
    },
    {
      "anonymous": false,
      "inputs": [
        {
          "indexed": true,
          "internalType": "string",
          "name": "fileHash",
          "type": "string"
        },
        {
          "indexed": false,
          "internalType": "bool",
          "name": "exists",
          "type": "bool"
        },
        {
          "indexed": false,
          "internalType": "uint256",
          "name": "timestamp",
          "type": "uint256"
        }
      ],
      "name": "CertificateVerified",
      "type": "event"
    },
    {
      "inputs": [
        {
          "internalType": "uint256",
          "name": "",
          "type": "uint256"
        }
      ],
      "name": "allCertificateHashes",
      "outputs": [
        {
          "internalType": "string",
          "name": "",
          "type": "string"
        }
      ],
      "stateMutability": "view",
      "type": "function"
    },
    {
      "inputs": [
        {
          "internalType": "string",
          "name": "_fileHash",
          "type": "string"
        }
      ],
      "name": "certificateExists",
      "outputs": [
        {
          "internalType": "bool",
          "name": "",
          "type": "bool"
        }
      ],
      "stateMutability": "view",
      "type": "function"
    },
    {
      "inputs": [
        {
          "internalType": "string",
          "name": "",
          "type": "string"
        }
      ],
      "name": "certificates",
      "outputs": [
        {
          "internalType": "string",
          "name": "studentName",
          "type": "string"
        },
        {
          "internalType": "string",
          "name": "registrationNumber",
          "type": "string"
        },
        {
          "internalType": "string",
          "name": "fileName",
          "type": "string"
        },
        {
          "internalType": "string",
          "name": "ipfsUrl",
          "type": "string"
        },
        {
          "internalType": "string",
          "name": "fileHash",
          "type": "string"
        },
        {
          "internalType": "address",
          "name": "universityAddress",
          "type": "address"
        },
        {
          "internalType": "uint256",
          "name": "timestamp",
          "type": "uint256"
        },
        {
          "internalType": "bool",
          "name": "exists",
          "type": "bool"
        },
        {
          "internalType": "bool",
          "name": "isRevoked",
          "type": "bool"
        },
        {
          "internalType": "string",
          "name": "revocationReason",
          "type": "string"
        },
        {
          "internalType": "uint256",
          "name": "revocationTimestamp",
          "type": "uint256"
        },
        {
          "internalType": "string",
          "name": "replacementCertificateHash",
          "type": "string"
        }
      ],
      "stateMutability": "view",
      "type": "function"
    },
    {
      "inputs": [
        {
          "internalType": "string",
          "name": "_fileHash",
          "type": "string"
        }
      ],
      "name": "getCertificate",
      "outputs": [
        {
          "components": [
            {
              "internalType": "string",
              "name": "studentName",
              "type": "string"
            },
            {
              "internalType": "string",
              "name": "registrationNumber",
              "type": "string"
            },
            {
              "internalType": "string",
              "name": "fileName",
              "type": "string"
            },
            {
              "internalType": "string",
              "name": "ipfsUrl",
              "type": "string"
            },
            {
              "internalType": "string",
              "name": "fileHash",
              "type": "string"
            },
            {
              "internalType": "address",
              "name": "universityAddress",
              "type": "address"
            },
            {
              "internalType": "uint256",
              "name": "timestamp",
              "type": "uint256"
            },
            {
              "internalType": "bool",
              "name": "exists",
              "type": "bool"
            },
            {
              "internalType": "bool",
              "name": "isRevoked",
              "type": "bool"
            },
            {
              "internalType": "string",
              "name": "revocationReason",
              "type": "string"
            },
            {
              "internalType": "uint256",
              "name": "revocationTimestamp",
              "type": "uint256"
            },
            {
              "internalType": "string",
              "name": "replacementCertificateHash",
              "type": "string"
            }
          ],
          "internalType": "struct CertificateRegistry.Certificate",
          "name": "",
          "type": "tuple"
        }
      ],
      "stateMutability": "view",
      "type": "function"
    },
    {
      "inputs": [
        {
          "internalType": "string",
          "name": "_fileHash",
          "type": "string"
        }
      ],
      "name": "getRevocationStatus",
      "outputs": [
        {
          "internalType": "bool",
          "name": "isRevoked",
          "type": "bool"
        },
        {
          "internalType": "string",
          "name": "reason",
          "type": "string"
        },
        {
          "internalType": "uint256",
          "name": "revocationTimestamp",
          "type": "uint256"
        },
        {
          "internalType": "string",
          "name": "replacementHash",
          "type": "string"
        }
      ],
      "stateMutability": "view",
      "type": "function"
    },
    {
      "inputs": [],
      "name": "getTotalCertificates",
      "outputs": [
        {
          "internalType": "uint256",
          "name": "",
          "type": "uint256"
        }
      ],
      "stateMutability": "view",
      "type": "function"
    },
    {
      "inputs": [
        {
          "internalType": "address",
          "name": "_universityAddress",
          "type": "address"
        }
      ],
      "name": "getUniversityCertificates",
      "outputs": [
        {
          "internalType": "string[]",
          "name": "",
          "type": "string[]"
        }
      ],
      "stateMutability": "view",
      "type": "function"
    },
    {
      "inputs": [
        {
          "internalType": "string",
          "name": "_fileHash",
          "type": "string"
        }
      ],
      "name": "isValidCertificate",
      "outputs": [
        {
          "internalType": "bool",
          "name": "",
          "type": "bool"
        }
      ],
      "stateMutability": "view",
      "type": "function"
    },
    {
      "inputs": [
        {
          "internalType": "string",
          "name": "_studentName",
          "type": "string"
        },
        {
          "internalType": "string",
          "name": "_registrationNumber",
          "type": "string"
        },
        {
          "internalType": "string",
          "name": "_fileName",
          "type": "string"
        },
        {
          "internalType": "string",
          "name": "_ipfsUrl",
          "type": "string"
        },
        {
          "internalType": "string",
          "name": "_fileHash",
          "type": "string"
        }
      ],
      "name": "registerCertificate",
      "outputs": [
        {
          "internalType": "bool",
          "name": "",
          "type": "bool"
        }
      ],
      "stateMutability": "nonpayable",
      "type": "function"
    },
    {
      "inputs": [
        {
          "internalType": "string",
          "name": "_fileHash",
          "type": "string"
        },
        {
          "internalType": "string",
          "name": "_reason",
          "type": "string"
        },
        {
          "internalType": "string",
          "name": "_replacementCertificateHash",
          "type": "string"
        }
      ],
      "name": "revokeCertificate",
      "outputs": [
        {
          "internalType": "bool",
          "name": "",
          "type": "bool"
        }
      ],
      "stateMutability": "nonpayable",
      "type": "function"
    },
    {
      "inputs": [
        {
          "internalType": "address",
          "name": "",
          "type": "address"
        },
        {
          "internalType": "uint256",
          "name": "",
          "type": "uint256"
        }
      ],
      "name": "universityCertificates",
      "outputs": [
        {
          "internalType": "string",
          "name": "",
          "type": "string"
        }
      ],
      "stateMutability": "view",
      "type": "function"
    },
    {
      "inputs": [
        {
          "internalType": "string",
          "name": "_fileHash",
          "type": "string"
        }
      ],
      "name": "verifyCertificate",
      "outputs": [
        {
          "internalType": "bool",
          "name": "exists",
          "type": "bool"
        },
        {
          "components": [
            {
              "internalType": "string",
              "name": "studentName",
              "type": "string"
            },
            {
              "internalType": "string",
              "name": "registrationNumber",
              "type": "string"
            },
            {
              "internalType": "string",
              "name": "fileName",
              "type": "string"
            },
            {
              "internalType": "string",
              "name": "ipfsUrl",
              "type": "string"
            },
            {
              "internalType": "string",
              "name": "fileHash",
              "type": "string"
            },
            {
              "internalType": "address",
              "name": "universityAddress",
              "type": "address"
            },
            {
              "internalType": "uint256",
              "name": "timestamp",
              "type": "uint256"
            },
            {
              "internalType": "bool",
              "name": "exists",
              "type": "bool"
            },
            {
              "internalType": "bool",
              "name": "isRevoked",
              "type": "bool"
            },
            {
              "internalType": "string",
              "name": "revocationReason",
              "type": "string"
            },
            {
              "internalType": "uint256",
              "name": "revocationTimestamp",
              "type": "uint256"
            },
            {
              "internalType": "string",
              "name": "replacementCertificateHash",
              "type": "string"
            }
          ],
          "internalType": "struct CertificateRegistry.Certificate",
          "name": "cert",
          "type": "tuple"
        }
      ],
      "stateMutability": "nonpayable",
      "type": "function"
    }
  ],
  "bytecode": "0x608060405234801561001057600080fd5b5061273d806100206000396000f3fe608060405234801561001057600080fd5b50600436106100b45760003560e01c80638a9a74d7116100715780638a9a74d7146101585780638b23d8751461016b5780638f2b91ea1461018c578063aa54bf94146101b7578063b5164b38146101da578063ed0f2e75146101ed57600080fd5b80630655f037146100b9578063149ae6dd146100e15780633d6af38714610101578063474e3e67146101145780637843bb79146101275780637ea4ad5914610138575b600080fd5b6100cc6100c7366004612008565b61020d565b60405190151581526020015b60405180910390f35b6100f46100ef366004612045565b61023a565b6040516100d891906120ae565b6100f461010f3660046120e4565b6102e6565b6100cc61012236600461210e565b61031e565b6002546040519081526020016100d8565b61014b6101463660046121e0565b61078d565b6040516100d891906121fb565b6100cc61016636600461225d565b61087c565b61017e610179366004612008565b610bc4565b6040516100d89291906123f6565b61019f61019a366004612008565b6110bc565b6040516100d89c9b9a99989796959493929190612411565b6101ca6101c5366004612008565b6114eb565b6040516100d894939291906124e4565b6100cc6101e8366004612008565b6119d2565b6102006101fb366004612008565b611a34565b6040516100d89190612522565b6000808260405161021e9190612535565b9081526040519081900360200190206007015460ff1692915050565b6002818154811061024a57600080fd5b90600052602060002001600091509050805461026590612551565b80601f016020809104026020016040519081016040528092919081815260200182805461029190612551565b80156102de5780601f106102b3576101008083540402835291602001916102de565b820191906000526020600020905b8154815290600101906020018083116102c157829003601f168201915b505050505081565b6001602052816000526040600020818154811061030257600080fd5b9060005260206000200160009150915050805461026590612551565b6000808651116103755760405162461bcd60e51b815260206004820152601c60248201527f53747564656e74206e616d652063616e6e6f7420626520656d7074790000000060448201526064015b60405180910390fd5b60008551116103d25760405162461bcd60e51b815260206004820152602360248201527f526567697374726174696f6e206e756d6265722063616e6e6f7420626520656d60448201526270747960e81b606482015260840161036c565b60008451116104235760405162461bcd60e51b815260206004820152601960248201527f46696c65206e616d652063616e6e6f7420626520656d70747900000000000000604482015260640161036c565b60008351116104745760405162461bcd60e51b815260206004820152601860248201527f495046532055524c2063616e6e6f7420626520656d7074790000000000000000604482015260640161036c565b60008251116104c55760405162461bcd60e51b815260206004820152601960248201527f46696c6520686173682063616e6e6f7420626520656d70747900000000000000604482015260640161036c565b6000826040516104d59190612535565b9081526040519081900360200190206007015460ff16156105385760405162461bcd60e51b815260206004820152601e60248201527f436572746966696361746520616c726561647920726567697374657265640000604482015260640161036c565b6040805161018081018252878152602080820188905281830187905260608201869052608082018590523360a08301524260c0830152600160e083015260006101008301819052835180830185528181526101208401526101408301819052835191820184528082526101608301919091529151909182916105bb908690612535565b908152604051908190036020019020815181906105d890826125da565b50602082015160018201906105ed90826125da565b506040820151600282019061060290826125da565b506060820151600382019061061790826125da565b506080820151600482019061062c90826125da565b5060a08201516005820180546001600160a01b039092166001600160a01b031990921691909117905560c0820151600682015560e08201516007820180546101008086015115150261ff00199315159390931661ffff199091161791909117905561012082015160088201906106a290826125da565b506101408201516009820155610160820151600a8201906106c390826125da565b505033600090815260016020818152604083208054928301815583529091200190506106ef84826125da565b50600280546001810182556000919091527f405787fa12a823e0f2b7631cc41b3ba8828b3321ca811111fa75cd3aa3bb5ace0161072c84826125da565b50604051339061073d908590612535565b60405180910390207fe616ab3f5763fe8347f3ebea8944a62aa33eed929a9d82c51a6b256a1d58ec6a8989426040516107789392919061269a565b60405180910390a35060019695505050505050565b6001600160a01b0381166000908152600160209081526040808320805482518185028101850190935280835260609492939192909184015b828210156108715783829060005260206000200180546107e490612551565b80601f016020809104026020016040519081016040528092919081815260200182805461081090612551565b801561085d5780601f106108325761010080835404028352916020019161085d565b820191906000526020600020905b81548152906001019060200180831161084057829003601f168201915b5050505050815260200190600101906107c5565b505050509050919050565b6000808460405161088d9190612535565b9081526040519081900360200190206007015460ff166108bf5760405162461bcd60e51b815260040161036c906126d0565b6000846040516108cf9190612535565b9081526040519081900360200190206007015460ff61010090910416156109385760405162461bcd60e51b815260206004820152601b60248201527f436572746966696361746520616c7265616479207265766f6b65640000000000604482015260640161036c565b336001600160a01b03166000856040516109529190612535565b908152604051908190036020019020600501546001600160a01b0316146109c65760405162461bcd60e51b815260206004820152602260248201527f4f6e6c792069737375696e6720756e69766572736974792063616e207265766f6044820152616b6560f01b606482015260840161036c565b6000835111610a215760405162461bcd60e51b815260206004820152602160248201527f5265766f636174696f6e20726561736f6e2063616e6e6f7420626520656d70746044820152607960f81b606482015260840161036c565b815115610aa957600082604051610a389190612535565b9081526040519081900360200190206007015460ff16610aa95760405162461bcd60e51b815260206004820152602660248201527f5265706c6163656d656e7420636572746966696361746520646f6573206e6f7460448201526508195e1a5cdd60d21b606482015260840161036c565b6001600085604051610abb9190612535565b908152602001604051809103902060070160016101000a81548160ff02191690831515021790555082600085604051610af49190612535565b90815260200160405180910390206008019081610b1191906125da565b5042600085604051610b239190612535565b90815260200160405180910390206009018190555081600085604051610b499190612535565b9081526020016040518091039020600a019081610b6691906125da565b506040513390610b77908690612535565b60405180910390207f67562d27eac2791a265854a2a1b95b0c1f44dff82c377fc9261f9039d92b1f56858542604051610bb29392919061269a565b60405180910390a35060019392505050565b6000610bce611ef7565b600083604051610bde9190612535565b9081526040519081900360200181206007015460ff169250600090610c04908590612535565b908152602001604051809103902060405180610180016040529081600082018054610c2e90612551565b80601f0160208091040260200160405190810160405280929190818152602001828054610c5a90612551565b8015610ca75780601f10610c7c57610100808354040283529160200191610ca7565b820191906000526020600020905b815481529060010190602001808311610c8a57829003601f168201915b50505050508152602001600182018054610cc090612551565b80601f0160208091040260200160405190810160405280929190818152602001828054610cec90612551565b8015610d395780601f10610d0e57610100808354040283529160200191610d39565b820191906000526020600020905b815481529060010190602001808311610d1c57829003601f168201915b50505050508152602001600282018054610d5290612551565b80601f0160208091040260200160405190810160405280929190818152602001828054610d7e90612551565b8015610dcb5780601f10610da057610100808354040283529160200191610dcb565b820191906000526020600020905b815481529060010190602001808311610dae57829003601f168201915b50505050508152602001600382018054610de490612551565b80601f0160208091040260200160405190810160405280929190818152602001828054610e1090612551565b8015610e5d5780601f10610e3257610100808354040283529160200191610e5d565b820191906000526020600020905b815481529060010190602001808311610e4057829003601f168201915b50505050508152602001600482018054610e7690612551565b80601f0160208091040260200160405190810160405280929190818152602001828054610ea290612551565b8015610eef5780601f10610ec457610100808354040283529160200191610eef565b820191906000526020600020905b815481529060010190602001808311610ed257829003601f168201915b505050918352505060058201546001600160a01b0316602082015260068201546040820152600782015460ff80821615156060840152610100909104161515608082015260088201805460a090920191610f4890612551565b80601f0160208091040260200160405190810160405280929190818152602001828054610f7490612551565b8015610fc15780601f10610f9657610100808354040283529160200191610fc1565b820191906000526020600020905b815481529060010190602001808311610fa457829003601f168201915b5050505050815260200160098201548152602001600a82018054610fe490612551565b80601f016020809104026020016040519081016040528092919081815260200182805461101090612551565b801561105d5780601f106110325761010080835404028352916020019161105d565b820191906000526020600020905b81548152906001019060200180831161104057829003601f168201915b5050505050815250509050826040516110769190612535565b604080519182900382208415158352426020840152917fdf8844e71fd10b8e7795ebf19c1650d566bab9b0b2f18a6373153f9aced9fc89910160405180910390a2915091565b80516020818301810180516000825292820191909301209152805481906110e290612551565b80601f016020809104026020016040519081016040528092919081815260200182805461110e90612551565b801561115b5780601f106111305761010080835404028352916020019161115b565b820191906000526020600020905b81548152906001019060200180831161113e57829003601f168201915b50505050509080600101805461117090612551565b80601f016020809104026020016040519081016040528092919081815260200182805461119c90612551565b80156111e95780601f106111be576101008083540402835291602001916111e9565b820191906000526020600020905b8154815290600101906020018083116111cc57829003601f168201915b5050505050908060020180546111fe90612551565b80601f016020809104026020016040519081016040528092919081815260200182805461122a90612551565b80156112775780601f1061124c57610100808354040283529160200191611277565b820191906000526020600020905b81548152906001019060200180831161125a57829003601f168201915b50505050509080600301805461128c90612551565b80601f01602080910402602001604051908101604052809291908181526020018280546112b890612551565b80156113055780601f106112da57610100808354040283529160200191611305565b820191906000526020600020905b8154815290600101906020018083116112e857829003601f168201915b50505050509080600401805461131a90612551565b80601f016020809104026020016040519081016040528092919081815260200182805461134690612551565b80156113935780601f1061136857610100808354040283529160200191611393565b820191906000526020600020905b81548152906001019060200180831161137657829003601f168201915b5050505060058301546006840154600785015460088601805495966001600160a01b039094169592945060ff8083169461010090930416926113d490612551565b80601f016020809104026020016040519081016040528092919081815260200182805461140090612551565b801561144d5780601f106114225761010080835404028352916020019161144d565b820191906000526020600020905b81548152906001019060200180831161143057829003601f168201915b50505050509080600901549080600a01805461146890612551565b80601f016020809104026020016040519081016040528092919081815260200182805461149490612551565b80156114e15780601f106114b6576101008083540402835291602001916114e1565b820191906000526020600020905b8154815290600101906020018083116114c457829003601f168201915b505050505090508c565b60006060600060606000856040516115039190612535565b9081526040519081900360200190206007015460ff166115355760405162461bcd60e51b815260040161036c906126d0565b600080866040516115469190612535565b90815260200160405180910390206040518061018001604052908160008201805461157090612551565b80601f016020809104026020016040519081016040528092919081815260200182805461159c90612551565b80156115e95780601f106115be576101008083540402835291602001916115e9565b820191906000526020600020905b8154815290600101906020018083116115cc57829003601f168201915b5050505050815260200160018201805461160290612551565b80601f016020809104026020016040519081016040528092919081815260200182805461162e90612551565b801561167b5780601f106116505761010080835404028352916020019161167b565b820191906000526020600020905b81548152906001019060200180831161165e57829003601f168201915b5050505050815260200160028201805461169490612551565b80601f01602080910402602001604051908101604052809291908181526020018280546116c090612551565b801561170d5780601f106116e25761010080835404028352916020019161170d565b820191906000526020600020905b8154815290600101906020018083116116f057829003601f168201915b5050505050815260200160038201805461172690612551565b80601f016020809104026020016040519081016040528092919081815260200182805461175290612551565b801561179f5780601f106117745761010080835404028352916020019161179f565b820191906000526020600020905b81548152906001019060200180831161178257829003601f168201915b505050505081526020016004820180546117b890612551565b80601f01602080910402602001604051908101604052809291908181526020018280546117e490612551565b80156118315780601f1061180657610100808354040283529160200191611831565b820191906000526020600020905b81548152906001019060200180831161181457829003601f168201915b505050918352505060058201546001600160a01b0316602082015260068201546040820152600782015460ff80821615156060840152610100909104161515608082015260088201805460a09092019161188a90612551565b80601f01602080910402602001604051908101604052809291908181526020018280546118b690612551565b80156119035780601f106118d857610100808354040283529160200191611903565b820191906000526020600020905b8154815290600101906020018083116118e657829003601f168201915b5050505050815260200160098201548152602001600a8201805461192690612551565b80601f016020809104026020016040519081016040528092919081815260200182805461195290612551565b801561199f5780601f106119745761010080835404028352916020019161199f565b820191906000526020600020905b81548152906001019060200180831161198257829003601f168201915b50505050508152505090508061010001518161012001518261014001518361016001519450945094509450509193509193565b600080826040516119e39190612535565b9081526040519081900360200190206007015460ff168015611a2e5750600082604051611a109190612535565b9081526040519081900360200190206007015460ff61010090910416155b92915050565b611a3c611ef7565b600082604051611a4c9190612535565b9081526040519081900360200190206007015460ff16611a7e5760405162461bcd60e51b815260040161036c906126d0565b600082604051611a8e9190612535565b908152602001604051809103902060405180610180016040529081600082018054611ab890612551565b80601f0160208091040260200160405190810160405280929190818152602001828054611ae490612551565b8015611b315780601f10611b0657610100808354040283529160200191611b31565b820191906000526020600020905b815481529060010190602001808311611b1457829003601f168201915b50505050508152602001600182018054611b4a90612551565b80601f0160208091040260200160405190810160405280929190818152602001828054611b7690612551565b8015611bc35780601f10611b9857610100808354040283529160200191611bc3565b820191906000526020600020905b815481529060010190602001808311611ba657829003601f168201915b50505050508152602001600282018054611bdc90612551565b80601f0160208091040260200160405190810160405280929190818152602001828054611c0890612551565b8015611c555780601f10611c2a57610100808354040283529160200191611c55565b820191906000526020600020905b815481529060010190602001808311611c3857829003601f168201915b50505050508152602001600382018054611c6e90612551565b80601f0160208091040260200160405190810160405280929190818152602001828054611c9a90612551565b8015611ce75780601f10611cbc57610100808354040283529160200191611ce7565b820191906000526020600020905b815481529060010190602001808311611cca57829003601f168201915b50505050508152602001600482018054611d0090612551565b80601f0160208091040260200160405190810160405280929190818152602001828054611d2c90612551565b8015611d795780601f10611d4e57610100808354040283529160200191611d79565b820191906000526020600020905b815481529060010190602001808311611d5c57829003601f168201915b505050918352505060058201546001600160a01b0316602082015260068201546040820152600782015460ff80821615156060840152610100909104161515608082015260088201805460a090920191611dd290612551565b80601f0160208091040260200160405190810160405280929190818152602001828054611dfe90612551565b8015611e4b5780601f10611e2057610100808354040283529160200191611e4b565b820191906000526020600020905b815481529060010190602001808311611e2e57829003601f168201915b5050505050815260200160098201548152602001600a82018054611e6e90612551565b80601f0160208091040260200160405190810160405280929190818152602001828054611e9a90612551565b8015611ee75780601f10611ebc57610100808354040283529160200191611ee7565b820191906000526020600020905b815481529060010190602001808311611eca57829003601f168201915b5050505050815250509050919050565b604051806101800160405280606081526020016060815260200160608152602001606081526020016060815260200160006001600160a01b03168152602001600081526020016000151581526020016000151581526020016060815260200160008152602001606081525090565b634e487b7160e01b600052604160045260246000fd5b600082601f830112611f8c57600080fd5b813567ffffffffffffffff80821115611fa757611fa7611f65565b604051601f8301601f19908116603f01168101908282118183101715611fcf57611fcf611f65565b81604052838152866020858801011115611fe857600080fd5b836020870160208301376000602085830101528094505050505092915050565b60006020828403121561201a57600080fd5b813567ffffffffffffffff81111561203157600080fd5b61203d84828501611f7b565b949350505050565b60006020828403121561205757600080fd5b5035919050565b60005b83811015612079578181015183820152602001612061565b50506000910152565b6000815180845261209a81602086016020860161205e565b601f01601f19169290920160200192915050565b6020815260006120c16020830184612082565b9392505050565b80356001600160a01b03811681146120df57600080fd5b919050565b600080604083850312156120f757600080fd5b612100836120c8565b946020939093013593505050565b600080600080600060a0868803121561212657600080fd5b853567ffffffffffffffff8082111561213e57600080fd5b61214a89838a01611f7b565b9650602088013591508082111561216057600080fd5b61216c89838a01611f7b565b9550604088013591508082111561218257600080fd5b61218e89838a01611f7b565b945060608801359150808211156121a457600080fd5b6121b089838a01611f7b565b935060808801359150808211156121c657600080fd5b506121d388828901611f7b565b9150509295509295909350565b6000602082840312156121f257600080fd5b6120c1826120c8565b6000602080830181845280855180835260408601915060408160051b870101925083870160005b8281101561225057603f1988860301845261223e858351612082565b94509285019290850190600101612222565b5092979650505050505050565b60008060006060848603121561227257600080fd5b833567ffffffffffffffff8082111561228a57600080fd5b61229687838801611f7b565b945060208601359150808211156122ac57600080fd5b6122b887838801611f7b565b935060408601359150808211156122ce57600080fd5b506122db86828701611f7b565b9150509250925092565b600061018082518185526122fb82860182612082565b915050602083015184820360208601526123158282612082565b9150506040830151848203604086015261232f8282612082565b915050606083015184820360608601526123498282612082565b915050608083015184820360808601526123638282612082565b91505060a083015161238060a08601826001600160a01b03169052565b5060c083015160c085015260e083015161239e60e086018215159052565b506101008381015115159085015261012080840151858303828701526123c48382612082565b9250505061014080840151818601525061016080840151858303828701526123ec8382612082565b9695505050505050565b821515815260406020820152600061203d60408301846122e5565b6101808152600061242661018083018f612082565b8281036020840152612438818f612082565b9050828103604084015261244c818e612082565b90508281036060840152612460818d612082565b90508281036080840152612474818c612082565b6001600160a01b038b1660a085015290508860c084015261249960e084018915159052565b8615156101008401528281036101208401526124b58187612082565b9050846101408401528281036101608401526124d18185612082565b9f9e505050505050505050505050505050565b84151581526080602082015260006124ff6080830186612082565b84604084015282810360608401526125178185612082565b979650505050505050565b6020815260006120c160208301846122e5565b6000825161254781846020870161205e565b9190910192915050565b600181811c9082168061256557607f821691505b60208210810361258557634e487b7160e01b600052602260045260246000fd5b50919050565b601f8211156125d557600081815260208120601f850160051c810160208610156125b25750805b601f850160051c820191505b818110156125d1578281556001016125be565b5050505b505050565b815167ffffffffffffffff8111156125f4576125f4611f65565b612608816126028454612551565b8461258b565b602080601f83116001811461263d57600084156126255750858301515b600019600386901b1c1916600185901b1785556125d1565b600085815260208120601f198616915b8281101561266c5788860151825594840194600190910190840161264d565b508582101561268a5787850151600019600388901b60f8161c191681555b5050505050600190811b01905550565b6060815260006126ad6060830186612082565b82810360208401526126bf8186612082565b915050826040830152949350505050565b6020808252601a908201527f436572746966696361746520646f6573206e6f7420657869737400000000000060408201526060019056fea264697066735822122066baca8657e1ecd331d208b0d197dca77d631c06b1696f348fe0af5e582e999e64736f6c63430008140033",
  "linkReferences": {},
  "deployedLinkReferences": {}
}